{
	"contracts/NFTMinter.sol": {
		"NFTMinter": {
			"abi": [
				{
					"inputs": [
						{
							"internalType": "address",
							"name": "_liquidityWallet",
							"type": "address"
						},
						{
							"internalType": "address",
							"name": "_treasuryWallet",
							"type": "address"
						}
					],
					"stateMutability": "nonpayable",
					"type": "constructor"
				},
				{
					"anonymous": false,
					"inputs": [
						{
							"indexed": true,
							"internalType": "address",
							"name": "owner",
							"type": "address"
						},
						{
							"indexed": true,
							"internalType": "address",
							"name": "approved",
							"type": "address"
						},
						{
							"indexed": true,
							"internalType": "uint256",
							"name": "tokenId",
							"type": "uint256"
						}
					],
					"name": "Approval",
					"type": "event"
				},
				{
					"anonymous": false,
					"inputs": [
						{
							"indexed": true,
							"internalType": "address",
							"name": "owner",
							"type": "address"
						},
						{
							"indexed": true,
							"internalType": "address",
							"name": "operator",
							"type": "address"
						},
						{
							"indexed": false,
							"internalType": "bool",
							"name": "approved",
							"type": "bool"
						}
					],
					"name": "ApprovalForAll",
					"type": "event"
				},
				{
					"anonymous": false,
					"inputs": [
						{
							"indexed": true,
							"internalType": "address",
							"name": "previousOwner",
							"type": "address"
						},
						{
							"indexed": true,
							"internalType": "address",
							"name": "newOwner",
							"type": "address"
						}
					],
					"name": "OwnershipTransferred",
					"type": "event"
				},
				{
					"anonymous": false,
					"inputs": [
						{
							"indexed": true,
							"internalType": "address",
							"name": "from",
							"type": "address"
						},
						{
							"indexed": true,
							"internalType": "address",
							"name": "to",
							"type": "address"
						},
						{
							"indexed": true,
							"internalType": "uint256",
							"name": "tokenId",
							"type": "uint256"
						}
					],
					"name": "Transfer",
					"type": "event"
				},
				{
					"inputs": [
						{
							"internalType": "address",
							"name": "to",
							"type": "address"
						},
						{
							"internalType": "uint256",
							"name": "tokenId",
							"type": "uint256"
						}
					],
					"name": "approve",
					"outputs": [],
					"stateMutability": "nonpayable",
					"type": "function"
				},
				{
					"inputs": [
						{
							"internalType": "address",
							"name": "owner",
							"type": "address"
						}
					],
					"name": "balanceOf",
					"outputs": [
						{
							"internalType": "uint256",
							"name": "",
							"type": "uint256"
						}
					],
					"stateMutability": "view",
					"type": "function"
				},
				{
					"inputs": [],
					"name": "currentTokenId",
					"outputs": [
						{
							"internalType": "uint256",
							"name": "",
							"type": "uint256"
						}
					],
					"stateMutability": "view",
					"type": "function"
				},
				{
					"inputs": [
						{
							"internalType": "uint256",
							"name": "tokenId",
							"type": "uint256"
						}
					],
					"name": "getApproved",
					"outputs": [
						{
							"internalType": "address",
							"name": "",
							"type": "address"
						}
					],
					"stateMutability": "view",
					"type": "function"
				},
				{
					"inputs": [
						{
							"internalType": "address",
							"name": "owner",
							"type": "address"
						},
						{
							"internalType": "address",
							"name": "operator",
							"type": "address"
						}
					],
					"name": "isApprovedForAll",
					"outputs": [
						{
							"internalType": "bool",
							"name": "",
							"type": "bool"
						}
					],
					"stateMutability": "view",
					"type": "function"
				},
				{
					"inputs": [],
					"name": "liquidityWallet",
					"outputs": [
						{
							"internalType": "address",
							"name": "",
							"type": "address"
						}
					],
					"stateMutability": "view",
					"type": "function"
				},
				{
					"inputs": [
						{
							"internalType": "string",
							"name": "_name",
							"type": "string"
						},
						{
							"internalType": "string",
							"name": "_metadata",
							"type": "string"
						},
						{
							"internalType": "uint256",
							"name": "_price",
							"type": "uint256"
						}
					],
					"name": "mintNFT",
					"outputs": [],
					"stateMutability": "nonpayable",
					"type": "function"
				},
				{
					"inputs": [],
					"name": "name",
					"outputs": [
						{
							"internalType": "string",
							"name": "",
							"type": "string"
						}
					],
					"stateMutability": "view",
					"type": "function"
				},
				{
					"inputs": [
						{
							"internalType": "uint256",
							"name": "",
							"type": "uint256"
						}
					],
					"name": "nfts",
					"outputs": [
						{
							"internalType": "string",
							"name": "name",
							"type": "string"
						},
						{
							"internalType": "string",
							"name": "metadata",
							"type": "string"
						},
						{
							"internalType": "uint256",
							"name": "price",
							"type": "uint256"
						},
						{
							"internalType": "address",
							"name": "creator",
							"type": "address"
						}
					],
					"stateMutability": "view",
					"type": "function"
				},
				{
					"inputs": [],
					"name": "owner",
					"outputs": [
						{
							"internalType": "address",
							"name": "",
							"type": "address"
						}
					],
					"stateMutability": "view",
					"type": "function"
				},
				{
					"inputs": [
						{
							"internalType": "uint256",
							"name": "tokenId",
							"type": "uint256"
						}
					],
					"name": "ownerOf",
					"outputs": [
						{
							"internalType": "address",
							"name": "",
							"type": "address"
						}
					],
					"stateMutability": "view",
					"type": "function"
				},
				{
					"inputs": [],
					"name": "renounceOwnership",
					"outputs": [],
					"stateMutability": "nonpayable",
					"type": "function"
				},
				{
					"inputs": [
						{
							"internalType": "address",
							"name": "from",
							"type": "address"
						},
						{
							"internalType": "address",
							"name": "to",
							"type": "address"
						},
						{
							"internalType": "uint256",
							"name": "tokenId",
							"type": "uint256"
						}
					],
					"name": "safeTransferFrom",
					"outputs": [],
					"stateMutability": "nonpayable",
					"type": "function"
				},
				{
					"inputs": [
						{
							"internalType": "address",
							"name": "from",
							"type": "address"
						},
						{
							"internalType": "address",
							"name": "to",
							"type": "address"
						},
						{
							"internalType": "uint256",
							"name": "tokenId",
							"type": "uint256"
						},
						{
							"internalType": "bytes",
							"name": "data",
							"type": "bytes"
						}
					],
					"name": "safeTransferFrom",
					"outputs": [],
					"stateMutability": "nonpayable",
					"type": "function"
				},
				{
					"inputs": [
						{
							"internalType": "address",
							"name": "operator",
							"type": "address"
						},
						{
							"internalType": "bool",
							"name": "approved",
							"type": "bool"
						}
					],
					"name": "setApprovalForAll",
					"outputs": [],
					"stateMutability": "nonpayable",
					"type": "function"
				},
				{
					"inputs": [
						{
							"internalType": "bytes4",
							"name": "interfaceId",
							"type": "bytes4"
						}
					],
					"name": "supportsInterface",
					"outputs": [
						{
							"internalType": "bool",
							"name": "",
							"type": "bool"
						}
					],
					"stateMutability": "view",
					"type": "function"
				},
				{
					"inputs": [],
					"name": "symbol",
					"outputs": [
						{
							"internalType": "string",
							"name": "",
							"type": "string"
						}
					],
					"stateMutability": "view",
					"type": "function"
				},
				{
					"inputs": [
						{
							"internalType": "uint256",
							"name": "tokenId",
							"type": "uint256"
						}
					],
					"name": "tokenURI",
					"outputs": [
						{
							"internalType": "string",
							"name": "",
							"type": "string"
						}
					],
					"stateMutability": "view",
					"type": "function"
				},
				{
					"inputs": [
						{
							"internalType": "address",
							"name": "from",
							"type": "address"
						},
						{
							"internalType": "address",
							"name": "to",
							"type": "address"
						},
						{
							"internalType": "uint256",
							"name": "tokenId",
							"type": "uint256"
						}
					],
					"name": "transferFrom",
					"outputs": [],
					"stateMutability": "nonpayable",
					"type": "function"
				},
				{
					"inputs": [
						{
							"internalType": "address",
							"name": "newOwner",
							"type": "address"
						}
					],
					"name": "transferOwnership",
					"outputs": [],
					"stateMutability": "nonpayable",
					"type": "function"
				},
				{
					"inputs": [],
					"name": "treasuryWallet",
					"outputs": [
						{
							"internalType": "address",
							"name": "",
							"type": "address"
						}
					],
					"stateMutability": "view",
					"type": "function"
				}
			],
			"devdoc": {
				"events": {
					"Approval(address,address,uint256)": {
						"details": "Emitted when `owner` enables `approved` to manage the `tokenId` token."
					},
					"ApprovalForAll(address,address,bool)": {
						"details": "Emitted when `owner` enables or disables (`approved`) `operator` to manage all of its assets."
					},
					"Transfer(address,address,uint256)": {
						"details": "Emitted when `tokenId` token is transferred from `from` to `to`."
					}
				},
				"kind": "dev",
				"methods": {
					"approve(address,uint256)": {
						"details": "See {IERC721-approve}."
					},
					"balanceOf(address)": {
						"details": "See {IERC721-balanceOf}."
					},
					"getApproved(uint256)": {
						"details": "See {IERC721-getApproved}."
					},
					"isApprovedForAll(address,address)": {
						"details": "See {IERC721-isApprovedForAll}."
					},
					"name()": {
						"details": "See {IERC721Metadata-name}."
					},
					"owner()": {
						"details": "Returns the address of the current owner."
					},
					"ownerOf(uint256)": {
						"details": "See {IERC721-ownerOf}."
					},
					"renounceOwnership()": {
						"details": "Leaves the contract without owner. It will not be possible to call `onlyOwner` functions. Can only be called by the current owner. NOTE: Renouncing ownership will leave the contract without an owner, thereby disabling any functionality that is only available to the owner."
					},
					"safeTransferFrom(address,address,uint256)": {
						"details": "See {IERC721-safeTransferFrom}."
					},
					"safeTransferFrom(address,address,uint256,bytes)": {
						"details": "See {IERC721-safeTransferFrom}."
					},
					"setApprovalForAll(address,bool)": {
						"details": "See {IERC721-setApprovalForAll}."
					},
					"supportsInterface(bytes4)": {
						"details": "See {IERC165-supportsInterface}."
					},
					"symbol()": {
						"details": "See {IERC721Metadata-symbol}."
					},
					"tokenURI(uint256)": {
						"details": "See {IERC721Metadata-tokenURI}."
					},
					"transferFrom(address,address,uint256)": {
						"details": "See {IERC721-transferFrom}."
					},
					"transferOwnership(address)": {
						"details": "Transfers ownership of the contract to a new account (`newOwner`). Can only be called by the current owner."
					}
				},
				"version": 1
			},
			"evm": {
				"assembly": "    /* \"contracts/NFTMinter.sol\":175:1492  contract NFTMinter is ERC721, Ownable {... */\n  mstore(0x40, 0x80)\n    /* \"contracts/NFTMinter.sol\":502:685  constructor(address _liquidityWallet, address _treasuryWallet) ERC721(\"MyNFT\", \"MNFT\") {... */\n  callvalue\n  dup1\n  iszero\n  tag_1\n  jumpi\n  0x00\n  dup1\n  revert\ntag_1:\n  pop\n  mload(0x40)\n  sub(codesize, bytecodeSize)\n  dup1\n  bytecodeSize\n  dup4\n  codecopy\n  dup2\n  add\n  0x40\n  dup2\n  swap1\n  mstore\n  tag_2\n  swap2\n  tag_3\n  jump\t// in\ntag_2:\n    /* \"@openzeppelin/contracts/token/ERC721/ERC721.sol\":1390:1503  constructor(string memory name_, string memory symbol_) {... */\n  mload(0x40)\n  dup1\n  0x40\n  add\n  0x40\n  mstore\n  dup1\n  0x05\n  dup2\n  mstore\n  0x20\n  add\n  shl(0xda, 0x135e539195)\n  dup2\n  mstore\n  pop\n  mload(0x40)\n  dup1\n  0x40\n  add\n  0x40\n  mstore\n  dup1\n  0x04\n  dup2\n  mstore\n  0x20\n  add\n  shl(0xe2, 0x13539195)\n  dup2\n  mstore\n  pop\n    /* \"@openzeppelin/contracts/token/ERC721/ERC721.sol\":1464:1469  name_ */\n  dup2\n    /* \"@openzeppelin/contracts/token/ERC721/ERC721.sol\":1456:1461  _name */\n  0x00\n    /* \"@openzeppelin/contracts/token/ERC721/ERC721.sol\":1456:1469  _name = name_ */\n  swap1\n  dup2\n  tag_8\n  swap2\n  swap1\n  tag_9\n  jump\t// in\ntag_8:\n  pop\n    /* \"@openzeppelin/contracts/token/ERC721/ERC721.sol\":1479:1486  _symbol */\n  0x01\n    /* \"@openzeppelin/contracts/token/ERC721/ERC721.sol\":1479:1496  _symbol = symbol_ */\n  tag_10\n    /* \"@openzeppelin/contracts/token/ERC721/ERC721.sol\":1489:1496  symbol_ */\n  dup3\n    /* \"@openzeppelin/contracts/token/ERC721/ERC721.sol\":1479:1486  _symbol */\n  dup3\n    /* \"@openzeppelin/contracts/token/ERC721/ERC721.sol\":1479:1496  _symbol = symbol_ */\n  tag_9\n  jump\t// in\ntag_10:\n  pop\n    /* \"@openzeppelin/contracts/token/ERC721/ERC721.sol\":1390:1503  constructor(string memory name_, string memory symbol_) {... */\n  pop\n  pop\n    /* \"@openzeppelin/contracts/access/Ownable.sol\":936:968  _transferOwnership(_msgSender()) */\n  tag_12\n    /* \"@openzeppelin/contracts/access/Ownable.sol\":955:967  _msgSender() */\n  tag_13\n    /* \"@openzeppelin/contracts/access/Ownable.sol\":955:965  _msgSender */\n  shl(0x20, tag_14)\n    /* \"@openzeppelin/contracts/access/Ownable.sol\":955:967  _msgSender() */\n  0x20\n  shr\n  jump\t// in\ntag_13:\n    /* \"@openzeppelin/contracts/access/Ownable.sol\":936:954  _transferOwnership */\n  tag_15\n    /* \"@openzeppelin/contracts/access/Ownable.sol\":936:968  _transferOwnership(_msgSender()) */\n  jump\t// in\ntag_12:\n    /* \"contracts/NFTMinter.sol\":600:615  liquidityWallet */\n  0x09\n    /* \"contracts/NFTMinter.sol\":600:634  liquidityWallet = _liquidityWallet */\n  dup1\n  sload\n  sub(shl(0xa0, 0x01), 0x01)\n  swap4\n  dup5\n  and\n  not(sub(shl(0xa0, 0x01), 0x01))\n  swap2\n  dup3\n  and\n  or\n  swap1\n  swap2\n  sstore\n    /* \"contracts/NFTMinter.sol\":645:659  treasuryWallet */\n  0x0a\n    /* \"contracts/NFTMinter.sol\":645:677  treasuryWallet = _treasuryWallet */\n  dup1\n  sload\n  swap3\n  swap1\n  swap4\n  and\n  swap2\n  and\n  or\n  swap1\n  sstore\n    /* \"contracts/NFTMinter.sol\":175:1492  contract NFTMinter is ERC721, Ownable {... */\n  jump(tag_26)\n    /* \"@openzeppelin/contracts/utils/Context.sol\":640:736  function _msgSender() internal view virtual returns (address) {... */\ntag_14:\n    /* \"@openzeppelin/contracts/utils/Context.sol\":719:729  msg.sender */\n  caller\n  swap1\n    /* \"@openzeppelin/contracts/utils/Context.sol\":640:736  function _msgSender() internal view virtual returns (address) {... */\n  jump\t// out\n    /* \"@openzeppelin/contracts/access/Ownable.sol\":2426:2613  function _transferOwnership(address newOwner) internal virtual {... */\ntag_15:\n    /* \"@openzeppelin/contracts/access/Ownable.sol\":2518:2524  _owner */\n  0x06\n  dup1\n  sload\n  sub(shl(0xa0, 0x01), 0x01)\n    /* \"@openzeppelin/contracts/access/Ownable.sol\":2534:2551  _owner = newOwner */\n  dup4\n  dup2\n  and\n  not(sub(shl(0xa0, 0x01), 0x01))\n  dup4\n  and\n  dup2\n  or\n  swap1\n  swap4\n  sstore\n    /* \"@openzeppelin/contracts/access/Ownable.sol\":2566:2606  OwnershipTransferred(oldOwner, newOwner) */\n  mload(0x40)\n    /* \"@openzeppelin/contracts/access/Ownable.sol\":2518:2524  _owner */\n  swap2\n  and\n  swap2\n    /* \"@openzeppelin/contracts/access/Ownable.sol\":2534:2551  _owner = newOwner */\n  swap1\n    /* \"@openzeppelin/contracts/access/Ownable.sol\":2518:2524  _owner */\n  dup3\n  swap1\n    /* \"@openzeppelin/contracts/access/Ownable.sol\":2566:2606  OwnershipTransferred(oldOwner, newOwner) */\n  0x8be0079c531659141344cd1fd0a4f28419497f9722a3daafe3b4186f6b6457e0\n  swap1\n    /* \"@openzeppelin/contracts/access/Ownable.sol\":2499:2515  address oldOwner */\n  0x00\n  swap1\n    /* \"@openzeppelin/contracts/access/Ownable.sol\":2566:2606  OwnershipTransferred(oldOwner, newOwner) */\n  log3\n    /* \"@openzeppelin/contracts/access/Ownable.sol\":2489:2613  {... */\n  pop\n    /* \"@openzeppelin/contracts/access/Ownable.sol\":2426:2613  function _transferOwnership(address newOwner) internal virtual {... */\n  pop\n  jump\t// out\n    /* \"#utility.yul\":14:191   */\ntag_20:\n    /* \"#utility.yul\":93:106   */\n  dup1\n  mload\n  sub(shl(0xa0, 0x01), 0x01)\n    /* \"#utility.yul\":135:166   */\n  dup2\n  and\n    /* \"#utility.yul\":125:167   */\n  dup2\n  eq\n    /* \"#utility.yul\":115:185   */\n  tag_28\n  jumpi\n    /* \"#utility.yul\":181:182   */\n  0x00\n    /* \"#utility.yul\":178:179   */\n  dup1\n    /* \"#utility.yul\":171:183   */\n  revert\n    /* \"#utility.yul\":115:185   */\ntag_28:\n    /* \"#utility.yul\":14:191   */\n  swap2\n  swap1\n  pop\n  jump\t// out\n    /* \"#utility.yul\":196:489   */\ntag_3:\n    /* \"#utility.yul\":275:281   */\n  0x00\n    /* \"#utility.yul\":283:289   */\n  dup1\n    /* \"#utility.yul\":336:338   */\n  0x40\n    /* \"#utility.yul\":324:333   */\n  dup4\n    /* \"#utility.yul\":315:322   */\n  dup6\n    /* \"#utility.yul\":311:334   */\n  sub\n    /* \"#utility.yul\":307:339   */\n  slt\n    /* \"#utility.yul\":304:356   */\n  iszero\n  tag_30\n  jumpi\n    /* \"#utility.yul\":352:353   */\n  0x00\n    /* \"#utility.yul\":349:350   */\n  dup1\n    /* \"#utility.yul\":342:354   */\n  revert\n    /* \"#utility.yul\":304:356   */\ntag_30:\n    /* \"#utility.yul\":375:415   */\n  tag_31\n    /* \"#utility.yul\":405:414   */\n  dup4\n    /* \"#utility.yul\":375:415   */\n  tag_20\n  jump\t// in\ntag_31:\n    /* \"#utility.yul\":365:415   */\n  swap2\n  pop\n    /* \"#utility.yul\":434:483   */\n  tag_32\n    /* \"#utility.yul\":479:481   */\n  0x20\n    /* \"#utility.yul\":468:477   */\n  dup5\n    /* \"#utility.yul\":464:482   */\n  add\n    /* \"#utility.yul\":434:483   */\n  tag_20\n  jump\t// in\ntag_32:\n    /* \"#utility.yul\":424:483   */\n  swap1\n  pop\n    /* \"#utility.yul\":196:489   */\n  swap3\n  pop\n  swap3\n  swap1\n  pop\n  jump\t// out\n    /* \"#utility.yul\":494:621   */\ntag_21:\n    /* \"#utility.yul\":555:565   */\n  0x4e487b71\n    /* \"#utility.yul\":550:553   */\n  0xe0\n    /* \"#utility.yul\":546:566   */\n  shl\n    /* \"#utility.yul\":543:544   */\n  0x00\n    /* \"#utility.yul\":536:567   */\n  mstore\n    /* \"#utility.yul\":586:590   */\n  0x41\n    /* \"#utility.yul\":583:584   */\n  0x04\n    /* \"#utility.yul\":576:591   */\n  mstore\n    /* \"#utility.yul\":610:614   */\n  0x24\n    /* \"#utility.yul\":607:608   */\n  0x00\n    /* \"#utility.yul\":600:615   */\n  revert\n    /* \"#utility.yul\":626:1006   */\ntag_22:\n    /* \"#utility.yul\":705:706   */\n  0x01\n    /* \"#utility.yul\":701:713   */\n  dup2\n  dup2\n  shr\n  swap1\n    /* \"#utility.yul\":748:760   */\n  dup3\n  and\n  dup1\n    /* \"#utility.yul\":769:830   */\n  tag_35\n  jumpi\n    /* \"#utility.yul\":823:827   */\n  0x7f\n    /* \"#utility.yul\":815:821   */\n  dup3\n    /* \"#utility.yul\":811:828   */\n  and\n    /* \"#utility.yul\":801:828   */\n  swap2\n  pop\n    /* \"#utility.yul\":769:830   */\ntag_35:\n    /* \"#utility.yul\":876:878   */\n  0x20\n    /* \"#utility.yul\":868:874   */\n  dup3\n    /* \"#utility.yul\":865:879   */\n  lt\n    /* \"#utility.yul\":845:863   */\n  dup2\n    /* \"#utility.yul\":842:880   */\n  sub\n    /* \"#utility.yul\":839:1000   */\n  tag_36\n  jumpi\n    /* \"#utility.yul\":922:932   */\n  0x4e487b71\n    /* \"#utility.yul\":917:920   */\n  0xe0\n    /* \"#utility.yul\":913:933   */\n  shl\n    /* \"#utility.yul\":910:911   */\n  0x00\n    /* \"#utility.yul\":903:934   */\n  mstore\n    /* \"#utility.yul\":957:961   */\n  0x22\n    /* \"#utility.yul\":954:955   */\n  0x04\n    /* \"#utility.yul\":947:962   */\n  mstore\n    /* \"#utility.yul\":985:989   */\n  0x24\n    /* \"#utility.yul\":982:983   */\n  0x00\n    /* \"#utility.yul\":975:990   */\n  revert\n    /* \"#utility.yul\":839:1000   */\ntag_36:\n  pop\n    /* \"#utility.yul\":626:1006   */\n  swap2\n  swap1\n  pop\n  jump\t// out\n    /* \"#utility.yul\":1137:1682   */\ntag_24:\n    /* \"#utility.yul\":1239:1241   */\n  0x1f\n    /* \"#utility.yul\":1234:1237   */\n  dup3\n    /* \"#utility.yul\":1231:1242   */\n  gt\n    /* \"#utility.yul\":1228:1676   */\n  iszero\n  tag_39\n  jumpi\n    /* \"#utility.yul\":1275:1276   */\n  0x00\n    /* \"#utility.yul\":1300:1305   */\n  dup2\n    /* \"#utility.yul\":1296:1298   */\n  dup2\n    /* \"#utility.yul\":1289:1306   */\n  mstore\n    /* \"#utility.yul\":1345:1349   */\n  0x20\n    /* \"#utility.yul\":1341:1343   */\n  dup2\n    /* \"#utility.yul\":1331:1350   */\n  keccak256\n    /* \"#utility.yul\":1415:1417   */\n  0x1f\n    /* \"#utility.yul\":1403:1413   */\n  dup6\n    /* \"#utility.yul\":1399:1418   */\n  add\n    /* \"#utility.yul\":1396:1397   */\n  0x05\n    /* \"#utility.yul\":1392:1419   */\n  shr\n    /* \"#utility.yul\":1386:1390   */\n  dup2\n    /* \"#utility.yul\":1382:1420   */\n  add\n    /* \"#utility.yul\":1451:1455   */\n  0x20\n    /* \"#utility.yul\":1439:1449   */\n  dup7\n    /* \"#utility.yul\":1436:1456   */\n  lt\n    /* \"#utility.yul\":1433:1480   */\n  iszero\n  tag_40\n  jumpi\n  pop\n    /* \"#utility.yul\":1474:1478   */\n  dup1\n    /* \"#utility.yul\":1433:1480   */\ntag_40:\n    /* \"#utility.yul\":1529:1531   */\n  0x1f\n    /* \"#utility.yul\":1524:1527   */\n  dup6\n    /* \"#utility.yul\":1520:1532   */\n  add\n    /* \"#utility.yul\":1517:1518   */\n  0x05\n    /* \"#utility.yul\":1513:1533   */\n  shr\n    /* \"#utility.yul\":1507:1511   */\n  dup3\n    /* \"#utility.yul\":1503:1534   */\n  add\n    /* \"#utility.yul\":1493:1534   */\n  swap2\n  pop\n    /* \"#utility.yul\":1584:1666   */\ntag_41:\n    /* \"#utility.yul\":1602:1604   */\n  dup2\n    /* \"#utility.yul\":1595:1600   */\n  dup2\n    /* \"#utility.yul\":1592:1605   */\n  lt\n    /* \"#utility.yul\":1584:1666   */\n  iszero\n  tag_43\n  jumpi\n    /* \"#utility.yul\":1647:1664   */\n  dup3\n  dup2\n  sstore\n    /* \"#utility.yul\":1628:1629   */\n  0x01\n    /* \"#utility.yul\":1617:1630   */\n  add\n    /* \"#utility.yul\":1584:1666   */\n  jump(tag_41)\ntag_43:\n    /* \"#utility.yul\":1588:1591   */\n  pop\n  pop\n  pop\n    /* \"#utility.yul\":1228:1676   */\ntag_39:\n    /* \"#utility.yul\":1137:1682   */\n  pop\n  pop\n  pop\n  jump\t// out\n    /* \"#utility.yul\":1858:3210   */\ntag_9:\n    /* \"#utility.yul\":1978:1988   */\n  dup2\n  mload\n  sub(shl(0x40, 0x01), 0x01)\n    /* \"#utility.yul\":2000:2030   */\n  dup2\n  gt\n    /* \"#utility.yul\":1997:2053   */\n  iszero\n  tag_47\n  jumpi\n    /* \"#utility.yul\":2033:2051   */\n  tag_47\n  tag_21\n  jump\t// in\ntag_47:\n    /* \"#utility.yul\":2062:2159   */\n  tag_48\n    /* \"#utility.yul\":2152:2158   */\n  dup2\n    /* \"#utility.yul\":2112:2150   */\n  tag_49\n    /* \"#utility.yul\":2144:2148   */\n  dup5\n    /* \"#utility.yul\":2138:2149   */\n  sload\n    /* \"#utility.yul\":2112:2150   */\n  tag_22\n  jump\t// in\ntag_49:\n    /* \"#utility.yul\":2106:2110   */\n  dup5\n    /* \"#utility.yul\":2062:2159   */\n  tag_24\n  jump\t// in\ntag_48:\n    /* \"#utility.yul\":2214:2218   */\n  0x20\n  dup1\n    /* \"#utility.yul\":2278:2280   */\n  0x1f\n    /* \"#utility.yul\":2267:2281   */\n  dup4\n  gt\n    /* \"#utility.yul\":2295:2296   */\n  0x01\n    /* \"#utility.yul\":2290:2953   */\n  dup2\n  eq\n  tag_51\n  jumpi\n    /* \"#utility.yul\":2997:2998   */\n  0x00\n    /* \"#utility.yul\":3014:3020   */\n  dup5\n    /* \"#utility.yul\":3011:3100   */\n  iszero\n  tag_52\n  jumpi\n  pop\n    /* \"#utility.yul\":3066:3085   */\n  dup6\n  dup4\n  add\n    /* \"#utility.yul\":3060:3086   */\n  mload\n    /* \"#utility.yul\":3011:3100   */\ntag_52:\n  not(0x00)\n    /* \"#utility.yul\":1815:1816   */\n  0x03\n    /* \"#utility.yul\":1811:1822   */\n  dup7\n  swap1\n  shl\n    /* \"#utility.yul\":1807:1831   */\n  shr\n    /* \"#utility.yul\":1803:1832   */\n  not\n    /* \"#utility.yul\":1793:1833   */\n  and\n    /* \"#utility.yul\":1839:1840   */\n  0x01\n    /* \"#utility.yul\":1835:1846   */\n  dup6\n  swap1\n  shl\n    /* \"#utility.yul\":1790:1847   */\n  or\n    /* \"#utility.yul\":3113:3194   */\n  dup6\n  sstore\n    /* \"#utility.yul\":2260:3204   */\n  jump(tag_43)\n    /* \"#utility.yul\":2290:2953   */\ntag_51:\n    /* \"#utility.yul\":1084:1085   */\n  0x00\n    /* \"#utility.yul\":1077:1091   */\n  dup6\n  dup2\n  mstore\n    /* \"#utility.yul\":1121:1125   */\n  0x20\n    /* \"#utility.yul\":1108:1126   */\n  dup2\n  keccak256\n  not(0x1f)\n    /* \"#utility.yul\":2326:2346   */\n  dup7\n  and\n  swap2\n    /* \"#utility.yul\":2444:2680   */\ntag_55:\n    /* \"#utility.yul\":2458:2465   */\n  dup3\n    /* \"#utility.yul\":2455:2456   */\n  dup2\n    /* \"#utility.yul\":2452:2466   */\n  lt\n    /* \"#utility.yul\":2444:2680   */\n  iszero\n  tag_57\n  jumpi\n    /* \"#utility.yul\":2547:2566   */\n  dup9\n  dup7\n  add\n    /* \"#utility.yul\":2541:2567   */\n  mload\n    /* \"#utility.yul\":2526:2568   */\n  dup3\n  sstore\n    /* \"#utility.yul\":2639:2666   */\n  swap5\n  dup5\n  add\n  swap5\n    /* \"#utility.yul\":2607:2608   */\n  0x01\n    /* \"#utility.yul\":2595:2609   */\n  swap1\n  swap2\n  add\n  swap1\n    /* \"#utility.yul\":2474:2493   */\n  dup5\n  add\n    /* \"#utility.yul\":2444:2680   */\n  jump(tag_55)\ntag_57:\n    /* \"#utility.yul\":2448:2451   */\n  pop\n    /* \"#utility.yul\":2708:2714   */\n  dup6\n    /* \"#utility.yul\":2699:2706   */\n  dup3\n    /* \"#utility.yul\":2696:2715   */\n  lt\n    /* \"#utility.yul\":2693:2894   */\n  iszero\n  tag_58\n  jumpi\n    /* \"#utility.yul\":2769:2788   */\n  dup8\n  dup6\n  add\n    /* \"#utility.yul\":2763:2789   */\n  mload\n  not(0x00)\n    /* \"#utility.yul\":2852:2853   */\n  0x03\n    /* \"#utility.yul\":2848:2862   */\n  dup9\n  swap1\n  shl\n    /* \"#utility.yul\":2864:2867   */\n  0xf8\n    /* \"#utility.yul\":2844:2868   */\n  and\n    /* \"#utility.yul\":2840:2877   */\n  shr\n    /* \"#utility.yul\":2836:2878   */\n  not\n    /* \"#utility.yul\":2821:2879   */\n  and\n    /* \"#utility.yul\":2806:2880   */\n  dup2\n  sstore\n    /* \"#utility.yul\":2693:2894   */\ntag_58:\n  pop\n  pop\n  pop\n  pop\n  pop\n    /* \"#utility.yul\":2940:2941   */\n  0x01\n    /* \"#utility.yul\":2924:2938   */\n  swap1\n  dup2\n  shl\n    /* \"#utility.yul\":2920:2942   */\n  add\n    /* \"#utility.yul\":2907:2943   */\n  swap1\n  sstore\n  pop\n    /* \"#utility.yul\":1858:3210   */\n  jump\t// out\ntag_26:\n    /* \"contracts/NFTMinter.sol\":175:1492  contract NFTMinter is ERC721, Ownable {... */\n  dataSize(sub_0)\n  dup1\n  dataOffset(sub_0)\n  0x00\n  codecopy\n  0x00\n  return\nstop\n\nsub_0: assembly {\n        /* \"contracts/NFTMinter.sol\":175:1492  contract NFTMinter is ERC721, Ownable {... */\n      mstore(0x40, 0x80)\n      callvalue\n      dup1\n      iszero\n      tag_1\n      jumpi\n      0x00\n      dup1\n      revert\n    tag_1:\n      pop\n      jumpi(tag_2, lt(calldatasize, 0x04))\n      shr(0xe0, calldataload(0x00))\n      dup1\n      0x64b30907\n      gt\n      tag_24\n      jumpi\n      dup1\n      0xa22cb465\n      gt\n      tag_25\n      jumpi\n      dup1\n      0xa22cb465\n      eq\n      tag_18\n      jumpi\n      dup1\n      0xb88d4fde\n      eq\n      tag_19\n      jumpi\n      dup1\n      0xc87b56dd\n      eq\n      tag_20\n      jumpi\n      dup1\n      0xd4698016\n      eq\n      tag_21\n      jumpi\n      dup1\n      0xe985e9c5\n      eq\n      tag_22\n      jumpi\n      dup1\n      0xf2fde38b\n      eq\n      tag_23\n      jumpi\n      0x00\n      dup1\n      revert\n    tag_25:\n      dup1\n      0x64b30907\n      eq\n      tag_13\n      jumpi\n      dup1\n      0x70a08231\n      eq\n      tag_14\n      jumpi\n      dup1\n      0x715018a6\n      eq\n      tag_15\n      jumpi\n      dup1\n      0x8da5cb5b\n      eq\n      tag_16\n      jumpi\n      dup1\n      0x95d89b41\n      eq\n      tag_17\n      jumpi\n      0x00\n      dup1\n      revert\n    tag_24:\n      dup1\n      0x23b872dd\n      gt\n      tag_26\n      jumpi\n      dup1\n      0x23b872dd\n      eq\n      tag_8\n      jumpi\n      dup1\n      0x265aa621\n      eq\n      tag_9\n      jumpi\n      dup1\n      0x42842e0e\n      eq\n      tag_10\n      jumpi\n      dup1\n      0x4626402b\n      eq\n      tag_11\n      jumpi\n      dup1\n      0x6352211e\n      eq\n      tag_12\n      jumpi\n      0x00\n      dup1\n      revert\n    tag_26:\n      dup1\n      0x9a9b7b\n      eq\n      tag_3\n      jumpi\n      dup1\n      0x01ffc9a7\n      eq\n      tag_4\n      jumpi\n      dup1\n      0x06fdde03\n      eq\n      tag_5\n      jumpi\n      dup1\n      0x081812fc\n      eq\n      tag_6\n      jumpi\n      dup1\n      0x095ea7b3\n      eq\n      tag_7\n      jumpi\n    tag_2:\n      0x00\n      dup1\n      revert\n        /* \"contracts/NFTMinter.sol\":220:249  uint256 public currentTokenId */\n    tag_3:\n      tag_27\n      sload(0x07)\n      dup2\n      jump\n    tag_27:\n      mload(0x40)\n        /* \"#utility.yul\":160:185   */\n      swap1\n      dup2\n      mstore\n        /* \"#utility.yul\":148:150   */\n      0x20\n        /* \"#utility.yul\":133:151   */\n      add\n        /* \"contracts/NFTMinter.sol\":220:249  uint256 public currentTokenId */\n    tag_29:\n      mload(0x40)\n      dup1\n      swap2\n      sub\n      swap1\n      return\n        /* \"@openzeppelin/contracts/token/ERC721/ERC721.sol\":1570:1870  function supportsInterface(bytes4 interfaceId) public view virtual override(ERC165, IERC165) returns (bool) {... */\n    tag_4:\n      tag_31\n      tag_32\n      calldatasize\n      0x04\n      tag_33\n      jump\t// in\n    tag_32:\n      tag_34\n      jump\t// in\n    tag_31:\n      mload(0x40)\n        /* \"#utility.yul\":747:761   */\n      swap1\n      iszero\n        /* \"#utility.yul\":740:762   */\n      iszero\n        /* \"#utility.yul\":722:763   */\n      dup2\n      mstore\n        /* \"#utility.yul\":710:712   */\n      0x20\n        /* \"#utility.yul\":695:713   */\n      add\n        /* \"@openzeppelin/contracts/token/ERC721/ERC721.sol\":1570:1870  function supportsInterface(bytes4 interfaceId) public view virtual override(ERC165, IERC165) returns (bool) {... */\n      tag_29\n        /* \"#utility.yul\":582:769   */\n      jump\n        /* \"@openzeppelin/contracts/token/ERC721/ERC721.sol\":2471:2569  function name() public view virtual override returns (string memory) {... */\n    tag_5:\n      tag_37\n      tag_38\n      jump\t// in\n    tag_37:\n      mload(0x40)\n      tag_29\n      swap2\n      swap1\n      tag_40\n      jump\t// in\n        /* \"@openzeppelin/contracts/token/ERC721/ERC721.sol\":3935:4102  function getApproved(uint256 tokenId) public view virtual override returns (address) {... */\n    tag_6:\n      tag_41\n      tag_42\n      calldatasize\n      0x04\n      tag_43\n      jump\t// in\n    tag_42:\n      tag_44\n      jump\t// in\n    tag_41:\n      mload(0x40)\n      sub(shl(0xa0, 0x01), 0x01)\n        /* \"#utility.yul\":1879:1911   */\n      swap1\n      swap2\n      and\n        /* \"#utility.yul\":1861:1912   */\n      dup2\n      mstore\n        /* \"#utility.yul\":1849:1851   */\n      0x20\n        /* \"#utility.yul\":1834:1852   */\n      add\n        /* \"@openzeppelin/contracts/token/ERC721/ERC721.sol\":3935:4102  function getApproved(uint256 tokenId) public view virtual override returns (address) {... */\n      tag_29\n        /* \"#utility.yul\":1715:1918   */\n      jump\n        /* \"@openzeppelin/contracts/token/ERC721/ERC721.sol\":3468:3874  function approve(address to, uint256 tokenId) public virtual override {... */\n    tag_7:\n      tag_47\n      tag_48\n      calldatasize\n      0x04\n      tag_49\n      jump\t// in\n    tag_48:\n      tag_50\n      jump\t// in\n    tag_47:\n      stop\n        /* \"@openzeppelin/contracts/token/ERC721/ERC721.sol\":4612:4908  function transferFrom(address from, address to, uint256 tokenId) public virtual override {... */\n    tag_8:\n      tag_47\n      tag_52\n      calldatasize\n      0x04\n      tag_53\n      jump\t// in\n    tag_52:\n      tag_54\n      jump\t// in\n        /* \"contracts/NFTMinter.sol\":383:418  mapping(uint256 => NFT) public nfts */\n    tag_9:\n      tag_55\n      tag_56\n      calldatasize\n      0x04\n      tag_43\n      jump\t// in\n    tag_56:\n      tag_57\n      jump\t// in\n    tag_55:\n      mload(0x40)\n      tag_29\n      swap5\n      swap4\n      swap3\n      swap2\n      swap1\n      tag_59\n      jump\t// in\n        /* \"@openzeppelin/contracts/token/ERC721/ERC721.sol\":4974:5123  function safeTransferFrom(address from, address to, uint256 tokenId) public virtual override {... */\n    tag_10:\n      tag_47\n      tag_61\n      calldatasize\n      0x04\n      tag_53\n      jump\t// in\n    tag_61:\n      tag_62\n      jump\t// in\n        /* \"contracts/NFTMinter.sol\":464:493  address public treasuryWallet */\n    tag_11:\n      sload(0x0a)\n      tag_41\n      swap1\n      sub(shl(0xa0, 0x01), 0x01)\n      and\n      dup2\n      jump\n        /* \"@openzeppelin/contracts/token/ERC721/ERC721.sol\":2190:2409  function ownerOf(uint256 tokenId) public view virtual override returns (address) {... */\n    tag_12:\n      tag_41\n      tag_67\n      calldatasize\n      0x04\n      tag_43\n      jump\t// in\n    tag_67:\n      tag_68\n      jump\t// in\n        /* \"contracts/NFTMinter.sol\":693:1489  function mintNFT(string memory _name, string memory _metadata, uint256 _price) external {... */\n    tag_13:\n      tag_47\n      tag_71\n      calldatasize\n      0x04\n      tag_72\n      jump\t// in\n    tag_71:\n      tag_73\n      jump\t// in\n        /* \"@openzeppelin/contracts/token/ERC721/ERC721.sol\":1929:2133  function balanceOf(address owner) public view virtual override returns (uint256) {... */\n    tag_14:\n      tag_27\n      tag_75\n      calldatasize\n      0x04\n      tag_76\n      jump\t// in\n    tag_75:\n      tag_77\n      jump\t// in\n        /* \"@openzeppelin/contracts/access/Ownable.sol\":1824:1925  function renounceOwnership() public virtual onlyOwner {... */\n    tag_15:\n      tag_47\n      tag_80\n      jump\t// in\n        /* \"@openzeppelin/contracts/access/Ownable.sol\":1201:1286  function owner() public view virtual returns (address) {... */\n    tag_16:\n        /* \"@openzeppelin/contracts/access/Ownable.sol\":1273:1279  _owner */\n      and(sub(shl(0xa0, 0x01), 0x01), sload(0x06))\n        /* \"@openzeppelin/contracts/access/Ownable.sol\":1201:1286  function owner() public view virtual returns (address) {... */\n      jump(tag_41)\n        /* \"@openzeppelin/contracts/token/ERC721/ERC721.sol\":2633:2735  function symbol() public view virtual override returns (string memory) {... */\n    tag_17:\n      tag_37\n      tag_85\n      jump\t// in\n        /* \"@openzeppelin/contracts/token/ERC721/ERC721.sol\":4169:4322  function setApprovalForAll(address operator, bool approved) public virtual override {... */\n    tag_18:\n      tag_47\n      tag_88\n      calldatasize\n      0x04\n      tag_89\n      jump\t// in\n    tag_88:\n      tag_90\n      jump\t// in\n        /* \"@openzeppelin/contracts/token/ERC721/ERC721.sol\":5189:5465  function safeTransferFrom(address from, address to, uint256 tokenId, bytes memory data) public virtual override {... */\n    tag_19:\n      tag_47\n      tag_92\n      calldatasize\n      0x04\n      tag_93\n      jump\t// in\n    tag_92:\n      tag_94\n      jump\t// in\n        /* \"@openzeppelin/contracts/token/ERC721/ERC721.sol\":2801:3077  function tokenURI(uint256 tokenId) public view virtual override returns (string memory) {... */\n    tag_20:\n      tag_37\n      tag_96\n      calldatasize\n      0x04\n      tag_43\n      jump\t// in\n    tag_96:\n      tag_97\n      jump\t// in\n        /* \"contracts/NFTMinter.sol\":427:457  address public liquidityWallet */\n    tag_21:\n      sload(0x09)\n      tag_41\n      swap1\n      sub(shl(0xa0, 0x01), 0x01)\n      and\n      dup2\n      jump\n        /* \"@openzeppelin/contracts/token/ERC721/ERC721.sol\":4388:4550  function isApprovedForAll(address owner, address operator) public view virtual override returns (bool) {... */\n    tag_22:\n      tag_31\n      tag_103\n      calldatasize\n      0x04\n      tag_104\n      jump\t// in\n    tag_103:\n      tag_105\n      jump\t// in\n        /* \"@openzeppelin/contracts/access/Ownable.sol\":2074:2272  function transferOwnership(address newOwner) public virtual onlyOwner {... */\n    tag_23:\n      tag_47\n      tag_108\n      calldatasize\n      0x04\n      tag_76\n      jump\t// in\n    tag_108:\n      tag_109\n      jump\t// in\n        /* \"@openzeppelin/contracts/token/ERC721/ERC721.sol\":1570:1870  function supportsInterface(bytes4 interfaceId) public view virtual override(ERC165, IERC165) returns (bool) {... */\n    tag_34:\n        /* \"@openzeppelin/contracts/token/ERC721/ERC721.sol\":1672:1676  bool */\n      0x00\n      not(sub(shl(0xe0, 0x01), 0x01))\n        /* \"@openzeppelin/contracts/token/ERC721/ERC721.sol\":1707:1747  interfaceId == type(IERC721).interfaceId */\n      dup3\n      and\n      shl(0xe0, 0x80ac58cd)\n      eq\n      dup1\n        /* \"@openzeppelin/contracts/token/ERC721/ERC721.sol\":1707:1811  interfaceId == type(IERC721).interfaceId ||... */\n      tag_111\n      jumpi\n      pop\n      not(sub(shl(0xe0, 0x01), 0x01))\n        /* \"@openzeppelin/contracts/token/ERC721/ERC721.sol\":1763:1811  interfaceId == type(IERC721Metadata).interfaceId */\n      dup3\n      and\n      shl(0xe0, 0x5b5e139f)\n      eq\n        /* \"@openzeppelin/contracts/token/ERC721/ERC721.sol\":1707:1811  interfaceId == type(IERC721).interfaceId ||... */\n    tag_111:\n        /* \"@openzeppelin/contracts/token/ERC721/ERC721.sol\":1707:1863  interfaceId == type(IERC721).interfaceId ||... */\n      dup1\n      tag_113\n      jumpi\n      pop\n      shl(0xe0, 0x01ffc9a7)\n      not(sub(shl(0xe0, 0x01), 0x01))\n        /* \"@openzeppelin/contracts/utils/introspection/ERC165.sol\":937:977  interfaceId == type(IERC165).interfaceId */\n      dup4\n      and\n      eq\n        /* \"@openzeppelin/contracts/token/ERC721/ERC721.sol\":1827:1863  super.supportsInterface(interfaceId) */\n    tag_113:\n        /* \"@openzeppelin/contracts/token/ERC721/ERC721.sol\":1688:1863  return... */\n      swap3\n        /* \"@openzeppelin/contracts/token/ERC721/ERC721.sol\":1570:1870  function supportsInterface(bytes4 interfaceId) public view virtual override(ERC165, IERC165) returns (bool) {... */\n      swap2\n      pop\n      pop\n      jump\t// out\n        /* \"@openzeppelin/contracts/token/ERC721/ERC721.sol\":2471:2569  function name() public view virtual override returns (string memory) {... */\n    tag_38:\n        /* \"@openzeppelin/contracts/token/ERC721/ERC721.sol\":2525:2538  string memory */\n      0x60\n        /* \"@openzeppelin/contracts/token/ERC721/ERC721.sol\":2557:2562  _name */\n      0x00\n        /* \"@openzeppelin/contracts/token/ERC721/ERC721.sol\":2550:2562  return _name */\n      dup1\n      sload\n      tag_116\n      swap1\n      tag_117\n      jump\t// in\n    tag_116:\n      dup1\n      0x1f\n      add\n      0x20\n      dup1\n      swap2\n      div\n      mul\n      0x20\n      add\n      mload(0x40)\n      swap1\n      dup2\n      add\n      0x40\n      mstore\n      dup1\n      swap3\n      swap2\n      swap1\n      dup2\n      dup2\n      mstore\n      0x20\n      add\n      dup3\n      dup1\n      sload\n      tag_118\n      swap1\n      tag_117\n      jump\t// in\n    tag_118:\n      dup1\n      iszero\n      tag_119\n      jumpi\n      dup1\n      0x1f\n      lt\n      tag_120\n      jumpi\n      0x0100\n      dup1\n      dup4\n      sload\n      div\n      mul\n      dup4\n      mstore\n      swap2\n      0x20\n      add\n      swap2\n      jump(tag_119)\n    tag_120:\n      dup3\n      add\n      swap2\n      swap1\n      0x00\n      mstore\n      keccak256(0x00, 0x20)\n      swap1\n    tag_121:\n      dup2\n      sload\n      dup2\n      mstore\n      swap1\n      0x01\n      add\n      swap1\n      0x20\n      add\n      dup1\n      dup4\n      gt\n      tag_121\n      jumpi\n      dup3\n      swap1\n      sub\n      0x1f\n      and\n      dup3\n      add\n      swap2\n    tag_119:\n      pop\n      pop\n      pop\n      pop\n      pop\n      swap1\n      pop\n        /* \"@openzeppelin/contracts/token/ERC721/ERC721.sol\":2471:2569  function name() public view virtual override returns (string memory) {... */\n      swap1\n      jump\t// out\n        /* \"@openzeppelin/contracts/token/ERC721/ERC721.sol\":3935:4102  function getApproved(uint256 tokenId) public view virtual override returns (address) {... */\n    tag_44:\n        /* \"@openzeppelin/contracts/token/ERC721/ERC721.sol\":4011:4018  address */\n      0x00\n        /* \"@openzeppelin/contracts/token/ERC721/ERC721.sol\":4030:4053  _requireMinted(tokenId) */\n      tag_123\n        /* \"@openzeppelin/contracts/token/ERC721/ERC721.sol\":4045:4052  tokenId */\n      dup3\n        /* \"@openzeppelin/contracts/token/ERC721/ERC721.sol\":4030:4044  _requireMinted */\n      tag_124\n        /* \"@openzeppelin/contracts/token/ERC721/ERC721.sol\":4030:4053  _requireMinted(tokenId) */\n      jump\t// in\n    tag_123:\n      pop\n        /* \"@openzeppelin/contracts/token/ERC721/ERC721.sol\":4071:4095  _tokenApprovals[tokenId] */\n      0x00\n      swap1\n      dup2\n      mstore\n        /* \"@openzeppelin/contracts/token/ERC721/ERC721.sol\":4071:4086  _tokenApprovals */\n      0x04\n        /* \"@openzeppelin/contracts/token/ERC721/ERC721.sol\":4071:4095  _tokenApprovals[tokenId] */\n      0x20\n      mstore\n      0x40\n      swap1\n      keccak256\n      sload\n      sub(shl(0xa0, 0x01), 0x01)\n      and\n      swap1\n        /* \"@openzeppelin/contracts/token/ERC721/ERC721.sol\":3935:4102  function getApproved(uint256 tokenId) public view virtual override returns (address) {... */\n      jump\t// out\n        /* \"@openzeppelin/contracts/token/ERC721/ERC721.sol\":3468:3874  function approve(address to, uint256 tokenId) public virtual override {... */\n    tag_50:\n        /* \"@openzeppelin/contracts/token/ERC721/ERC721.sol\":3548:3561  address owner */\n      0x00\n        /* \"@openzeppelin/contracts/token/ERC721/ERC721.sol\":3564:3587  ERC721.ownerOf(tokenId) */\n      tag_126\n        /* \"@openzeppelin/contracts/token/ERC721/ERC721.sol\":3579:3586  tokenId */\n      dup3\n        /* \"@openzeppelin/contracts/token/ERC721/ERC721.sol\":3564:3578  ERC721.ownerOf */\n      tag_68\n        /* \"@openzeppelin/contracts/token/ERC721/ERC721.sol\":3564:3587  ERC721.ownerOf(tokenId) */\n      jump\t// in\n    tag_126:\n        /* \"@openzeppelin/contracts/token/ERC721/ERC721.sol\":3548:3587  address owner = ERC721.ownerOf(tokenId) */\n      swap1\n      pop\n        /* \"@openzeppelin/contracts/token/ERC721/ERC721.sol\":3611:3616  owner */\n      dup1\n      sub(shl(0xa0, 0x01), 0x01)\n        /* \"@openzeppelin/contracts/token/ERC721/ERC721.sol\":3605:3616  to != owner */\n      and\n        /* \"@openzeppelin/contracts/token/ERC721/ERC721.sol\":3605:3607  to */\n      dup4\n      sub(shl(0xa0, 0x01), 0x01)\n        /* \"@openzeppelin/contracts/token/ERC721/ERC721.sol\":3605:3616  to != owner */\n      and\n      sub\n        /* \"@openzeppelin/contracts/token/ERC721/ERC721.sol\":3597:3654  require(to != owner, \"ERC721: approval to current owner\") */\n      tag_127\n      jumpi\n      mload(0x40)\n      shl(0xe5, 0x461bcd)\n      dup2\n      mstore\n        /* \"#utility.yul\":6930:6932   */\n      0x20\n        /* \"@openzeppelin/contracts/token/ERC721/ERC721.sol\":3597:3654  require(to != owner, \"ERC721: approval to current owner\") */\n      0x04\n      dup3\n      add\n        /* \"#utility.yul\":6912:6933   */\n      mstore\n        /* \"#utility.yul\":6969:6971   */\n      0x21\n        /* \"#utility.yul\":6949:6967   */\n      0x24\n      dup3\n      add\n        /* \"#utility.yul\":6942:6972   */\n      mstore\n        /* \"#utility.yul\":7008:7042   */\n      0x4552433732313a20617070726f76616c20746f2063757272656e74206f776e65\n        /* \"#utility.yul\":6988:7006   */\n      0x44\n      dup3\n      add\n        /* \"#utility.yul\":6981:7043   */\n      mstore\n      shl(0xf9, 0x39)\n        /* \"#utility.yul\":7059:7077   */\n      0x64\n      dup3\n      add\n        /* \"#utility.yul\":7052:7083   */\n      mstore\n        /* \"#utility.yul\":7100:7119   */\n      0x84\n      add\n        /* \"@openzeppelin/contracts/token/ERC721/ERC721.sol\":3597:3654  require(to != owner, \"ERC721: approval to current owner\") */\n    tag_128:\n      mload(0x40)\n      dup1\n      swap2\n      sub\n      swap1\n      revert\n    tag_127:\n        /* \"@openzeppelin/contracts/utils/Context.sol\":719:729  msg.sender */\n      caller\n      sub(shl(0xa0, 0x01), 0x01)\n        /* \"@openzeppelin/contracts/token/ERC721/ERC721.sol\":3686:3707  _msgSender() == owner */\n      dup3\n      and\n      eq\n      dup1\n        /* \"@openzeppelin/contracts/token/ERC721/ERC721.sol\":3686:3748  _msgSender() == owner || isApprovedForAll(owner, _msgSender()) */\n      tag_133\n      jumpi\n      pop\n        /* \"@openzeppelin/contracts/token/ERC721/ERC721.sol\":3711:3748  isApprovedForAll(owner, _msgSender()) */\n      tag_133\n        /* \"@openzeppelin/contracts/token/ERC721/ERC721.sol\":3728:3733  owner */\n      dup2\n        /* \"@openzeppelin/contracts/utils/Context.sol\":719:729  msg.sender */\n      caller\n        /* \"@openzeppelin/contracts/token/ERC721/ERC721.sol\":4388:4550  function isApprovedForAll(address owner, address operator) public view virtual override returns (bool) {... */\n      tag_105\n      jump\t// in\n        /* \"@openzeppelin/contracts/token/ERC721/ERC721.sol\":3711:3748  isApprovedForAll(owner, _msgSender()) */\n    tag_133:\n        /* \"@openzeppelin/contracts/token/ERC721/ERC721.sol\":3665:3835  require(... */\n      tag_135\n      jumpi\n      mload(0x40)\n      shl(0xe5, 0x461bcd)\n      dup2\n      mstore\n        /* \"#utility.yul\":7332:7334   */\n      0x20\n        /* \"@openzeppelin/contracts/token/ERC721/ERC721.sol\":3665:3835  require(... */\n      0x04\n      dup3\n      add\n        /* \"#utility.yul\":7314:7335   */\n      mstore\n        /* \"#utility.yul\":7371:7373   */\n      0x3d\n        /* \"#utility.yul\":7351:7369   */\n      0x24\n      dup3\n      add\n        /* \"#utility.yul\":7344:7374   */\n      mstore\n        /* \"#utility.yul\":7410:7444   */\n      0x4552433732313a20617070726f76652063616c6c6572206973206e6f7420746f\n        /* \"#utility.yul\":7390:7408   */\n      0x44\n      dup3\n      add\n        /* \"#utility.yul\":7383:7445   */\n      mstore\n        /* \"#utility.yul\":7481:7512   */\n      0x6b656e206f776e6572206f7220617070726f76656420666f7220616c6c000000\n        /* \"#utility.yul\":7461:7479   */\n      0x64\n      dup3\n      add\n        /* \"#utility.yul\":7454:7513   */\n      mstore\n        /* \"#utility.yul\":7530:7549   */\n      0x84\n      add\n        /* \"@openzeppelin/contracts/token/ERC721/ERC721.sol\":3665:3835  require(... */\n      tag_128\n        /* \"#utility.yul\":7130:7555   */\n      jump\n        /* \"@openzeppelin/contracts/token/ERC721/ERC721.sol\":3665:3835  require(... */\n    tag_135:\n        /* \"@openzeppelin/contracts/token/ERC721/ERC721.sol\":3846:3867  _approve(to, tokenId) */\n      tag_138\n        /* \"@openzeppelin/contracts/token/ERC721/ERC721.sol\":3855:3857  to */\n      dup4\n        /* \"@openzeppelin/contracts/token/ERC721/ERC721.sol\":3859:3866  tokenId */\n      dup4\n        /* \"@openzeppelin/contracts/token/ERC721/ERC721.sol\":3846:3854  _approve */\n      tag_139\n        /* \"@openzeppelin/contracts/token/ERC721/ERC721.sol\":3846:3867  _approve(to, tokenId) */\n      jump\t// in\n    tag_138:\n        /* \"@openzeppelin/contracts/token/ERC721/ERC721.sol\":3538:3874  {... */\n      pop\n        /* \"@openzeppelin/contracts/token/ERC721/ERC721.sol\":3468:3874  function approve(address to, uint256 tokenId) public virtual override {... */\n      pop\n      pop\n      jump\t// out\n        /* \"@openzeppelin/contracts/token/ERC721/ERC721.sol\":4612:4908  function transferFrom(address from, address to, uint256 tokenId) public virtual override {... */\n    tag_54:\n        /* \"@openzeppelin/contracts/token/ERC721/ERC721.sol\":4771:4812  _isApprovedOrOwner(_msgSender(), tokenId) */\n      tag_141\n        /* \"@openzeppelin/contracts/utils/Context.sol\":719:729  msg.sender */\n      caller\n        /* \"@openzeppelin/contracts/token/ERC721/ERC721.sol\":4804:4811  tokenId */\n      dup3\n        /* \"@openzeppelin/contracts/token/ERC721/ERC721.sol\":4771:4789  _isApprovedOrOwner */\n      tag_143\n        /* \"@openzeppelin/contracts/token/ERC721/ERC721.sol\":4771:4812  _isApprovedOrOwner(_msgSender(), tokenId) */\n      jump\t// in\n    tag_141:\n        /* \"@openzeppelin/contracts/token/ERC721/ERC721.sol\":4763:4862  require(_isApprovedOrOwner(_msgSender(), tokenId), \"ERC721: caller is not token owner or approved\") */\n      tag_144\n      jumpi\n      mload(0x40)\n      shl(0xe5, 0x461bcd)\n      dup2\n      mstore\n      0x04\n      add\n      tag_128\n      swap1\n      tag_146\n      jump\t// in\n    tag_144:\n        /* \"@openzeppelin/contracts/token/ERC721/ERC721.sol\":4873:4901  _transfer(from, to, tokenId) */\n      tag_138\n        /* \"@openzeppelin/contracts/token/ERC721/ERC721.sol\":4883:4887  from */\n      dup4\n        /* \"@openzeppelin/contracts/token/ERC721/ERC721.sol\":4889:4891  to */\n      dup4\n        /* \"@openzeppelin/contracts/token/ERC721/ERC721.sol\":4893:4900  tokenId */\n      dup4\n        /* \"@openzeppelin/contracts/token/ERC721/ERC721.sol\":4873:4882  _transfer */\n      tag_148\n        /* \"@openzeppelin/contracts/token/ERC721/ERC721.sol\":4873:4901  _transfer(from, to, tokenId) */\n      jump\t// in\n        /* \"contracts/NFTMinter.sol\":383:418  mapping(uint256 => NFT) public nfts */\n    tag_57:\n      mstore(0x20, 0x08)\n      0x00\n      swap1\n      dup2\n      mstore\n      0x40\n      swap1\n      keccak256\n      dup1\n      sload\n      dup2\n      swap1\n      tag_149\n      swap1\n      tag_117\n      jump\t// in\n    tag_149:\n      dup1\n      0x1f\n      add\n      0x20\n      dup1\n      swap2\n      div\n      mul\n      0x20\n      add\n      mload(0x40)\n      swap1\n      dup2\n      add\n      0x40\n      mstore\n      dup1\n      swap3\n      swap2\n      swap1\n      dup2\n      dup2\n      mstore\n      0x20\n      add\n      dup3\n      dup1\n      sload\n      tag_150\n      swap1\n      tag_117\n      jump\t// in\n    tag_150:\n      dup1\n      iszero\n      tag_151\n      jumpi\n      dup1\n      0x1f\n      lt\n      tag_152\n      jumpi\n      0x0100\n      dup1\n      dup4\n      sload\n      div\n      mul\n      dup4\n      mstore\n      swap2\n      0x20\n      add\n      swap2\n      jump(tag_151)\n    tag_152:\n      dup3\n      add\n      swap2\n      swap1\n      0x00\n      mstore\n      keccak256(0x00, 0x20)\n      swap1\n    tag_153:\n      dup2\n      sload\n      dup2\n      mstore\n      swap1\n      0x01\n      add\n      swap1\n      0x20\n      add\n      dup1\n      dup4\n      gt\n      tag_153\n      jumpi\n      dup3\n      swap1\n      sub\n      0x1f\n      and\n      dup3\n      add\n      swap2\n    tag_151:\n      pop\n      pop\n      pop\n      pop\n      pop\n      swap1\n      dup1\n      0x01\n      add\n      dup1\n      sload\n      tag_154\n      swap1\n      tag_117\n      jump\t// in\n    tag_154:\n      dup1\n      0x1f\n      add\n      0x20\n      dup1\n      swap2\n      div\n      mul\n      0x20\n      add\n      mload(0x40)\n      swap1\n      dup2\n      add\n      0x40\n      mstore\n      dup1\n      swap3\n      swap2\n      swap1\n      dup2\n      dup2\n      mstore\n      0x20\n      add\n      dup3\n      dup1\n      sload\n      tag_155\n      swap1\n      tag_117\n      jump\t// in\n    tag_155:\n      dup1\n      iszero\n      tag_156\n      jumpi\n      dup1\n      0x1f\n      lt\n      tag_157\n      jumpi\n      0x0100\n      dup1\n      dup4\n      sload\n      div\n      mul\n      dup4\n      mstore\n      swap2\n      0x20\n      add\n      swap2\n      jump(tag_156)\n    tag_157:\n      dup3\n      add\n      swap2\n      swap1\n      0x00\n      mstore\n      keccak256(0x00, 0x20)\n      swap1\n    tag_158:\n      dup2\n      sload\n      dup2\n      mstore\n      swap1\n      0x01\n      add\n      swap1\n      0x20\n      add\n      dup1\n      dup4\n      gt\n      tag_158\n      jumpi\n      dup3\n      swap1\n      sub\n      0x1f\n      and\n      dup3\n      add\n      swap2\n    tag_156:\n      pop\n      pop\n      pop\n      pop\n      0x02\n      dup4\n      add\n      sload\n      0x03\n      swap1\n      swap4\n      add\n      sload\n      swap2\n      swap3\n      swap2\n      sub(shl(0xa0, 0x01), 0x01)\n      and\n      swap1\n      pop\n      dup5\n      jump\t// out\n        /* \"@openzeppelin/contracts/token/ERC721/ERC721.sol\":4974:5123  function safeTransferFrom(address from, address to, uint256 tokenId) public virtual override {... */\n    tag_62:\n        /* \"@openzeppelin/contracts/token/ERC721/ERC721.sol\":5077:5116  safeTransferFrom(from, to, tokenId, \"\") */\n      tag_138\n        /* \"@openzeppelin/contracts/token/ERC721/ERC721.sol\":5094:5098  from */\n      dup4\n        /* \"@openzeppelin/contracts/token/ERC721/ERC721.sol\":5100:5102  to */\n      dup4\n        /* \"@openzeppelin/contracts/token/ERC721/ERC721.sol\":5104:5111  tokenId */\n      dup4\n        /* \"@openzeppelin/contracts/token/ERC721/ERC721.sol\":5077:5116  safeTransferFrom(from, to, tokenId, \"\") */\n      mload(0x40)\n      dup1\n      0x20\n      add\n      0x40\n      mstore\n      dup1\n      0x00\n      dup2\n      mstore\n      pop\n        /* \"@openzeppelin/contracts/token/ERC721/ERC721.sol\":5077:5093  safeTransferFrom */\n      tag_94\n        /* \"@openzeppelin/contracts/token/ERC721/ERC721.sol\":5077:5116  safeTransferFrom(from, to, tokenId, \"\") */\n      jump\t// in\n        /* \"@openzeppelin/contracts/token/ERC721/ERC721.sol\":2190:2409  function ownerOf(uint256 tokenId) public view virtual override returns (address) {... */\n    tag_68:\n        /* \"@openzeppelin/contracts/token/ERC721/ERC721.sol\":2262:2269  address */\n      0x00\n        /* \"@openzeppelin/contracts/token/ERC721/ERC721.sol\":6794:6810  _owners[tokenId] */\n      dup2\n      dup2\n      mstore\n        /* \"@openzeppelin/contracts/token/ERC721/ERC721.sol\":6794:6801  _owners */\n      0x02\n        /* \"@openzeppelin/contracts/token/ERC721/ERC721.sol\":6794:6810  _owners[tokenId] */\n      0x20\n      mstore\n      0x40\n      dup2\n      keccak256\n      sload\n      sub(shl(0xa0, 0x01), 0x01)\n      and\n      dup1\n        /* \"@openzeppelin/contracts/token/ERC721/ERC721.sol\":2324:2380  require(owner != address(0), \"ERC721: invalid token ID\") */\n      tag_113\n      jumpi\n      mload(0x40)\n      shl(0xe5, 0x461bcd)\n      dup2\n      mstore\n        /* \"#utility.yul\":8176:8178   */\n      0x20\n        /* \"@openzeppelin/contracts/token/ERC721/ERC721.sol\":2324:2380  require(owner != address(0), \"ERC721: invalid token ID\") */\n      0x04\n      dup3\n      add\n        /* \"#utility.yul\":8158:8179   */\n      mstore\n        /* \"#utility.yul\":8215:8217   */\n      0x18\n        /* \"#utility.yul\":8195:8213   */\n      0x24\n      dup3\n      add\n        /* \"#utility.yul\":8188:8218   */\n      mstore\n      shl(0x42, 0x115490cdcc8c4e881a5b9d985b1a59081d1bdad95b881251)\n        /* \"#utility.yul\":8234:8252   */\n      0x44\n      dup3\n      add\n        /* \"#utility.yul\":8227:8281   */\n      mstore\n        /* \"#utility.yul\":8298:8316   */\n      0x64\n      add\n        /* \"@openzeppelin/contracts/token/ERC721/ERC721.sol\":2324:2380  require(owner != address(0), \"ERC721: invalid token ID\") */\n      tag_128\n        /* \"#utility.yul\":7974:8322   */\n      jump\n        /* \"contracts/NFTMinter.sol\":693:1489  function mintNFT(string memory _name, string memory _metadata, uint256 _price) external {... */\n    tag_73:\n        /* \"contracts/NFTMinter.sol\":792:806  currentTokenId */\n      0x07\n        /* \"contracts/NFTMinter.sol\":792:808  currentTokenId++ */\n      dup1\n      sload\n      swap1\n        /* \"contracts/NFTMinter.sol\":792:806  currentTokenId */\n      0x00\n        /* \"contracts/NFTMinter.sol\":792:808  currentTokenId++ */\n      tag_168\n      dup4\n      tag_169\n      jump\t// in\n    tag_168:\n      swap1\n      swap2\n      sstore\n      pop\n      pop\n        /* \"contracts/NFTMinter.sol\":837:851  currentTokenId */\n      sload(0x07)\n        /* \"contracts/NFTMinter.sol\":864:890  _mint(msg.sender, tokenId) */\n      tag_170\n        /* \"contracts/NFTMinter.sol\":870:880  msg.sender */\n      caller\n        /* \"contracts/NFTMinter.sol\":837:851  currentTokenId */\n      dup3\n        /* \"contracts/NFTMinter.sol\":864:869  _mint */\n      tag_171\n        /* \"contracts/NFTMinter.sol\":864:890  _mint(msg.sender, tokenId) */\n      jump\t// in\n    tag_170:\n        /* \"contracts/NFTMinter.sol\":919:1057  NFT({... */\n      0x40\n      dup1\n      mload\n      0x80\n      dup2\n      add\n      dup3\n      mstore\n      dup6\n      dup2\n      mstore\n      0x20\n      dup1\n      dup3\n      add\n      dup7\n      swap1\n      mstore\n      dup2\n      dup4\n      add\n      dup6\n      swap1\n      mstore\n        /* \"contracts/NFTMinter.sol\":1035:1045  msg.sender */\n      caller\n        /* \"contracts/NFTMinter.sol\":919:1057  NFT({... */\n      0x60\n      dup4\n      add\n      mstore\n      0x00\n        /* \"contracts/NFTMinter.sol\":903:916  nfts[tokenId] */\n      dup5\n      dup2\n      mstore\n        /* \"contracts/NFTMinter.sol\":903:907  nfts */\n      0x08\n        /* \"contracts/NFTMinter.sol\":903:916  nfts[tokenId] */\n      swap1\n      swap2\n      mstore\n      swap2\n      swap1\n      swap2\n      keccak256\n        /* \"contracts/NFTMinter.sol\":903:1057  nfts[tokenId] = NFT({... */\n      dup2\n      mload\n        /* \"contracts/NFTMinter.sol\":903:916  nfts[tokenId] */\n      dup2\n      swap1\n        /* \"contracts/NFTMinter.sol\":903:1057  nfts[tokenId] = NFT({... */\n      tag_172\n      swap1\n        /* \"contracts/NFTMinter.sol\":903:916  nfts[tokenId] */\n      dup3\n        /* \"contracts/NFTMinter.sol\":903:1057  nfts[tokenId] = NFT({... */\n      tag_173\n      jump\t// in\n    tag_172:\n      pop\n      0x20\n      dup3\n      add\n      mload\n      0x01\n      dup3\n      add\n      swap1\n      tag_174\n      swap1\n      dup3\n      tag_173\n      jump\t// in\n    tag_174:\n      pop\n      0x40\n      dup3\n      add\n      mload\n      0x02\n      dup3\n      add\n      sstore\n      0x60\n      swap1\n      swap2\n      add\n      mload\n      0x03\n      swap1\n      swap2\n      add\n      dup1\n      sload\n      not(sub(shl(0xa0, 0x01), 0x01))\n      and\n      sub(shl(0xa0, 0x01), 0x01)\n      swap1\n      swap3\n      and\n      swap2\n      swap1\n      swap2\n      or\n      swap1\n      sstore\n      0x00\n        /* \"contracts/NFTMinter.sol\":1107:1110  100 */\n      0x64\n        /* \"contracts/NFTMinter.sol\":1092:1103  _price * 10 */\n      tag_175\n        /* \"contracts/NFTMinter.sol\":1092:1098  _price */\n      dup5\n        /* \"contracts/NFTMinter.sol\":1101:1103  10 */\n      0x0a\n        /* \"contracts/NFTMinter.sol\":1092:1103  _price * 10 */\n      tag_176\n      jump\t// in\n    tag_175:\n        /* \"contracts/NFTMinter.sol\":1091:1110  (_price * 10) / 100 */\n      tag_177\n      swap2\n      swap1\n      tag_178\n      jump\t// in\n    tag_177:\n        /* \"contracts/NFTMinter.sol\":1070:1110  uint256 royaltyFee = (_price * 10) / 100 */\n      swap1\n      pop\n        /* \"contracts/NFTMinter.sol\":1140:1159  uint256 treasuryFee */\n      0x00\n        /* \"contracts/NFTMinter.sol\":1181:1183  10 */\n      0x0a\n        /* \"contracts/NFTMinter.sol\":1163:1177  royaltyFee * 6 */\n      tag_179\n        /* \"contracts/NFTMinter.sol\":1070:1110  uint256 royaltyFee = (_price * 10) / 100 */\n      dup4\n        /* \"contracts/NFTMinter.sol\":1176:1177  6 */\n      0x06\n        /* \"contracts/NFTMinter.sol\":1163:1177  royaltyFee * 6 */\n      tag_176\n      jump\t// in\n    tag_179:\n        /* \"contracts/NFTMinter.sol\":1162:1183  (royaltyFee * 6) / 10 */\n      tag_180\n      swap2\n      swap1\n      tag_178\n      jump\t// in\n    tag_180:\n        /* \"contracts/NFTMinter.sol\":1140:1183  uint256 treasuryFee = (royaltyFee * 6) / 10 */\n      swap1\n      pop\n        /* \"contracts/NFTMinter.sol\":1235:1255  uint256 liquidityFee */\n      0x00\n        /* \"contracts/NFTMinter.sol\":1277:1279  10 */\n      0x0a\n        /* \"contracts/NFTMinter.sol\":1259:1273  royaltyFee * 4 */\n      tag_181\n        /* \"contracts/NFTMinter.sol\":1259:1269  royaltyFee */\n      dup5\n        /* \"contracts/NFTMinter.sol\":1272:1273  4 */\n      0x04\n        /* \"contracts/NFTMinter.sol\":1259:1273  royaltyFee * 4 */\n      tag_176\n      jump\t// in\n    tag_181:\n        /* \"contracts/NFTMinter.sol\":1258:1279  (royaltyFee * 4) / 10 */\n      tag_182\n      swap2\n      swap1\n      tag_178\n      jump\t// in\n    tag_182:\n        /* \"contracts/NFTMinter.sol\":1386:1400  treasuryWallet */\n      sload(0x0a)\n        /* \"contracts/NFTMinter.sol\":1378:1423  payable(treasuryWallet).transfer(treasuryFee) */\n      mload(0x40)\n        /* \"contracts/NFTMinter.sol\":1235:1279  uint256 liquidityFee = (royaltyFee * 4) / 10 */\n      swap2\n      swap3\n      pop\n      sub(shl(0xa0, 0x01), 0x01)\n        /* \"contracts/NFTMinter.sol\":1386:1400  treasuryWallet */\n      and\n      swap1\n        /* \"contracts/NFTMinter.sol\":1378:1423  payable(treasuryWallet).transfer(treasuryFee) */\n      dup4\n      iszero\n      0x08fc\n      mul\n      swap1\n        /* \"contracts/NFTMinter.sol\":1411:1422  treasuryFee */\n      dup5\n      swap1\n        /* \"contracts/NFTMinter.sol\":1386:1400  treasuryWallet */\n      0x00\n        /* \"contracts/NFTMinter.sol\":1378:1423  payable(treasuryWallet).transfer(treasuryFee) */\n      dup2\n        /* \"contracts/NFTMinter.sol\":1386:1400  treasuryWallet */\n      dup2\n        /* \"contracts/NFTMinter.sol\":1378:1423  payable(treasuryWallet).transfer(treasuryFee) */\n      dup2\n        /* \"contracts/NFTMinter.sol\":1411:1422  treasuryFee */\n      dup6\n        /* \"contracts/NFTMinter.sol\":1386:1400  treasuryWallet */\n      dup9\n        /* \"contracts/NFTMinter.sol\":1378:1423  payable(treasuryWallet).transfer(treasuryFee) */\n      dup9\n      call\n      swap4\n      pop\n      pop\n      pop\n      pop\n      iszero\n      dup1\n      iszero\n      tag_184\n      jumpi\n      returndatasize\n      0x00\n      dup1\n      returndatacopy\n      revert(0x00, returndatasize)\n    tag_184:\n      pop\n        /* \"contracts/NFTMinter.sol\":1442:1457  liquidityWallet */\n      sload(0x09)\n        /* \"contracts/NFTMinter.sol\":1434:1481  payable(liquidityWallet).transfer(liquidityFee) */\n      mload(0x40)\n      sub(shl(0xa0, 0x01), 0x01)\n        /* \"contracts/NFTMinter.sol\":1442:1457  liquidityWallet */\n      swap1\n      swap2\n      and\n      swap1\n        /* \"contracts/NFTMinter.sol\":1434:1481  payable(liquidityWallet).transfer(liquidityFee) */\n      dup3\n      iszero\n      0x08fc\n      mul\n      swap1\n        /* \"contracts/NFTMinter.sol\":1468:1480  liquidityFee */\n      dup4\n      swap1\n        /* \"contracts/NFTMinter.sol\":1442:1457  liquidityWallet */\n      0x00\n        /* \"contracts/NFTMinter.sol\":1434:1481  payable(liquidityWallet).transfer(liquidityFee) */\n      dup2\n        /* \"contracts/NFTMinter.sol\":1442:1457  liquidityWallet */\n      dup2\n        /* \"contracts/NFTMinter.sol\":1434:1481  payable(liquidityWallet).transfer(liquidityFee) */\n      dup2\n        /* \"contracts/NFTMinter.sol\":1468:1480  liquidityFee */\n      dup6\n        /* \"contracts/NFTMinter.sol\":1442:1457  liquidityWallet */\n      dup9\n        /* \"contracts/NFTMinter.sol\":1434:1481  payable(liquidityWallet).transfer(liquidityFee) */\n      dup9\n      call\n      swap4\n      pop\n      pop\n      pop\n      pop\n      iszero\n      dup1\n      iszero\n      tag_186\n      jumpi\n      returndatasize\n      0x00\n      dup1\n      returndatacopy\n      revert(0x00, returndatasize)\n    tag_186:\n      pop\n        /* \"contracts/NFTMinter.sol\":781:1489  {... */\n      pop\n      pop\n      pop\n      pop\n        /* \"contracts/NFTMinter.sol\":693:1489  function mintNFT(string memory _name, string memory _metadata, uint256 _price) external {... */\n      pop\n      pop\n      pop\n      jump\t// out\n        /* \"@openzeppelin/contracts/token/ERC721/ERC721.sol\":1929:2133  function balanceOf(address owner) public view virtual override returns (uint256) {... */\n    tag_77:\n        /* \"@openzeppelin/contracts/token/ERC721/ERC721.sol\":2001:2008  uint256 */\n      0x00\n      sub(shl(0xa0, 0x01), 0x01)\n        /* \"@openzeppelin/contracts/token/ERC721/ERC721.sol\":2028:2047  owner != address(0) */\n      dup3\n      and\n        /* \"@openzeppelin/contracts/token/ERC721/ERC721.sol\":2020:2093  require(owner != address(0), \"ERC721: address zero is not a valid owner\") */\n      tag_188\n      jumpi\n      mload(0x40)\n      shl(0xe5, 0x461bcd)\n      dup2\n      mstore\n        /* \"#utility.yul\":11532:11534   */\n      0x20\n        /* \"@openzeppelin/contracts/token/ERC721/ERC721.sol\":2020:2093  require(owner != address(0), \"ERC721: address zero is not a valid owner\") */\n      0x04\n      dup3\n      add\n        /* \"#utility.yul\":11514:11535   */\n      mstore\n        /* \"#utility.yul\":11571:11573   */\n      0x29\n        /* \"#utility.yul\":11551:11569   */\n      0x24\n      dup3\n      add\n        /* \"#utility.yul\":11544:11574   */\n      mstore\n        /* \"#utility.yul\":11610:11644   */\n      0x4552433732313a2061646472657373207a65726f206973206e6f742061207661\n        /* \"#utility.yul\":11590:11608   */\n      0x44\n      dup3\n      add\n        /* \"#utility.yul\":11583:11645   */\n      mstore\n      shl(0xb9, 0x3634b21037bbb732b9)\n        /* \"#utility.yul\":11661:11679   */\n      0x64\n      dup3\n      add\n        /* \"#utility.yul\":11654:11693   */\n      mstore\n        /* \"#utility.yul\":11710:11729   */\n      0x84\n      add\n        /* \"@openzeppelin/contracts/token/ERC721/ERC721.sol\":2020:2093  require(owner != address(0), \"ERC721: address zero is not a valid owner\") */\n      tag_128\n        /* \"#utility.yul\":11330:11735   */\n      jump\n        /* \"@openzeppelin/contracts/token/ERC721/ERC721.sol\":2020:2093  require(owner != address(0), \"ERC721: address zero is not a valid owner\") */\n    tag_188:\n      pop\n      sub(shl(0xa0, 0x01), 0x01)\n        /* \"@openzeppelin/contracts/token/ERC721/ERC721.sol\":2110:2126  _balances[owner] */\n      and\n      0x00\n      swap1\n      dup2\n      mstore\n        /* \"@openzeppelin/contracts/token/ERC721/ERC721.sol\":2110:2119  _balances */\n      0x03\n        /* \"@openzeppelin/contracts/token/ERC721/ERC721.sol\":2110:2126  _balances[owner] */\n      0x20\n      mstore\n      0x40\n      swap1\n      keccak256\n      sload\n      swap1\n        /* \"@openzeppelin/contracts/token/ERC721/ERC721.sol\":1929:2133  function balanceOf(address owner) public view virtual override returns (uint256) {... */\n      jump\t// out\n        /* \"@openzeppelin/contracts/access/Ownable.sol\":1824:1925  function renounceOwnership() public virtual onlyOwner {... */\n    tag_80:\n        /* \"@openzeppelin/contracts/access/Ownable.sol\":1094:1107  _checkOwner() */\n      tag_192\n        /* \"@openzeppelin/contracts/access/Ownable.sol\":1094:1105  _checkOwner */\n      tag_193\n        /* \"@openzeppelin/contracts/access/Ownable.sol\":1094:1107  _checkOwner() */\n      jump\t// in\n    tag_192:\n        /* \"@openzeppelin/contracts/access/Ownable.sol\":1888:1918  _transferOwnership(address(0)) */\n      tag_195\n        /* \"@openzeppelin/contracts/access/Ownable.sol\":1915:1916  0 */\n      0x00\n        /* \"@openzeppelin/contracts/access/Ownable.sol\":1888:1906  _transferOwnership */\n      tag_196\n        /* \"@openzeppelin/contracts/access/Ownable.sol\":1888:1918  _transferOwnership(address(0)) */\n      jump\t// in\n    tag_195:\n        /* \"@openzeppelin/contracts/access/Ownable.sol\":1824:1925  function renounceOwnership() public virtual onlyOwner {... */\n      jump\t// out\n        /* \"@openzeppelin/contracts/token/ERC721/ERC721.sol\":2633:2735  function symbol() public view virtual override returns (string memory) {... */\n    tag_85:\n        /* \"@openzeppelin/contracts/token/ERC721/ERC721.sol\":2689:2702  string memory */\n      0x60\n        /* \"@openzeppelin/contracts/token/ERC721/ERC721.sol\":2721:2728  _symbol */\n      0x01\n        /* \"@openzeppelin/contracts/token/ERC721/ERC721.sol\":2714:2728  return _symbol */\n      dup1\n      sload\n      tag_116\n      swap1\n      tag_117\n      jump\t// in\n        /* \"@openzeppelin/contracts/token/ERC721/ERC721.sol\":4169:4322  function setApprovalForAll(address operator, bool approved) public virtual override {... */\n    tag_90:\n        /* \"@openzeppelin/contracts/token/ERC721/ERC721.sol\":4263:4315  _setApprovalForAll(_msgSender(), operator, approved) */\n      tag_205\n        /* \"@openzeppelin/contracts/utils/Context.sol\":719:729  msg.sender */\n      caller\n        /* \"@openzeppelin/contracts/token/ERC721/ERC721.sol\":4296:4304  operator */\n      dup4\n        /* \"@openzeppelin/contracts/token/ERC721/ERC721.sol\":4306:4314  approved */\n      dup4\n        /* \"@openzeppelin/contracts/token/ERC721/ERC721.sol\":4263:4281  _setApprovalForAll */\n      tag_207\n        /* \"@openzeppelin/contracts/token/ERC721/ERC721.sol\":4263:4315  _setApprovalForAll(_msgSender(), operator, approved) */\n      jump\t// in\n    tag_205:\n        /* \"@openzeppelin/contracts/token/ERC721/ERC721.sol\":4169:4322  function setApprovalForAll(address operator, bool approved) public virtual override {... */\n      pop\n      pop\n      jump\t// out\n        /* \"@openzeppelin/contracts/token/ERC721/ERC721.sol\":5189:5465  function safeTransferFrom(address from, address to, uint256 tokenId, bytes memory data) public virtual override {... */\n    tag_94:\n        /* \"@openzeppelin/contracts/token/ERC721/ERC721.sol\":5319:5360  _isApprovedOrOwner(_msgSender(), tokenId) */\n      tag_209\n        /* \"@openzeppelin/contracts/utils/Context.sol\":719:729  msg.sender */\n      caller\n        /* \"@openzeppelin/contracts/token/ERC721/ERC721.sol\":5352:5359  tokenId */\n      dup4\n        /* \"@openzeppelin/contracts/token/ERC721/ERC721.sol\":5319:5337  _isApprovedOrOwner */\n      tag_143\n        /* \"@openzeppelin/contracts/token/ERC721/ERC721.sol\":5319:5360  _isApprovedOrOwner(_msgSender(), tokenId) */\n      jump\t// in\n    tag_209:\n        /* \"@openzeppelin/contracts/token/ERC721/ERC721.sol\":5311:5410  require(_isApprovedOrOwner(_msgSender(), tokenId), \"ERC721: caller is not token owner or approved\") */\n      tag_211\n      jumpi\n      mload(0x40)\n      shl(0xe5, 0x461bcd)\n      dup2\n      mstore\n      0x04\n      add\n      tag_128\n      swap1\n      tag_146\n      jump\t// in\n    tag_211:\n        /* \"@openzeppelin/contracts/token/ERC721/ERC721.sol\":5420:5458  _safeTransfer(from, to, tokenId, data) */\n      tag_213\n        /* \"@openzeppelin/contracts/token/ERC721/ERC721.sol\":5434:5438  from */\n      dup5\n        /* \"@openzeppelin/contracts/token/ERC721/ERC721.sol\":5440:5442  to */\n      dup5\n        /* \"@openzeppelin/contracts/token/ERC721/ERC721.sol\":5444:5451  tokenId */\n      dup5\n        /* \"@openzeppelin/contracts/token/ERC721/ERC721.sol\":5453:5457  data */\n      dup5\n        /* \"@openzeppelin/contracts/token/ERC721/ERC721.sol\":5420:5433  _safeTransfer */\n      tag_214\n        /* \"@openzeppelin/contracts/token/ERC721/ERC721.sol\":5420:5458  _safeTransfer(from, to, tokenId, data) */\n      jump\t// in\n    tag_213:\n        /* \"@openzeppelin/contracts/token/ERC721/ERC721.sol\":5189:5465  function safeTransferFrom(address from, address to, uint256 tokenId, bytes memory data) public virtual override {... */\n      pop\n      pop\n      pop\n      pop\n      jump\t// out\n        /* \"@openzeppelin/contracts/token/ERC721/ERC721.sol\":2801:3077  function tokenURI(uint256 tokenId) public view virtual override returns (string memory) {... */\n    tag_97:\n        /* \"@openzeppelin/contracts/token/ERC721/ERC721.sol\":2874:2887  string memory */\n      0x60\n        /* \"@openzeppelin/contracts/token/ERC721/ERC721.sol\":2899:2922  _requireMinted(tokenId) */\n      tag_216\n        /* \"@openzeppelin/contracts/token/ERC721/ERC721.sol\":2914:2921  tokenId */\n      dup3\n        /* \"@openzeppelin/contracts/token/ERC721/ERC721.sol\":2899:2913  _requireMinted */\n      tag_124\n        /* \"@openzeppelin/contracts/token/ERC721/ERC721.sol\":2899:2922  _requireMinted(tokenId) */\n      jump\t// in\n    tag_216:\n        /* \"@openzeppelin/contracts/token/ERC721/ERC721.sol\":2933:2954  string memory baseURI */\n      0x00\n        /* \"@openzeppelin/contracts/token/ERC721/ERC721.sol\":2957:2967  _baseURI() */\n      tag_217\n        /* \"@openzeppelin/contracts/token/ERC721/ERC721.sol\":3395:3404  return \"\" */\n      0x40\n      dup1\n      mload\n      0x20\n      dup2\n      add\n      swap1\n      swap2\n      mstore\n      0x00\n      dup2\n      mstore\n      swap1\n        /* \"@openzeppelin/contracts/token/ERC721/ERC721.sol\":3319:3411  function _baseURI() internal view virtual returns (string memory) {... */\n      jump\n        /* \"@openzeppelin/contracts/token/ERC721/ERC721.sol\":2957:2967  _baseURI() */\n    tag_217:\n        /* \"@openzeppelin/contracts/token/ERC721/ERC721.sol\":2933:2967  string memory baseURI = _baseURI() */\n      swap1\n      pop\n        /* \"@openzeppelin/contracts/token/ERC721/ERC721.sol\":3008:3009  0 */\n      0x00\n        /* \"@openzeppelin/contracts/token/ERC721/ERC721.sol\":2990:2997  baseURI */\n      dup2\n        /* \"@openzeppelin/contracts/token/ERC721/ERC721.sol\":2984:3005  bytes(baseURI).length */\n      mload\n        /* \"@openzeppelin/contracts/token/ERC721/ERC721.sol\":2984:3009  bytes(baseURI).length > 0 */\n      gt\n        /* \"@openzeppelin/contracts/token/ERC721/ERC721.sol\":2984:3070  bytes(baseURI).length > 0 ? string(abi.encodePacked(baseURI, tokenId.toString())) : \"\" */\n      tag_219\n      jumpi\n      mload(0x40)\n      dup1\n      0x20\n      add\n      0x40\n      mstore\n      dup1\n      0x00\n      dup2\n      mstore\n      pop\n      jump(tag_220)\n    tag_219:\n        /* \"@openzeppelin/contracts/token/ERC721/ERC721.sol\":3036:3043  baseURI */\n      dup1\n        /* \"@openzeppelin/contracts/token/ERC721/ERC721.sol\":3045:3063  tokenId.toString() */\n      tag_221\n        /* \"@openzeppelin/contracts/token/ERC721/ERC721.sol\":3045:3052  tokenId */\n      dup5\n        /* \"@openzeppelin/contracts/token/ERC721/ERC721.sol\":3045:3061  tokenId.toString */\n      tag_222\n        /* \"@openzeppelin/contracts/token/ERC721/ERC721.sol\":3045:3063  tokenId.toString() */\n      jump\t// in\n    tag_221:\n        /* \"@openzeppelin/contracts/token/ERC721/ERC721.sol\":3019:3064  abi.encodePacked(baseURI, tokenId.toString()) */\n      add(0x20, mload(0x40))\n      tag_223\n      swap3\n      swap2\n      swap1\n      tag_224\n      jump\t// in\n    tag_223:\n      mload(0x40)\n      0x20\n      dup2\n      dup4\n      sub\n      sub\n      dup2\n      mstore\n      swap1\n      0x40\n      mstore\n        /* \"@openzeppelin/contracts/token/ERC721/ERC721.sol\":2984:3070  bytes(baseURI).length > 0 ? string(abi.encodePacked(baseURI, tokenId.toString())) : \"\" */\n    tag_220:\n        /* \"@openzeppelin/contracts/token/ERC721/ERC721.sol\":2977:3070  return bytes(baseURI).length > 0 ? string(abi.encodePacked(baseURI, tokenId.toString())) : \"\" */\n      swap4\n        /* \"@openzeppelin/contracts/token/ERC721/ERC721.sol\":2801:3077  function tokenURI(uint256 tokenId) public view virtual override returns (string memory) {... */\n      swap3\n      pop\n      pop\n      pop\n      jump\t// out\n        /* \"@openzeppelin/contracts/token/ERC721/ERC721.sol\":4388:4550  function isApprovedForAll(address owner, address operator) public view virtual override returns (bool) {... */\n    tag_105:\n      sub(shl(0xa0, 0x01), 0x01)\n        /* \"@openzeppelin/contracts/token/ERC721/ERC721.sol\":4508:4533  _operatorApprovals[owner] */\n      swap2\n      dup3\n      and\n        /* \"@openzeppelin/contracts/token/ERC721/ERC721.sol\":4485:4489  bool */\n      0x00\n        /* \"@openzeppelin/contracts/token/ERC721/ERC721.sol\":4508:4533  _operatorApprovals[owner] */\n      swap1\n      dup2\n      mstore\n        /* \"@openzeppelin/contracts/token/ERC721/ERC721.sol\":4508:4526  _operatorApprovals */\n      0x05\n        /* \"@openzeppelin/contracts/token/ERC721/ERC721.sol\":4508:4533  _operatorApprovals[owner] */\n      0x20\n      swap1\n      dup2\n      mstore\n      0x40\n      dup1\n      dup4\n      keccak256\n        /* \"@openzeppelin/contracts/token/ERC721/ERC721.sol\":4508:4543  _operatorApprovals[owner][operator] */\n      swap4\n      swap1\n      swap5\n      and\n      dup3\n      mstore\n      swap2\n      swap1\n      swap2\n      mstore\n      keccak256\n      sload\n      0xff\n      and\n      swap1\n        /* \"@openzeppelin/contracts/token/ERC721/ERC721.sol\":4388:4550  function isApprovedForAll(address owner, address operator) public view virtual override returns (bool) {... */\n      jump\t// out\n        /* \"@openzeppelin/contracts/access/Ownable.sol\":2074:2272  function transferOwnership(address newOwner) public virtual onlyOwner {... */\n    tag_109:\n        /* \"@openzeppelin/contracts/access/Ownable.sol\":1094:1107  _checkOwner() */\n      tag_227\n        /* \"@openzeppelin/contracts/access/Ownable.sol\":1094:1105  _checkOwner */\n      tag_193\n        /* \"@openzeppelin/contracts/access/Ownable.sol\":1094:1107  _checkOwner() */\n      jump\t// in\n    tag_227:\n      sub(shl(0xa0, 0x01), 0x01)\n        /* \"@openzeppelin/contracts/access/Ownable.sol\":2162:2184  newOwner != address(0) */\n      dup2\n      and\n        /* \"@openzeppelin/contracts/access/Ownable.sol\":2154:2227  require(newOwner != address(0), \"Ownable: new owner is the zero address\") */\n      tag_229\n      jumpi\n      mload(0x40)\n      shl(0xe5, 0x461bcd)\n      dup2\n      mstore\n        /* \"#utility.yul\":12443:12445   */\n      0x20\n        /* \"@openzeppelin/contracts/access/Ownable.sol\":2154:2227  require(newOwner != address(0), \"Ownable: new owner is the zero address\") */\n      0x04\n      dup3\n      add\n        /* \"#utility.yul\":12425:12446   */\n      mstore\n        /* \"#utility.yul\":12482:12484   */\n      0x26\n        /* \"#utility.yul\":12462:12480   */\n      0x24\n      dup3\n      add\n        /* \"#utility.yul\":12455:12485   */\n      mstore\n        /* \"#utility.yul\":12521:12555   */\n      0x4f776e61626c653a206e6577206f776e657220697320746865207a65726f2061\n        /* \"#utility.yul\":12501:12519   */\n      0x44\n      dup3\n      add\n        /* \"#utility.yul\":12494:12556   */\n      mstore\n      shl(0xd0, 0x646472657373)\n        /* \"#utility.yul\":12572:12590   */\n      0x64\n      dup3\n      add\n        /* \"#utility.yul\":12565:12601   */\n      mstore\n        /* \"#utility.yul\":12618:12637   */\n      0x84\n      add\n        /* \"@openzeppelin/contracts/access/Ownable.sol\":2154:2227  require(newOwner != address(0), \"Ownable: new owner is the zero address\") */\n      tag_128\n        /* \"#utility.yul\":12241:12643   */\n      jump\n        /* \"@openzeppelin/contracts/access/Ownable.sol\":2154:2227  require(newOwner != address(0), \"Ownable: new owner is the zero address\") */\n    tag_229:\n        /* \"@openzeppelin/contracts/access/Ownable.sol\":2237:2265  _transferOwnership(newOwner) */\n      tag_232\n        /* \"@openzeppelin/contracts/access/Ownable.sol\":2256:2264  newOwner */\n      dup2\n        /* \"@openzeppelin/contracts/access/Ownable.sol\":2237:2255  _transferOwnership */\n      tag_196\n        /* \"@openzeppelin/contracts/access/Ownable.sol\":2237:2265  _transferOwnership(newOwner) */\n      jump\t// in\n    tag_232:\n        /* \"@openzeppelin/contracts/access/Ownable.sol\":2074:2272  function transferOwnership(address newOwner) public virtual onlyOwner {... */\n      pop\n      jump\t// out\n        /* \"@openzeppelin/contracts/token/ERC721/ERC721.sol\":13240:13373  function _requireMinted(uint256 tokenId) internal view virtual {... */\n    tag_124:\n        /* \"@openzeppelin/contracts/token/ERC721/ERC721.sol\":7185:7189  bool */\n      0x00\n        /* \"@openzeppelin/contracts/token/ERC721/ERC721.sol\":6794:6810  _owners[tokenId] */\n      dup2\n      dup2\n      mstore\n        /* \"@openzeppelin/contracts/token/ERC721/ERC721.sol\":6794:6801  _owners */\n      0x02\n        /* \"@openzeppelin/contracts/token/ERC721/ERC721.sol\":6794:6810  _owners[tokenId] */\n      0x20\n      mstore\n      0x40\n      swap1\n      keccak256\n      sload\n      sub(shl(0xa0, 0x01), 0x01)\n      and\n        /* \"@openzeppelin/contracts/token/ERC721/ERC721.sol\":13313:13366  require(_exists(tokenId), \"ERC721: invalid token ID\") */\n      tag_232\n      jumpi\n      mload(0x40)\n      shl(0xe5, 0x461bcd)\n      dup2\n      mstore\n        /* \"#utility.yul\":8176:8178   */\n      0x20\n        /* \"@openzeppelin/contracts/token/ERC721/ERC721.sol\":13313:13366  require(_exists(tokenId), \"ERC721: invalid token ID\") */\n      0x04\n      dup3\n      add\n        /* \"#utility.yul\":8158:8179   */\n      mstore\n        /* \"#utility.yul\":8215:8217   */\n      0x18\n        /* \"#utility.yul\":8195:8213   */\n      0x24\n      dup3\n      add\n        /* \"#utility.yul\":8188:8218   */\n      mstore\n      shl(0x42, 0x115490cdcc8c4e881a5b9d985b1a59081d1bdad95b881251)\n        /* \"#utility.yul\":8234:8252   */\n      0x44\n      dup3\n      add\n        /* \"#utility.yul\":8227:8281   */\n      mstore\n        /* \"#utility.yul\":8298:8316   */\n      0x64\n      add\n        /* \"@openzeppelin/contracts/token/ERC721/ERC721.sol\":13313:13366  require(_exists(tokenId), \"ERC721: invalid token ID\") */\n      tag_128\n        /* \"#utility.yul\":7974:8322   */\n      jump\n        /* \"@openzeppelin/contracts/token/ERC721/ERC721.sol\":12572:12743  function _approve(address to, uint256 tokenId) internal virtual {... */\n    tag_139:\n        /* \"@openzeppelin/contracts/token/ERC721/ERC721.sol\":12646:12670  _tokenApprovals[tokenId] */\n      0x00\n      dup2\n      dup2\n      mstore\n        /* \"@openzeppelin/contracts/token/ERC721/ERC721.sol\":12646:12661  _tokenApprovals */\n      0x04\n        /* \"@openzeppelin/contracts/token/ERC721/ERC721.sol\":12646:12670  _tokenApprovals[tokenId] */\n      0x20\n      mstore\n      0x40\n      swap1\n      keccak256\n        /* \"@openzeppelin/contracts/token/ERC721/ERC721.sol\":12646:12675  _tokenApprovals[tokenId] = to */\n      dup1\n      sload\n      not(sub(shl(0xa0, 0x01), 0x01))\n      and\n      sub(shl(0xa0, 0x01), 0x01)\n      dup5\n      and\n      swap1\n      dup2\n      or\n      swap1\n      swap2\n      sstore\n        /* \"@openzeppelin/contracts/token/ERC721/ERC721.sol\":12646:12670  _tokenApprovals[tokenId] */\n      dup2\n      swap1\n        /* \"@openzeppelin/contracts/token/ERC721/ERC721.sol\":12699:12722  ERC721.ownerOf(tokenId) */\n      tag_241\n        /* \"@openzeppelin/contracts/token/ERC721/ERC721.sol\":12646:12670  _tokenApprovals[tokenId] */\n      dup3\n        /* \"@openzeppelin/contracts/token/ERC721/ERC721.sol\":12699:12713  ERC721.ownerOf */\n      tag_68\n        /* \"@openzeppelin/contracts/token/ERC721/ERC721.sol\":12699:12722  ERC721.ownerOf(tokenId) */\n      jump\t// in\n    tag_241:\n      sub(shl(0xa0, 0x01), 0x01)\n        /* \"@openzeppelin/contracts/token/ERC721/ERC721.sol\":12690:12736  Approval(ERC721.ownerOf(tokenId), to, tokenId) */\n      and\n      0x8c5be1e5ebec7d5bd14f71427d1e84f3dd0314c0f7b2291e5b200ac8c7c3b925\n      mload(0x40)\n      mload(0x40)\n      dup1\n      swap2\n      sub\n      swap1\n      log4\n        /* \"@openzeppelin/contracts/token/ERC721/ERC721.sol\":12572:12743  function _approve(address to, uint256 tokenId) internal virtual {... */\n      pop\n      pop\n      jump\t// out\n        /* \"@openzeppelin/contracts/token/ERC721/ERC721.sol\":7404:7665  function _isApprovedOrOwner(address spender, uint256 tokenId) internal view virtual returns (bool) {... */\n    tag_143:\n        /* \"@openzeppelin/contracts/token/ERC721/ERC721.sol\":7497:7501  bool */\n      0x00\n        /* \"@openzeppelin/contracts/token/ERC721/ERC721.sol\":7513:7526  address owner */\n      dup1\n        /* \"@openzeppelin/contracts/token/ERC721/ERC721.sol\":7529:7552  ERC721.ownerOf(tokenId) */\n      tag_243\n        /* \"@openzeppelin/contracts/token/ERC721/ERC721.sol\":7544:7551  tokenId */\n      dup4\n        /* \"@openzeppelin/contracts/token/ERC721/ERC721.sol\":7529:7543  ERC721.ownerOf */\n      tag_68\n        /* \"@openzeppelin/contracts/token/ERC721/ERC721.sol\":7529:7552  ERC721.ownerOf(tokenId) */\n      jump\t// in\n    tag_243:\n        /* \"@openzeppelin/contracts/token/ERC721/ERC721.sol\":7513:7552  address owner = ERC721.ownerOf(tokenId) */\n      swap1\n      pop\n        /* \"@openzeppelin/contracts/token/ERC721/ERC721.sol\":7581:7586  owner */\n      dup1\n      sub(shl(0xa0, 0x01), 0x01)\n        /* \"@openzeppelin/contracts/token/ERC721/ERC721.sol\":7570:7586  spender == owner */\n      and\n        /* \"@openzeppelin/contracts/token/ERC721/ERC721.sol\":7570:7577  spender */\n      dup5\n      sub(shl(0xa0, 0x01), 0x01)\n        /* \"@openzeppelin/contracts/token/ERC721/ERC721.sol\":7570:7586  spender == owner */\n      and\n      eq\n        /* \"@openzeppelin/contracts/token/ERC721/ERC721.sol\":7570:7622  spender == owner || isApprovedForAll(owner, spender) */\n      dup1\n      tag_245\n      jumpi\n      pop\n        /* \"@openzeppelin/contracts/token/ERC721/ERC721.sol\":7590:7622  isApprovedForAll(owner, spender) */\n      tag_245\n        /* \"@openzeppelin/contracts/token/ERC721/ERC721.sol\":7607:7612  owner */\n      dup2\n        /* \"@openzeppelin/contracts/token/ERC721/ERC721.sol\":7614:7621  spender */\n      dup6\n        /* \"@openzeppelin/contracts/token/ERC721/ERC721.sol\":7590:7606  isApprovedForAll */\n      tag_105\n        /* \"@openzeppelin/contracts/token/ERC721/ERC721.sol\":7590:7622  isApprovedForAll(owner, spender) */\n      jump\t// in\n    tag_245:\n        /* \"@openzeppelin/contracts/token/ERC721/ERC721.sol\":7570:7657  spender == owner || isApprovedForAll(owner, spender) || getApproved(tokenId) == spender */\n      dup1\n      tag_246\n      jumpi\n      pop\n        /* \"@openzeppelin/contracts/token/ERC721/ERC721.sol\":7650:7657  spender */\n      dup4\n      sub(shl(0xa0, 0x01), 0x01)\n        /* \"@openzeppelin/contracts/token/ERC721/ERC721.sol\":7626:7657  getApproved(tokenId) == spender */\n      and\n        /* \"@openzeppelin/contracts/token/ERC721/ERC721.sol\":7626:7646  getApproved(tokenId) */\n      tag_247\n        /* \"@openzeppelin/contracts/token/ERC721/ERC721.sol\":7638:7645  tokenId */\n      dup5\n        /* \"@openzeppelin/contracts/token/ERC721/ERC721.sol\":7626:7637  getApproved */\n      tag_44\n        /* \"@openzeppelin/contracts/token/ERC721/ERC721.sol\":7626:7646  getApproved(tokenId) */\n      jump\t// in\n    tag_247:\n      sub(shl(0xa0, 0x01), 0x01)\n        /* \"@openzeppelin/contracts/token/ERC721/ERC721.sol\":7626:7657  getApproved(tokenId) == spender */\n      and\n      eq\n        /* \"@openzeppelin/contracts/token/ERC721/ERC721.sol\":7570:7657  spender == owner || isApprovedForAll(owner, spender) || getApproved(tokenId) == spender */\n    tag_246:\n        /* \"@openzeppelin/contracts/token/ERC721/ERC721.sol\":7562:7658  return (spender == owner || isApprovedForAll(owner, spender) || getApproved(tokenId) == spender) */\n      swap5\n        /* \"@openzeppelin/contracts/token/ERC721/ERC721.sol\":7404:7665  function _isApprovedOrOwner(address spender, uint256 tokenId) internal view virtual returns (bool) {... */\n      swap4\n      pop\n      pop\n      pop\n      pop\n      jump\t// out\n        /* \"@openzeppelin/contracts/token/ERC721/ERC721.sol\":11257:12460  function _transfer(address from, address to, uint256 tokenId) internal virtual {... */\n    tag_148:\n        /* \"@openzeppelin/contracts/token/ERC721/ERC721.sol\":11381:11385  from */\n      dup3\n      sub(shl(0xa0, 0x01), 0x01)\n        /* \"@openzeppelin/contracts/token/ERC721/ERC721.sol\":11354:11385  ERC721.ownerOf(tokenId) == from */\n      and\n        /* \"@openzeppelin/contracts/token/ERC721/ERC721.sol\":11354:11377  ERC721.ownerOf(tokenId) */\n      tag_249\n        /* \"@openzeppelin/contracts/token/ERC721/ERC721.sol\":11369:11376  tokenId */\n      dup3\n        /* \"@openzeppelin/contracts/token/ERC721/ERC721.sol\":11354:11368  ERC721.ownerOf */\n      tag_68\n        /* \"@openzeppelin/contracts/token/ERC721/ERC721.sol\":11354:11377  ERC721.ownerOf(tokenId) */\n      jump\t// in\n    tag_249:\n      sub(shl(0xa0, 0x01), 0x01)\n        /* \"@openzeppelin/contracts/token/ERC721/ERC721.sol\":11354:11385  ERC721.ownerOf(tokenId) == from */\n      and\n      eq\n        /* \"@openzeppelin/contracts/token/ERC721/ERC721.sol\":11346:11427  require(ERC721.ownerOf(tokenId) == from, \"ERC721: transfer from incorrect owner\") */\n      tag_250\n      jumpi\n      mload(0x40)\n      shl(0xe5, 0x461bcd)\n      dup2\n      mstore\n      0x04\n      add\n      tag_128\n      swap1\n      tag_252\n      jump\t// in\n    tag_250:\n      sub(shl(0xa0, 0x01), 0x01)\n        /* \"@openzeppelin/contracts/token/ERC721/ERC721.sol\":11445:11461  to != address(0) */\n      dup3\n      and\n        /* \"@openzeppelin/contracts/token/ERC721/ERC721.sol\":11437:11502  require(to != address(0), \"ERC721: transfer to the zero address\") */\n      tag_253\n      jumpi\n      mload(0x40)\n      shl(0xe5, 0x461bcd)\n      dup2\n      mstore\n        /* \"#utility.yul\":13256:13258   */\n      0x20\n        /* \"@openzeppelin/contracts/token/ERC721/ERC721.sol\":11437:11502  require(to != address(0), \"ERC721: transfer to the zero address\") */\n      0x04\n      dup3\n      add\n        /* \"#utility.yul\":13238:13259   */\n      mstore\n        /* \"#utility.yul\":13295:13297   */\n      0x24\n        /* \"#utility.yul\":13275:13293   */\n      dup1\n      dup3\n      add\n        /* \"#utility.yul\":13268:13298   */\n      mstore\n        /* \"#utility.yul\":13334:13368   */\n      0x4552433732313a207472616e7366657220746f20746865207a65726f20616464\n        /* \"#utility.yul\":13314:13332   */\n      0x44\n      dup3\n      add\n        /* \"#utility.yul\":13307:13369   */\n      mstore\n      shl(0xe0, 0x72657373)\n        /* \"#utility.yul\":13385:13403   */\n      0x64\n      dup3\n      add\n        /* \"#utility.yul\":13378:13412   */\n      mstore\n        /* \"#utility.yul\":13429:13448   */\n      0x84\n      add\n        /* \"@openzeppelin/contracts/token/ERC721/ERC721.sol\":11437:11502  require(to != address(0), \"ERC721: transfer to the zero address\") */\n      tag_128\n        /* \"#utility.yul\":13054:13454   */\n      jump\n        /* \"@openzeppelin/contracts/token/ERC721/ERC721.sol\":11437:11502  require(to != address(0), \"ERC721: transfer to the zero address\") */\n    tag_253:\n        /* \"@openzeppelin/contracts/token/ERC721/ERC721.sol\":11682:11686  from */\n      dup3\n      sub(shl(0xa0, 0x01), 0x01)\n        /* \"@openzeppelin/contracts/token/ERC721/ERC721.sol\":11655:11686  ERC721.ownerOf(tokenId) == from */\n      and\n        /* \"@openzeppelin/contracts/token/ERC721/ERC721.sol\":11655:11678  ERC721.ownerOf(tokenId) */\n      tag_258\n        /* \"@openzeppelin/contracts/token/ERC721/ERC721.sol\":11670:11677  tokenId */\n      dup3\n        /* \"@openzeppelin/contracts/token/ERC721/ERC721.sol\":11655:11669  ERC721.ownerOf */\n      tag_68\n        /* \"@openzeppelin/contracts/token/ERC721/ERC721.sol\":11655:11678  ERC721.ownerOf(tokenId) */\n      jump\t// in\n    tag_258:\n      sub(shl(0xa0, 0x01), 0x01)\n        /* \"@openzeppelin/contracts/token/ERC721/ERC721.sol\":11655:11686  ERC721.ownerOf(tokenId) == from */\n      and\n      eq\n        /* \"@openzeppelin/contracts/token/ERC721/ERC721.sol\":11647:11728  require(ERC721.ownerOf(tokenId) == from, \"ERC721: transfer from incorrect owner\") */\n      tag_259\n      jumpi\n      mload(0x40)\n      shl(0xe5, 0x461bcd)\n      dup2\n      mstore\n      0x04\n      add\n      tag_128\n      swap1\n      tag_252\n      jump\t// in\n    tag_259:\n        /* \"@openzeppelin/contracts/token/ERC721/ERC721.sol\":11797:11821  _tokenApprovals[tokenId] */\n      0x00\n      dup2\n      dup2\n      mstore\n        /* \"@openzeppelin/contracts/token/ERC721/ERC721.sol\":11797:11812  _tokenApprovals */\n      0x04\n        /* \"@openzeppelin/contracts/token/ERC721/ERC721.sol\":11797:11821  _tokenApprovals[tokenId] */\n      0x20\n      swap1\n      dup2\n      mstore\n      0x40\n      dup1\n      dup4\n      keccak256\n        /* \"@openzeppelin/contracts/token/ERC721/ERC721.sol\":11790:11821  delete _tokenApprovals[tokenId] */\n      dup1\n      sload\n      not(sub(shl(0xa0, 0x01), 0x01))\n      swap1\n      dup2\n      and\n      swap1\n      swap2\n      sstore\n      sub(shl(0xa0, 0x01), 0x01)\n        /* \"@openzeppelin/contracts/token/ERC721/ERC721.sol\":12265:12280  _balances[from] */\n      dup8\n      dup2\n      and\n      dup1\n      dup7\n      mstore\n        /* \"@openzeppelin/contracts/token/ERC721/ERC721.sol\":12265:12274  _balances */\n      0x03\n        /* \"@openzeppelin/contracts/token/ERC721/ERC721.sol\":12265:12280  _balances[from] */\n      dup6\n      mstore\n      dup4\n      dup7\n      keccak256\n        /* \"@openzeppelin/contracts/token/ERC721/ERC721.sol\":12265:12285  _balances[from] -= 1 */\n      dup1\n      sload\n      not(0x00)\n      add\n      swap1\n      sstore\n        /* \"@openzeppelin/contracts/token/ERC721/ERC721.sol\":12299:12312  _balances[to] */\n      swap1\n      dup8\n      and\n      dup1\n      dup7\n      mstore\n      dup4\n      dup7\n      keccak256\n        /* \"@openzeppelin/contracts/token/ERC721/ERC721.sol\":12299:12317  _balances[to] += 1 */\n      dup1\n      sload\n        /* \"@openzeppelin/contracts/token/ERC721/ERC721.sol\":11790:11821  delete _tokenApprovals[tokenId] */\n      0x01\n        /* \"@openzeppelin/contracts/token/ERC721/ERC721.sol\":12299:12317  _balances[to] += 1 */\n      add\n      swap1\n      sstore\n        /* \"@openzeppelin/contracts/token/ERC721/ERC721.sol\":12337:12353  _owners[tokenId] */\n      dup7\n      dup7\n      mstore\n        /* \"@openzeppelin/contracts/token/ERC721/ERC721.sol\":12337:12344  _owners */\n      0x02\n        /* \"@openzeppelin/contracts/token/ERC721/ERC721.sol\":12337:12353  _owners[tokenId] */\n      swap1\n      swap5\n      mstore\n      dup3\n      dup6\n      keccak256\n        /* \"@openzeppelin/contracts/token/ERC721/ERC721.sol\":12337:12358  _owners[tokenId] = to */\n      dup1\n      sload\n      swap1\n      swap3\n      and\n      dup5\n      or\n      swap1\n      swap2\n      sstore\n        /* \"@openzeppelin/contracts/token/ERC721/ERC721.sol\":12374:12401  Transfer(from, to, tokenId) */\n      swap1\n      mload\n        /* \"@openzeppelin/contracts/token/ERC721/ERC721.sol\":11813:11820  tokenId */\n      dup5\n      swap4\n        /* \"@openzeppelin/contracts/token/ERC721/ERC721.sol\":12374:12401  Transfer(from, to, tokenId) */\n      0xddf252ad1be2c89b69c2b068fc378daa952ba7f163c4a11628f55a4df523b3ef\n      swap2\n      log4\n        /* \"@openzeppelin/contracts/token/ERC721/ERC721.sol\":3538:3874  {... */\n      pop\n        /* \"@openzeppelin/contracts/token/ERC721/ERC721.sol\":3468:3874  function approve(address to, uint256 tokenId) public virtual override {... */\n      pop\n      pop\n      jump\t// out\n        /* \"@openzeppelin/contracts/token/ERC721/ERC721.sol\":8925:9845  function _mint(address to, uint256 tokenId) internal virtual {... */\n    tag_171:\n      sub(shl(0xa0, 0x01), 0x01)\n        /* \"@openzeppelin/contracts/token/ERC721/ERC721.sol\":9004:9020  to != address(0) */\n      dup3\n      and\n        /* \"@openzeppelin/contracts/token/ERC721/ERC721.sol\":8996:9057  require(to != address(0), \"ERC721: mint to the zero address\") */\n      tag_265\n      jumpi\n      mload(0x40)\n      shl(0xe5, 0x461bcd)\n      dup2\n      mstore\n        /* \"#utility.yul\":13661:13663   */\n      0x20\n        /* \"@openzeppelin/contracts/token/ERC721/ERC721.sol\":8996:9057  require(to != address(0), \"ERC721: mint to the zero address\") */\n      0x04\n      dup3\n      add\n        /* \"#utility.yul\":13643:13664   */\n      dup2\n      swap1\n      mstore\n        /* \"#utility.yul\":13680:13698   */\n      0x24\n      dup3\n      add\n        /* \"#utility.yul\":13673:13703   */\n      mstore\n        /* \"#utility.yul\":13739:13773   */\n      0x4552433732313a206d696e7420746f20746865207a65726f2061646472657373\n        /* \"#utility.yul\":13719:13737   */\n      0x44\n      dup3\n      add\n        /* \"#utility.yul\":13712:13774   */\n      mstore\n        /* \"#utility.yul\":13791:13809   */\n      0x64\n      add\n        /* \"@openzeppelin/contracts/token/ERC721/ERC721.sol\":8996:9057  require(to != address(0), \"ERC721: mint to the zero address\") */\n      tag_128\n        /* \"#utility.yul\":13459:13815   */\n      jump\n        /* \"@openzeppelin/contracts/token/ERC721/ERC721.sol\":8996:9057  require(to != address(0), \"ERC721: mint to the zero address\") */\n    tag_265:\n        /* \"@openzeppelin/contracts/token/ERC721/ERC721.sol\":7185:7189  bool */\n      0x00\n        /* \"@openzeppelin/contracts/token/ERC721/ERC721.sol\":6794:6810  _owners[tokenId] */\n      dup2\n      dup2\n      mstore\n        /* \"@openzeppelin/contracts/token/ERC721/ERC721.sol\":6794:6801  _owners */\n      0x02\n        /* \"@openzeppelin/contracts/token/ERC721/ERC721.sol\":6794:6810  _owners[tokenId] */\n      0x20\n      mstore\n      0x40\n      swap1\n      keccak256\n      sload\n      sub(shl(0xa0, 0x01), 0x01)\n      and\n        /* \"@openzeppelin/contracts/token/ERC721/ERC721.sol\":7208:7239  _ownerOf(tokenId) != address(0) */\n      iszero\n        /* \"@openzeppelin/contracts/token/ERC721/ERC721.sol\":9067:9125  require(!_exists(tokenId), \"ERC721: token already minted\") */\n      tag_269\n      jumpi\n      mload(0x40)\n      shl(0xe5, 0x461bcd)\n      dup2\n      mstore\n        /* \"#utility.yul\":14022:14024   */\n      0x20\n        /* \"@openzeppelin/contracts/token/ERC721/ERC721.sol\":9067:9125  require(!_exists(tokenId), \"ERC721: token already minted\") */\n      0x04\n      dup3\n      add\n        /* \"#utility.yul\":14004:14025   */\n      mstore\n        /* \"#utility.yul\":14061:14063   */\n      0x1c\n        /* \"#utility.yul\":14041:14059   */\n      0x24\n      dup3\n      add\n        /* \"#utility.yul\":14034:14064   */\n      mstore\n        /* \"#utility.yul\":14100:14130   */\n      0x4552433732313a20746f6b656e20616c7265616479206d696e74656400000000\n        /* \"#utility.yul\":14080:14098   */\n      0x44\n      dup3\n      add\n        /* \"#utility.yul\":14073:14131   */\n      mstore\n        /* \"#utility.yul\":14148:14166   */\n      0x64\n      add\n        /* \"@openzeppelin/contracts/token/ERC721/ERC721.sol\":9067:9125  require(!_exists(tokenId), \"ERC721: token already minted\") */\n      tag_128\n        /* \"#utility.yul\":13820:14172   */\n      jump\n        /* \"@openzeppelin/contracts/token/ERC721/ERC721.sol\":9067:9125  require(!_exists(tokenId), \"ERC721: token already minted\") */\n    tag_269:\n        /* \"@openzeppelin/contracts/token/ERC721/ERC721.sol\":7185:7189  bool */\n      0x00\n        /* \"@openzeppelin/contracts/token/ERC721/ERC721.sol\":6794:6810  _owners[tokenId] */\n      dup2\n      dup2\n      mstore\n        /* \"@openzeppelin/contracts/token/ERC721/ERC721.sol\":6794:6801  _owners */\n      0x02\n        /* \"@openzeppelin/contracts/token/ERC721/ERC721.sol\":6794:6810  _owners[tokenId] */\n      0x20\n      mstore\n      0x40\n      swap1\n      keccak256\n      sload\n      sub(shl(0xa0, 0x01), 0x01)\n      and\n        /* \"@openzeppelin/contracts/token/ERC721/ERC721.sol\":7208:7239  _ownerOf(tokenId) != address(0) */\n      iszero\n        /* \"@openzeppelin/contracts/token/ERC721/ERC721.sol\":9271:9329  require(!_exists(tokenId), \"ERC721: token already minted\") */\n      tag_274\n      jumpi\n      mload(0x40)\n      shl(0xe5, 0x461bcd)\n      dup2\n      mstore\n        /* \"#utility.yul\":14022:14024   */\n      0x20\n        /* \"@openzeppelin/contracts/token/ERC721/ERC721.sol\":9271:9329  require(!_exists(tokenId), \"ERC721: token already minted\") */\n      0x04\n      dup3\n      add\n        /* \"#utility.yul\":14004:14025   */\n      mstore\n        /* \"#utility.yul\":14061:14063   */\n      0x1c\n        /* \"#utility.yul\":14041:14059   */\n      0x24\n      dup3\n      add\n        /* \"#utility.yul\":14034:14064   */\n      mstore\n        /* \"#utility.yul\":14100:14130   */\n      0x4552433732313a20746f6b656e20616c7265616479206d696e74656400000000\n        /* \"#utility.yul\":14080:14098   */\n      0x44\n      dup3\n      add\n        /* \"#utility.yul\":14073:14131   */\n      mstore\n        /* \"#utility.yul\":14148:14166   */\n      0x64\n      add\n        /* \"@openzeppelin/contracts/token/ERC721/ERC721.sol\":9271:9329  require(!_exists(tokenId), \"ERC721: token already minted\") */\n      tag_128\n        /* \"#utility.yul\":13820:14172   */\n      jump\n        /* \"@openzeppelin/contracts/token/ERC721/ERC721.sol\":9271:9329  require(!_exists(tokenId), \"ERC721: token already minted\") */\n    tag_274:\n      sub(shl(0xa0, 0x01), 0x01)\n        /* \"@openzeppelin/contracts/token/ERC721/ERC721.sol\":9671:9684  _balances[to] */\n      dup3\n      and\n      0x00\n      dup2\n      dup2\n      mstore\n        /* \"@openzeppelin/contracts/token/ERC721/ERC721.sol\":9671:9680  _balances */\n      0x03\n        /* \"@openzeppelin/contracts/token/ERC721/ERC721.sol\":9671:9684  _balances[to] */\n      0x20\n      swap1\n      dup2\n      mstore\n      0x40\n      dup1\n      dup4\n      keccak256\n        /* \"@openzeppelin/contracts/token/ERC721/ERC721.sol\":9671:9689  _balances[to] += 1 */\n      dup1\n      sload\n        /* \"@openzeppelin/contracts/token/ERC721/ERC721.sol\":9688:9689  1 */\n      0x01\n        /* \"@openzeppelin/contracts/token/ERC721/ERC721.sol\":9671:9689  _balances[to] += 1 */\n      add\n      swap1\n      sstore\n        /* \"@openzeppelin/contracts/token/ERC721/ERC721.sol\":9710:9726  _owners[tokenId] */\n      dup5\n      dup4\n      mstore\n        /* \"@openzeppelin/contracts/token/ERC721/ERC721.sol\":9710:9717  _owners */\n      0x02\n        /* \"@openzeppelin/contracts/token/ERC721/ERC721.sol\":9710:9726  _owners[tokenId] */\n      swap1\n      swap2\n      mstore\n      dup1\n      dup3\n      keccak256\n        /* \"@openzeppelin/contracts/token/ERC721/ERC721.sol\":9710:9731  _owners[tokenId] = to */\n      dup1\n      sload\n      not(sub(shl(0xa0, 0x01), 0x01))\n      and\n      dup5\n      or\n      swap1\n      sstore\n        /* \"@openzeppelin/contracts/token/ERC721/ERC721.sol\":9747:9780  Transfer(address(0), to, tokenId) */\n      mload\n        /* \"@openzeppelin/contracts/token/ERC721/ERC721.sol\":9718:9725  tokenId */\n      dup4\n      swap3\n        /* \"@openzeppelin/contracts/token/ERC721/ERC721.sol\":9671:9684  _balances[to] */\n      swap2\n      swap1\n        /* \"@openzeppelin/contracts/token/ERC721/ERC721.sol\":9747:9780  Transfer(address(0), to, tokenId) */\n      0xddf252ad1be2c89b69c2b068fc378daa952ba7f163c4a11628f55a4df523b3ef\n      swap1\n        /* \"@openzeppelin/contracts/token/ERC721/ERC721.sol\":9671:9684  _balances[to] */\n      dup3\n      swap1\n        /* \"@openzeppelin/contracts/token/ERC721/ERC721.sol\":9747:9780  Transfer(address(0), to, tokenId) */\n      log4\n        /* \"@openzeppelin/contracts/token/ERC721/ERC721.sol\":4169:4322  function setApprovalForAll(address operator, bool approved) public virtual override {... */\n      pop\n      pop\n      jump\t// out\n        /* \"@openzeppelin/contracts/access/Ownable.sol\":1359:1489  function _checkOwner() internal view virtual {... */\n    tag_193:\n        /* \"@openzeppelin/contracts/access/Ownable.sol\":1273:1279  _owner */\n      and(sub(shl(0xa0, 0x01), 0x01), sload(0x06))\n        /* \"@openzeppelin/contracts/utils/Context.sol\":719:729  msg.sender */\n      caller\n        /* \"@openzeppelin/contracts/access/Ownable.sol\":1422:1445  owner() == _msgSender() */\n      eq\n        /* \"@openzeppelin/contracts/access/Ownable.sol\":1414:1482  require(owner() == _msgSender(), \"Ownable: caller is not the owner\") */\n      tag_195\n      jumpi\n      mload(0x40)\n      shl(0xe5, 0x461bcd)\n      dup2\n      mstore\n        /* \"#utility.yul\":14379:14381   */\n      0x20\n        /* \"@openzeppelin/contracts/access/Ownable.sol\":1414:1482  require(owner() == _msgSender(), \"Ownable: caller is not the owner\") */\n      0x04\n      dup3\n      add\n        /* \"#utility.yul\":14361:14382   */\n      dup2\n      swap1\n      mstore\n        /* \"#utility.yul\":14398:14416   */\n      0x24\n      dup3\n      add\n        /* \"#utility.yul\":14391:14421   */\n      mstore\n        /* \"#utility.yul\":14457:14491   */\n      0x4f776e61626c653a2063616c6c6572206973206e6f7420746865206f776e6572\n        /* \"#utility.yul\":14437:14455   */\n      0x44\n      dup3\n      add\n        /* \"#utility.yul\":14430:14492   */\n      mstore\n        /* \"#utility.yul\":14509:14527   */\n      0x64\n      add\n        /* \"@openzeppelin/contracts/access/Ownable.sol\":1414:1482  require(owner() == _msgSender(), \"Ownable: caller is not the owner\") */\n      tag_128\n        /* \"#utility.yul\":14177:14533   */\n      jump\n        /* \"@openzeppelin/contracts/access/Ownable.sol\":2426:2613  function _transferOwnership(address newOwner) internal virtual {... */\n    tag_196:\n        /* \"@openzeppelin/contracts/access/Ownable.sol\":2518:2524  _owner */\n      0x06\n      dup1\n      sload\n      sub(shl(0xa0, 0x01), 0x01)\n        /* \"@openzeppelin/contracts/access/Ownable.sol\":2534:2551  _owner = newOwner */\n      dup4\n      dup2\n      and\n      not(sub(shl(0xa0, 0x01), 0x01))\n      dup4\n      and\n      dup2\n      or\n      swap1\n      swap4\n      sstore\n        /* \"@openzeppelin/contracts/access/Ownable.sol\":2566:2606  OwnershipTransferred(oldOwner, newOwner) */\n      mload(0x40)\n        /* \"@openzeppelin/contracts/access/Ownable.sol\":2518:2524  _owner */\n      swap2\n      and\n      swap2\n        /* \"@openzeppelin/contracts/access/Ownable.sol\":2534:2551  _owner = newOwner */\n      swap1\n        /* \"@openzeppelin/contracts/access/Ownable.sol\":2518:2524  _owner */\n      dup3\n      swap1\n        /* \"@openzeppelin/contracts/access/Ownable.sol\":2566:2606  OwnershipTransferred(oldOwner, newOwner) */\n      0x8be0079c531659141344cd1fd0a4f28419497f9722a3daafe3b4186f6b6457e0\n      swap1\n        /* \"@openzeppelin/contracts/access/Ownable.sol\":2499:2515  address oldOwner */\n      0x00\n      swap1\n        /* \"@openzeppelin/contracts/access/Ownable.sol\":2566:2606  OwnershipTransferred(oldOwner, newOwner) */\n      log3\n        /* \"@openzeppelin/contracts/access/Ownable.sol\":2489:2613  {... */\n      pop\n        /* \"@openzeppelin/contracts/access/Ownable.sol\":2426:2613  function _transferOwnership(address newOwner) internal virtual {... */\n      pop\n      jump\t// out\n        /* \"@openzeppelin/contracts/token/ERC721/ERC721.sol\":12879:13156  function _setApprovalForAll(address owner, address operator, bool approved) internal virtual {... */\n    tag_207:\n        /* \"@openzeppelin/contracts/token/ERC721/ERC721.sol\":12999:13007  operator */\n      dup2\n      sub(shl(0xa0, 0x01), 0x01)\n        /* \"@openzeppelin/contracts/token/ERC721/ERC721.sol\":12990:13007  owner != operator */\n      and\n        /* \"@openzeppelin/contracts/token/ERC721/ERC721.sol\":12990:12995  owner */\n      dup4\n      sub(shl(0xa0, 0x01), 0x01)\n        /* \"@openzeppelin/contracts/token/ERC721/ERC721.sol\":12990:13007  owner != operator */\n      and\n      sub\n        /* \"@openzeppelin/contracts/token/ERC721/ERC721.sol\":12982:13037  require(owner != operator, \"ERC721: approve to caller\") */\n      tag_285\n      jumpi\n      mload(0x40)\n      shl(0xe5, 0x461bcd)\n      dup2\n      mstore\n        /* \"#utility.yul\":14740:14742   */\n      0x20\n        /* \"@openzeppelin/contracts/token/ERC721/ERC721.sol\":12982:13037  require(owner != operator, \"ERC721: approve to caller\") */\n      0x04\n      dup3\n      add\n        /* \"#utility.yul\":14722:14743   */\n      mstore\n        /* \"#utility.yul\":14779:14781   */\n      0x19\n        /* \"#utility.yul\":14759:14777   */\n      0x24\n      dup3\n      add\n        /* \"#utility.yul\":14752:14782   */\n      mstore\n        /* \"#utility.yul\":14818:14845   */\n      0x4552433732313a20617070726f766520746f2063616c6c657200000000000000\n        /* \"#utility.yul\":14798:14816   */\n      0x44\n      dup3\n      add\n        /* \"#utility.yul\":14791:14846   */\n      mstore\n        /* \"#utility.yul\":14863:14881   */\n      0x64\n      add\n        /* \"@openzeppelin/contracts/token/ERC721/ERC721.sol\":12982:13037  require(owner != operator, \"ERC721: approve to caller\") */\n      tag_128\n        /* \"#utility.yul\":14538:14887   */\n      jump\n        /* \"@openzeppelin/contracts/token/ERC721/ERC721.sol\":12982:13037  require(owner != operator, \"ERC721: approve to caller\") */\n    tag_285:\n      sub(shl(0xa0, 0x01), 0x01)\n        /* \"@openzeppelin/contracts/token/ERC721/ERC721.sol\":13047:13072  _operatorApprovals[owner] */\n      dup4\n      dup2\n      and\n      0x00\n      dup2\n      dup2\n      mstore\n        /* \"@openzeppelin/contracts/token/ERC721/ERC721.sol\":13047:13065  _operatorApprovals */\n      0x05\n        /* \"@openzeppelin/contracts/token/ERC721/ERC721.sol\":13047:13072  _operatorApprovals[owner] */\n      0x20\n      swap1\n      dup2\n      mstore\n      0x40\n      dup1\n      dup4\n      keccak256\n        /* \"@openzeppelin/contracts/token/ERC721/ERC721.sol\":13047:13082  _operatorApprovals[owner][operator] */\n      swap5\n      dup8\n      and\n      dup1\n      dup5\n      mstore\n      swap5\n      dup3\n      mstore\n      swap2\n      dup3\n      swap1\n      keccak256\n        /* \"@openzeppelin/contracts/token/ERC721/ERC721.sol\":13047:13093  _operatorApprovals[owner][operator] = approved */\n      dup1\n      sload\n      not(0xff)\n      and\n      dup7\n      iszero\n      iszero\n      swap1\n      dup2\n      or\n      swap1\n      swap2\n      sstore\n        /* \"@openzeppelin/contracts/token/ERC721/ERC721.sol\":13108:13149  ApprovalForAll(owner, operator, approved) */\n      swap2\n      mload\n        /* \"#utility.yul\":722:763   */\n      swap2\n      dup3\n      mstore\n        /* \"@openzeppelin/contracts/token/ERC721/ERC721.sol\":13108:13149  ApprovalForAll(owner, operator, approved) */\n      0x17307eab39ab6107e8899845ad3d59bd9653f200f220920489ca2b5937696c31\n      swap2\n        /* \"#utility.yul\":695:713   */\n      add\n        /* \"@openzeppelin/contracts/token/ERC721/ERC721.sol\":13108:13149  ApprovalForAll(owner, operator, approved) */\n      mload(0x40)\n      dup1\n      swap2\n      sub\n      swap1\n      log3\n        /* \"@openzeppelin/contracts/token/ERC721/ERC721.sol\":12879:13156  function _setApprovalForAll(address owner, address operator, bool approved) internal virtual {... */\n      pop\n      pop\n      pop\n      jump\t// out\n        /* \"@openzeppelin/contracts/token/ERC721/ERC721.sol\":6326:6593  function _safeTransfer(address from, address to, uint256 tokenId, bytes memory data) internal virtual {... */\n    tag_214:\n        /* \"@openzeppelin/contracts/token/ERC721/ERC721.sol\":6438:6466  _transfer(from, to, tokenId) */\n      tag_290\n        /* \"@openzeppelin/contracts/token/ERC721/ERC721.sol\":6448:6452  from */\n      dup5\n        /* \"@openzeppelin/contracts/token/ERC721/ERC721.sol\":6454:6456  to */\n      dup5\n        /* \"@openzeppelin/contracts/token/ERC721/ERC721.sol\":6458:6465  tokenId */\n      dup5\n        /* \"@openzeppelin/contracts/token/ERC721/ERC721.sol\":6438:6447  _transfer */\n      tag_148\n        /* \"@openzeppelin/contracts/token/ERC721/ERC721.sol\":6438:6466  _transfer(from, to, tokenId) */\n      jump\t// in\n    tag_290:\n        /* \"@openzeppelin/contracts/token/ERC721/ERC721.sol\":6484:6531  _checkOnERC721Received(from, to, tokenId, data) */\n      tag_291\n        /* \"@openzeppelin/contracts/token/ERC721/ERC721.sol\":6507:6511  from */\n      dup5\n        /* \"@openzeppelin/contracts/token/ERC721/ERC721.sol\":6513:6515  to */\n      dup5\n        /* \"@openzeppelin/contracts/token/ERC721/ERC721.sol\":6517:6524  tokenId */\n      dup5\n        /* \"@openzeppelin/contracts/token/ERC721/ERC721.sol\":6526:6530  data */\n      dup5\n        /* \"@openzeppelin/contracts/token/ERC721/ERC721.sol\":6484:6506  _checkOnERC721Received */\n      tag_292\n        /* \"@openzeppelin/contracts/token/ERC721/ERC721.sol\":6484:6531  _checkOnERC721Received(from, to, tokenId, data) */\n      jump\t// in\n    tag_291:\n        /* \"@openzeppelin/contracts/token/ERC721/ERC721.sol\":6476:6586  require(_checkOnERC721Received(from, to, tokenId, data), \"ERC721: transfer to non ERC721Receiver implementer\") */\n      tag_213\n      jumpi\n      mload(0x40)\n      shl(0xe5, 0x461bcd)\n      dup2\n      mstore\n      0x04\n      add\n      tag_128\n      swap1\n      tag_295\n      jump\t// in\n        /* \"@openzeppelin/contracts/utils/Strings.sol\":447:1143  function toString(uint256 value) internal pure returns (string memory) {... */\n    tag_222:\n        /* \"@openzeppelin/contracts/utils/Strings.sol\":503:516  string memory */\n      0x60\n        /* \"@openzeppelin/contracts/utils/Strings.sol\":552:566  uint256 length */\n      0x00\n        /* \"@openzeppelin/contracts/utils/Strings.sol\":569:586  Math.log10(value) */\n      tag_298\n        /* \"@openzeppelin/contracts/utils/Strings.sol\":580:585  value */\n      dup4\n        /* \"@openzeppelin/contracts/utils/Strings.sol\":569:579  Math.log10 */\n      tag_299\n        /* \"@openzeppelin/contracts/utils/Strings.sol\":569:586  Math.log10(value) */\n      jump\t// in\n    tag_298:\n        /* \"@openzeppelin/contracts/utils/Strings.sol\":589:590  1 */\n      0x01\n        /* \"@openzeppelin/contracts/utils/Strings.sol\":569:590  Math.log10(value) + 1 */\n      add\n        /* \"@openzeppelin/contracts/utils/Strings.sol\":552:590  uint256 length = Math.log10(value) + 1 */\n      swap1\n      pop\n        /* \"@openzeppelin/contracts/utils/Strings.sol\":604:624  string memory buffer */\n      0x00\n        /* \"@openzeppelin/contracts/utils/Strings.sol\":638:644  length */\n      dup2\n        /* \"@openzeppelin/contracts/utils/Strings.sol\":627:645  new string(length) */\n      0xffffffffffffffff\n      dup2\n      gt\n      iszero\n      tag_301\n      jumpi\n      tag_301\n      tag_302\n      jump\t// in\n    tag_301:\n      mload(0x40)\n      swap1\n      dup1\n      dup3\n      mstore\n      dup1\n      0x1f\n      add\n      not(0x1f)\n      and\n      0x20\n      add\n      dup3\n      add\n      0x40\n      mstore\n      dup1\n      iszero\n      tag_303\n      jumpi\n      0x20\n      dup3\n      add\n      dup2\n      dup1\n      calldatasize\n      dup4\n      calldatacopy\n      add\n      swap1\n      pop\n    tag_303:\n      pop\n        /* \"@openzeppelin/contracts/utils/Strings.sol\":604:645  string memory buffer = new string(length) */\n      swap1\n      pop\n        /* \"@openzeppelin/contracts/utils/Strings.sol\":765:793  add(buffer, add(32, length)) */\n      dup2\n      dup2\n      add\n        /* \"@openzeppelin/contracts/utils/Strings.sol\":781:783  32 */\n      0x20\n        /* \"@openzeppelin/contracts/utils/Strings.sol\":765:793  add(buffer, add(32, length)) */\n      add\n        /* \"@openzeppelin/contracts/utils/Strings.sol\":820:1100  while (true) {... */\n    tag_304:\n      not(0x00)\n        /* \"@openzeppelin/contracts/utils/Strings.sol\":851:856  ptr-- */\n      add\n      shl(0x81, 0x181899199a1a9b1b9c1cb0b131b232b3)\n        /* \"@openzeppelin/contracts/utils/Strings.sol\":985:987  10 */\n      0x0a\n        /* \"@openzeppelin/contracts/utils/Strings.sol\":974:988  mod(value, 10) */\n      dup7\n      mod\n        /* \"@openzeppelin/contracts/utils/Strings.sol\":969:999  byte(mod(value, 10), _SYMBOLS) */\n      byte\n        /* \"@openzeppelin/contracts/utils/Strings.sol\":851:856  ptr-- */\n      dup2\n        /* \"@openzeppelin/contracts/utils/Strings.sol\":956:1000  mstore8(ptr, byte(mod(value, 10), _SYMBOLS)) */\n      mstore8\n        /* \"@openzeppelin/contracts/utils/Strings.sol\":1044:1046  10 */\n      0x0a\n        /* \"@openzeppelin/contracts/utils/Strings.sol\":1035:1046  value /= 10 */\n      dup6\n      div\n      swap5\n      pop\n        /* \"@openzeppelin/contracts/utils/Strings.sol\":1064:1085  if (value == 0) break */\n      dup5\n        /* \"@openzeppelin/contracts/utils/Strings.sol\":820:1100  while (true) {... */\n      tag_304\n        /* \"@openzeppelin/contracts/utils/Strings.sol\":1064:1085  if (value == 0) break */\n      jumpi\n      pop\n        /* \"@openzeppelin/contracts/utils/Strings.sol\":1120:1126  buffer */\n      swap4\n        /* \"@openzeppelin/contracts/utils/Strings.sol\":447:1143  function toString(uint256 value) internal pure returns (string memory) {... */\n      swap3\n      pop\n      pop\n      pop\n      jump\t// out\n        /* \"@openzeppelin/contracts/token/ERC721/ERC721.sol\":13925:14756  function _checkOnERC721Received(... */\n    tag_292:\n        /* \"@openzeppelin/contracts/token/ERC721/ERC721.sol\":14074:14078  bool */\n      0x00\n      sub(shl(0xa0, 0x01), 0x01)\n        /* \"@openzeppelin/contracts/token/ERC721/ERC721.sol\":14094:14107  to.isContract */\n      dup5\n      and\n        /* \"@openzeppelin/contracts/utils/Address.sol\":1702:1721  account.code.length */\n      extcodesize\n        /* \"@openzeppelin/contracts/utils/Address.sol\":1702:1725  account.code.length > 0 */\n      iszero\n        /* \"@openzeppelin/contracts/token/ERC721/ERC721.sol\":14090:14750  if (to.isContract()) {... */\n      tag_317\n      jumpi\n        /* \"@openzeppelin/contracts/token/ERC721/ERC721.sol\":14129:14200  IERC721Receiver(to).onERC721Received(_msgSender(), from, tokenId, data) */\n      mload(0x40)\n      shl(0xe1, 0x0a85bd01)\n      dup2\n      mstore\n      sub(shl(0xa0, 0x01), 0x01)\n        /* \"@openzeppelin/contracts/token/ERC721/ERC721.sol\":14129:14165  IERC721Receiver(to).onERC721Received */\n      dup6\n      and\n      swap1\n      0x150b7a02\n      swap1\n        /* \"@openzeppelin/contracts/token/ERC721/ERC721.sol\":14129:14200  IERC721Receiver(to).onERC721Received(_msgSender(), from, tokenId, data) */\n      tag_319\n      swap1\n        /* \"@openzeppelin/contracts/utils/Context.sol\":719:729  msg.sender */\n      caller\n      swap1\n        /* \"@openzeppelin/contracts/token/ERC721/ERC721.sol\":14180:14184  from */\n      dup10\n      swap1\n        /* \"@openzeppelin/contracts/token/ERC721/ERC721.sol\":14186:14193  tokenId */\n      dup9\n      swap1\n        /* \"@openzeppelin/contracts/token/ERC721/ERC721.sol\":14195:14199  data */\n      dup9\n      swap1\n        /* \"@openzeppelin/contracts/token/ERC721/ERC721.sol\":14129:14200  IERC721Receiver(to).onERC721Received(_msgSender(), from, tokenId, data) */\n      0x04\n      add\n      tag_320\n      jump\t// in\n    tag_319:\n      0x20\n      mload(0x40)\n      dup1\n      dup4\n      sub\n      dup2\n      0x00\n      dup8\n      gas\n      call\n      swap3\n      pop\n      pop\n      pop\n      dup1\n      iszero\n      tag_321\n      jumpi\n      pop\n      0x40\n      dup1\n      mload\n      0x1f\n      returndatasize\n      swap1\n      dup2\n      add\n      not(0x1f)\n      and\n      dup3\n      add\n      swap1\n      swap3\n      mstore\n      tag_322\n      swap2\n      dup2\n      add\n      swap1\n      tag_323\n      jump\t// in\n    tag_322:\n      0x01\n    tag_321:\n        /* \"@openzeppelin/contracts/token/ERC721/ERC721.sol\":14125:14698  try IERC721Receiver(to).onERC721Received(_msgSender(), from, tokenId, data) returns (bytes4 retval) {... */\n      tag_324\n      jumpi\n      returndatasize\n      dup1\n      dup1\n      iszero\n      tag_329\n      jumpi\n      mload(0x40)\n      swap2\n      pop\n      and(add(returndatasize, 0x3f), not(0x1f))\n      dup3\n      add\n      0x40\n      mstore\n      returndatasize\n      dup3\n      mstore\n      returndatasize\n      0x00\n      0x20\n      dup5\n      add\n      returndatacopy\n      jump(tag_328)\n    tag_329:\n      0x60\n      swap2\n      pop\n    tag_328:\n      pop\n        /* \"@openzeppelin/contracts/token/ERC721/ERC721.sol\":14367:14373  reason */\n      dup1\n        /* \"@openzeppelin/contracts/token/ERC721/ERC721.sol\":14367:14380  reason.length */\n      mload\n        /* \"@openzeppelin/contracts/token/ERC721/ERC721.sol\":14384:14385  0 */\n      0x00\n        /* \"@openzeppelin/contracts/token/ERC721/ERC721.sol\":14367:14385  reason.length == 0 */\n      sub\n        /* \"@openzeppelin/contracts/token/ERC721/ERC721.sol\":14363:14684  if (reason.length == 0) {... */\n      tag_330\n      jumpi\n        /* \"@openzeppelin/contracts/token/ERC721/ERC721.sol\":14409:14469  revert(\"ERC721: transfer to non ERC721Receiver implementer\") */\n      mload(0x40)\n      shl(0xe5, 0x461bcd)\n      dup2\n      mstore\n      0x04\n      add\n      tag_128\n      swap1\n      tag_295\n      jump\t// in\n        /* \"@openzeppelin/contracts/token/ERC721/ERC721.sol\":14363:14684  if (reason.length == 0) {... */\n    tag_330:\n        /* \"@openzeppelin/contracts/token/ERC721/ERC721.sol\":14636:14642  reason */\n      dup1\n        /* \"@openzeppelin/contracts/token/ERC721/ERC721.sol\":14630:14643  mload(reason) */\n      mload\n        /* \"@openzeppelin/contracts/token/ERC721/ERC721.sol\":14621:14627  reason */\n      dup2\n        /* \"@openzeppelin/contracts/token/ERC721/ERC721.sol\":14617:14619  32 */\n      0x20\n        /* \"@openzeppelin/contracts/token/ERC721/ERC721.sol\":14613:14628  add(32, reason) */\n      add\n        /* \"@openzeppelin/contracts/token/ERC721/ERC721.sol\":14606:14644  revert(add(32, reason), mload(reason)) */\n      revert\n        /* \"@openzeppelin/contracts/token/ERC721/ERC721.sol\":14125:14698  try IERC721Receiver(to).onERC721Received(_msgSender(), from, tokenId, data) returns (bytes4 retval) {... */\n    tag_324:\n      not(sub(shl(0xe0, 0x01), 0x01))\n        /* \"@openzeppelin/contracts/token/ERC721/ERC721.sol\":14250:14301  retval == IERC721Receiver.onERC721Received.selector */\n      and\n      shl(0xe1, 0x0a85bd01)\n      eq\n      swap1\n      pop\n        /* \"@openzeppelin/contracts/token/ERC721/ERC721.sol\":14243:14301  return retval == IERC721Receiver.onERC721Received.selector */\n      jump(tag_246)\n        /* \"@openzeppelin/contracts/token/ERC721/ERC721.sol\":14090:14750  if (to.isContract()) {... */\n    tag_317:\n      pop\n        /* \"@openzeppelin/contracts/token/ERC721/ERC721.sol\":14735:14739  true */\n      0x01\n        /* \"@openzeppelin/contracts/token/ERC721/ERC721.sol\":13925:14756  function _checkOnERC721Received(... */\n      swap5\n      swap4\n      pop\n      pop\n      pop\n      pop\n      jump\t// out\n        /* \"@openzeppelin/contracts/utils/math/Math.sol\":10139:11055  function log10(uint256 value) internal pure returns (uint256) {... */\n    tag_299:\n        /* \"@openzeppelin/contracts/utils/math/Math.sol\":10192:10199  uint256 */\n      0x00\n      dup1\n      shl(0x40, 0x184f03e93ff9f4daa797ed6e38ed64bf6a1f01)\n        /* \"@openzeppelin/contracts/utils/math/Math.sol\":10267:10284  value >= 10 ** 64 */\n      dup4\n      lt\n        /* \"@openzeppelin/contracts/utils/math/Math.sol\":10263:10366  if (value >= 10 ** 64) {... */\n      tag_336\n      jumpi\n      shl(0x40, 0x184f03e93ff9f4daa797ed6e38ed64bf6a1f01)\n        /* \"@openzeppelin/contracts/utils/math/Math.sol\":10304:10321  value /= 10 ** 64 */\n      dup4\n      div\n      swap3\n      pop\n        /* \"@openzeppelin/contracts/utils/math/Math.sol\":10349:10351  64 */\n      0x40\n        /* \"@openzeppelin/contracts/utils/math/Math.sol\":10339:10351  result += 64 */\n      add\n        /* \"@openzeppelin/contracts/utils/math/Math.sol\":10263:10366  if (value >= 10 ** 64) {... */\n    tag_336:\n        /* \"@openzeppelin/contracts/utils/math/Math.sol\":10392:10400  10 ** 32 */\n      0x04ee2d6d415b85acef8100000000\n        /* \"@openzeppelin/contracts/utils/math/Math.sol\":10383:10388  value */\n      dup4\n        /* \"@openzeppelin/contracts/utils/math/Math.sol\":10383:10400  value >= 10 ** 32 */\n      lt\n        /* \"@openzeppelin/contracts/utils/math/Math.sol\":10379:10482  if (value >= 10 ** 32) {... */\n      tag_339\n      jumpi\n        /* \"@openzeppelin/contracts/utils/math/Math.sol\":10429:10437  10 ** 32 */\n      0x04ee2d6d415b85acef8100000000\n        /* \"@openzeppelin/contracts/utils/math/Math.sol\":10420:10437  value /= 10 ** 32 */\n      dup4\n      div\n      swap3\n      pop\n        /* \"@openzeppelin/contracts/utils/math/Math.sol\":10465:10467  32 */\n      0x20\n        /* \"@openzeppelin/contracts/utils/math/Math.sol\":10455:10467  result += 32 */\n      add\n        /* \"@openzeppelin/contracts/utils/math/Math.sol\":10379:10482  if (value >= 10 ** 32) {... */\n    tag_339:\n        /* \"@openzeppelin/contracts/utils/math/Math.sol\":10508:10516  10 ** 16 */\n      0x2386f26fc10000\n        /* \"@openzeppelin/contracts/utils/math/Math.sol\":10499:10504  value */\n      dup4\n        /* \"@openzeppelin/contracts/utils/math/Math.sol\":10499:10516  value >= 10 ** 16 */\n      lt\n        /* \"@openzeppelin/contracts/utils/math/Math.sol\":10495:10598  if (value >= 10 ** 16) {... */\n      tag_342\n      jumpi\n        /* \"@openzeppelin/contracts/utils/math/Math.sol\":10545:10553  10 ** 16 */\n      0x2386f26fc10000\n        /* \"@openzeppelin/contracts/utils/math/Math.sol\":10536:10553  value /= 10 ** 16 */\n      dup4\n      div\n      swap3\n      pop\n        /* \"@openzeppelin/contracts/utils/math/Math.sol\":10581:10583  16 */\n      0x10\n        /* \"@openzeppelin/contracts/utils/math/Math.sol\":10571:10583  result += 16 */\n      add\n        /* \"@openzeppelin/contracts/utils/math/Math.sol\":10495:10598  if (value >= 10 ** 16) {... */\n    tag_342:\n        /* \"@openzeppelin/contracts/utils/math/Math.sol\":10624:10631  10 ** 8 */\n      0x05f5e100\n        /* \"@openzeppelin/contracts/utils/math/Math.sol\":10615:10620  value */\n      dup4\n        /* \"@openzeppelin/contracts/utils/math/Math.sol\":10615:10631  value >= 10 ** 8 */\n      lt\n        /* \"@openzeppelin/contracts/utils/math/Math.sol\":10611:10711  if (value >= 10 ** 8) {... */\n      tag_345\n      jumpi\n        /* \"@openzeppelin/contracts/utils/math/Math.sol\":10660:10667  10 ** 8 */\n      0x05f5e100\n        /* \"@openzeppelin/contracts/utils/math/Math.sol\":10651:10667  value /= 10 ** 8 */\n      dup4\n      div\n      swap3\n      pop\n        /* \"@openzeppelin/contracts/utils/math/Math.sol\":10695:10696  8 */\n      0x08\n        /* \"@openzeppelin/contracts/utils/math/Math.sol\":10685:10696  result += 8 */\n      add\n        /* \"@openzeppelin/contracts/utils/math/Math.sol\":10611:10711  if (value >= 10 ** 8) {... */\n    tag_345:\n        /* \"@openzeppelin/contracts/utils/math/Math.sol\":10737:10744  10 ** 4 */\n      0x2710\n        /* \"@openzeppelin/contracts/utils/math/Math.sol\":10728:10733  value */\n      dup4\n        /* \"@openzeppelin/contracts/utils/math/Math.sol\":10728:10744  value >= 10 ** 4 */\n      lt\n        /* \"@openzeppelin/contracts/utils/math/Math.sol\":10724:10824  if (value >= 10 ** 4) {... */\n      tag_348\n      jumpi\n        /* \"@openzeppelin/contracts/utils/math/Math.sol\":10773:10780  10 ** 4 */\n      0x2710\n        /* \"@openzeppelin/contracts/utils/math/Math.sol\":10764:10780  value /= 10 ** 4 */\n      dup4\n      div\n      swap3\n      pop\n        /* \"@openzeppelin/contracts/utils/math/Math.sol\":10808:10809  4 */\n      0x04\n        /* \"@openzeppelin/contracts/utils/math/Math.sol\":10798:10809  result += 4 */\n      add\n        /* \"@openzeppelin/contracts/utils/math/Math.sol\":10724:10824  if (value >= 10 ** 4) {... */\n    tag_348:\n        /* \"@openzeppelin/contracts/utils/math/Math.sol\":10850:10857  10 ** 2 */\n      0x64\n        /* \"@openzeppelin/contracts/utils/math/Math.sol\":10841:10846  value */\n      dup4\n        /* \"@openzeppelin/contracts/utils/math/Math.sol\":10841:10857  value >= 10 ** 2 */\n      lt\n        /* \"@openzeppelin/contracts/utils/math/Math.sol\":10837:10937  if (value >= 10 ** 2) {... */\n      tag_351\n      jumpi\n        /* \"@openzeppelin/contracts/utils/math/Math.sol\":10886:10893  10 ** 2 */\n      0x64\n        /* \"@openzeppelin/contracts/utils/math/Math.sol\":10877:10893  value /= 10 ** 2 */\n      dup4\n      div\n      swap3\n      pop\n        /* \"@openzeppelin/contracts/utils/math/Math.sol\":10921:10922  2 */\n      0x02\n        /* \"@openzeppelin/contracts/utils/math/Math.sol\":10911:10922  result += 2 */\n      add\n        /* \"@openzeppelin/contracts/utils/math/Math.sol\":10837:10937  if (value >= 10 ** 2) {... */\n    tag_351:\n        /* \"@openzeppelin/contracts/utils/math/Math.sol\":10963:10970  10 ** 1 */\n      0x0a\n        /* \"@openzeppelin/contracts/utils/math/Math.sol\":10954:10959  value */\n      dup4\n        /* \"@openzeppelin/contracts/utils/math/Math.sol\":10954:10970  value >= 10 ** 1 */\n      lt\n        /* \"@openzeppelin/contracts/utils/math/Math.sol\":10950:11016  if (value >= 10 ** 1) {... */\n      tag_113\n      jumpi\n        /* \"@openzeppelin/contracts/utils/math/Math.sol\":11000:11001  1 */\n      0x01\n        /* \"@openzeppelin/contracts/utils/math/Math.sol\":10990:11001  result += 1 */\n      add\n        /* \"@openzeppelin/contracts/utils/math/Math.sol\":11042:11048  result */\n      swap3\n        /* \"@openzeppelin/contracts/utils/math/Math.sol\":10139:11055  function log10(uint256 value) internal pure returns (uint256) {... */\n      swap2\n      pop\n      pop\n      jump\t// out\n        /* \"#utility.yul\":196:327   */\n    tag_356:\n      not(sub(shl(0xe0, 0x01), 0x01))\n        /* \"#utility.yul\":270:302   */\n      dup2\n      and\n        /* \"#utility.yul\":260:303   */\n      dup2\n      eq\n        /* \"#utility.yul\":250:321   */\n      tag_232\n      jumpi\n        /* \"#utility.yul\":317:318   */\n      0x00\n        /* \"#utility.yul\":314:315   */\n      dup1\n        /* \"#utility.yul\":307:319   */\n      revert\n        /* \"#utility.yul\":332:577   */\n    tag_33:\n        /* \"#utility.yul\":390:396   */\n      0x00\n        /* \"#utility.yul\":443:445   */\n      0x20\n        /* \"#utility.yul\":431:440   */\n      dup3\n        /* \"#utility.yul\":422:429   */\n      dup5\n        /* \"#utility.yul\":418:441   */\n      sub\n        /* \"#utility.yul\":414:446   */\n      slt\n        /* \"#utility.yul\":411:463   */\n      iszero\n      tag_371\n      jumpi\n        /* \"#utility.yul\":459:460   */\n      0x00\n        /* \"#utility.yul\":456:457   */\n      dup1\n        /* \"#utility.yul\":449:461   */\n      revert\n        /* \"#utility.yul\":411:463   */\n    tag_371:\n        /* \"#utility.yul\":498:507   */\n      dup2\n        /* \"#utility.yul\":485:508   */\n      calldataload\n        /* \"#utility.yul\":517:547   */\n      tag_220\n        /* \"#utility.yul\":541:546   */\n      dup2\n        /* \"#utility.yul\":517:547   */\n      tag_356\n      jump\t// in\n        /* \"#utility.yul\":774:1024   */\n    tag_357:\n        /* \"#utility.yul\":859:860   */\n      0x00\n        /* \"#utility.yul\":869:982   */\n    tag_375:\n        /* \"#utility.yul\":883:889   */\n      dup4\n        /* \"#utility.yul\":880:881   */\n      dup2\n        /* \"#utility.yul\":877:890   */\n      lt\n        /* \"#utility.yul\":869:982   */\n      iszero\n      tag_377\n      jumpi\n        /* \"#utility.yul\":959:970   */\n      dup2\n      dup2\n      add\n        /* \"#utility.yul\":953:971   */\n      mload\n        /* \"#utility.yul\":940:951   */\n      dup4\n      dup3\n      add\n        /* \"#utility.yul\":933:972   */\n      mstore\n        /* \"#utility.yul\":905:907   */\n      0x20\n        /* \"#utility.yul\":898:908   */\n      add\n        /* \"#utility.yul\":869:982   */\n      jump(tag_375)\n    tag_377:\n      pop\n      pop\n        /* \"#utility.yul\":1016:1017   */\n      0x00\n        /* \"#utility.yul\":998:1014   */\n      swap2\n      add\n        /* \"#utility.yul\":991:1018   */\n      mstore\n        /* \"#utility.yul\":774:1024   */\n      jump\t// out\n        /* \"#utility.yul\":1029:1300   */\n    tag_358:\n        /* \"#utility.yul\":1071:1074   */\n      0x00\n        /* \"#utility.yul\":1109:1114   */\n      dup2\n        /* \"#utility.yul\":1103:1115   */\n      mload\n        /* \"#utility.yul\":1136:1142   */\n      dup1\n        /* \"#utility.yul\":1131:1134   */\n      dup5\n        /* \"#utility.yul\":1124:1143   */\n      mstore\n        /* \"#utility.yul\":1152:1228   */\n      tag_379\n        /* \"#utility.yul\":1221:1227   */\n      dup2\n        /* \"#utility.yul\":1214:1218   */\n      0x20\n        /* \"#utility.yul\":1209:1212   */\n      dup7\n        /* \"#utility.yul\":1205:1219   */\n      add\n        /* \"#utility.yul\":1198:1202   */\n      0x20\n        /* \"#utility.yul\":1191:1196   */\n      dup7\n        /* \"#utility.yul\":1187:1203   */\n      add\n        /* \"#utility.yul\":1152:1228   */\n      tag_357\n      jump\t// in\n    tag_379:\n        /* \"#utility.yul\":1282:1284   */\n      0x1f\n        /* \"#utility.yul\":1261:1276   */\n      add\n      not(0x1f)\n        /* \"#utility.yul\":1257:1286   */\n      and\n        /* \"#utility.yul\":1248:1287   */\n      swap3\n      swap1\n      swap3\n      add\n        /* \"#utility.yul\":1289:1293   */\n      0x20\n        /* \"#utility.yul\":1244:1294   */\n      add\n      swap3\n        /* \"#utility.yul\":1029:1300   */\n      swap2\n      pop\n      pop\n      jump\t// out\n        /* \"#utility.yul\":1305:1525   */\n    tag_40:\n        /* \"#utility.yul\":1454:1456   */\n      0x20\n        /* \"#utility.yul\":1443:1452   */\n      dup2\n        /* \"#utility.yul\":1436:1457   */\n      mstore\n        /* \"#utility.yul\":1417:1421   */\n      0x00\n        /* \"#utility.yul\":1474:1519   */\n      tag_220\n        /* \"#utility.yul\":1515:1517   */\n      0x20\n        /* \"#utility.yul\":1504:1513   */\n      dup4\n        /* \"#utility.yul\":1500:1518   */\n      add\n        /* \"#utility.yul\":1492:1498   */\n      dup5\n        /* \"#utility.yul\":1474:1519   */\n      tag_358\n      jump\t// in\n        /* \"#utility.yul\":1530:1710   */\n    tag_43:\n        /* \"#utility.yul\":1589:1595   */\n      0x00\n        /* \"#utility.yul\":1642:1644   */\n      0x20\n        /* \"#utility.yul\":1630:1639   */\n      dup3\n        /* \"#utility.yul\":1621:1628   */\n      dup5\n        /* \"#utility.yul\":1617:1640   */\n      sub\n        /* \"#utility.yul\":1613:1645   */\n      slt\n        /* \"#utility.yul\":1610:1662   */\n      iszero\n      tag_383\n      jumpi\n        /* \"#utility.yul\":1658:1659   */\n      0x00\n        /* \"#utility.yul\":1655:1656   */\n      dup1\n        /* \"#utility.yul\":1648:1660   */\n      revert\n        /* \"#utility.yul\":1610:1662   */\n    tag_383:\n      pop\n        /* \"#utility.yul\":1681:1704   */\n      calldataload\n      swap2\n        /* \"#utility.yul\":1530:1710   */\n      swap1\n      pop\n      jump\t// out\n        /* \"#utility.yul\":1923:2096   */\n    tag_359:\n        /* \"#utility.yul\":1991:2011   */\n      dup1\n      calldataload\n      sub(shl(0xa0, 0x01), 0x01)\n        /* \"#utility.yul\":2040:2071   */\n      dup2\n      and\n        /* \"#utility.yul\":2030:2072   */\n      dup2\n      eq\n        /* \"#utility.yul\":2020:2090   */\n      tag_386\n      jumpi\n        /* \"#utility.yul\":2086:2087   */\n      0x00\n        /* \"#utility.yul\":2083:2084   */\n      dup1\n        /* \"#utility.yul\":2076:2088   */\n      revert\n        /* \"#utility.yul\":2020:2090   */\n    tag_386:\n        /* \"#utility.yul\":1923:2096   */\n      swap2\n      swap1\n      pop\n      jump\t// out\n        /* \"#utility.yul\":2101:2355   */\n    tag_49:\n        /* \"#utility.yul\":2169:2175   */\n      0x00\n        /* \"#utility.yul\":2177:2183   */\n      dup1\n        /* \"#utility.yul\":2230:2232   */\n      0x40\n        /* \"#utility.yul\":2218:2227   */\n      dup4\n        /* \"#utility.yul\":2209:2216   */\n      dup6\n        /* \"#utility.yul\":2205:2228   */\n      sub\n        /* \"#utility.yul\":2201:2233   */\n      slt\n        /* \"#utility.yul\":2198:2250   */\n      iszero\n      tag_388\n      jumpi\n        /* \"#utility.yul\":2246:2247   */\n      0x00\n        /* \"#utility.yul\":2243:2244   */\n      dup1\n        /* \"#utility.yul\":2236:2248   */\n      revert\n        /* \"#utility.yul\":2198:2250   */\n    tag_388:\n        /* \"#utility.yul\":2269:2298   */\n      tag_389\n        /* \"#utility.yul\":2288:2297   */\n      dup4\n        /* \"#utility.yul\":2269:2298   */\n      tag_359\n      jump\t// in\n    tag_389:\n        /* \"#utility.yul\":2259:2298   */\n      swap5\n        /* \"#utility.yul\":2345:2347   */\n      0x20\n        /* \"#utility.yul\":2330:2348   */\n      swap4\n      swap1\n      swap4\n      add\n        /* \"#utility.yul\":2317:2349   */\n      calldataload\n      swap4\n      pop\n      pop\n      pop\n        /* \"#utility.yul\":2101:2355   */\n      jump\t// out\n        /* \"#utility.yul\":2360:2688   */\n    tag_53:\n        /* \"#utility.yul\":2437:2443   */\n      0x00\n        /* \"#utility.yul\":2445:2451   */\n      dup1\n        /* \"#utility.yul\":2453:2459   */\n      0x00\n        /* \"#utility.yul\":2506:2508   */\n      0x60\n        /* \"#utility.yul\":2494:2503   */\n      dup5\n        /* \"#utility.yul\":2485:2492   */\n      dup7\n        /* \"#utility.yul\":2481:2504   */\n      sub\n        /* \"#utility.yul\":2477:2509   */\n      slt\n        /* \"#utility.yul\":2474:2526   */\n      iszero\n      tag_391\n      jumpi\n        /* \"#utility.yul\":2522:2523   */\n      0x00\n        /* \"#utility.yul\":2519:2520   */\n      dup1\n        /* \"#utility.yul\":2512:2524   */\n      revert\n        /* \"#utility.yul\":2474:2526   */\n    tag_391:\n        /* \"#utility.yul\":2545:2574   */\n      tag_392\n        /* \"#utility.yul\":2564:2573   */\n      dup5\n        /* \"#utility.yul\":2545:2574   */\n      tag_359\n      jump\t// in\n    tag_392:\n        /* \"#utility.yul\":2535:2574   */\n      swap3\n      pop\n        /* \"#utility.yul\":2593:2631   */\n      tag_393\n        /* \"#utility.yul\":2627:2629   */\n      0x20\n        /* \"#utility.yul\":2616:2625   */\n      dup6\n        /* \"#utility.yul\":2612:2630   */\n      add\n        /* \"#utility.yul\":2593:2631   */\n      tag_359\n      jump\t// in\n    tag_393:\n        /* \"#utility.yul\":2583:2631   */\n      swap2\n      pop\n        /* \"#utility.yul\":2678:2680   */\n      0x40\n        /* \"#utility.yul\":2667:2676   */\n      dup5\n        /* \"#utility.yul\":2663:2681   */\n      add\n        /* \"#utility.yul\":2650:2682   */\n      calldataload\n        /* \"#utility.yul\":2640:2682   */\n      swap1\n      pop\n        /* \"#utility.yul\":2360:2688   */\n      swap3\n      pop\n      swap3\n      pop\n      swap3\n      jump\t// out\n        /* \"#utility.yul\":2693:3246   */\n    tag_59:\n        /* \"#utility.yul\":2946:2949   */\n      0x80\n        /* \"#utility.yul\":2935:2944   */\n      dup2\n        /* \"#utility.yul\":2928:2950   */\n      mstore\n        /* \"#utility.yul\":2909:2913   */\n      0x00\n        /* \"#utility.yul\":2973:3019   */\n      tag_395\n        /* \"#utility.yul\":3014:3017   */\n      0x80\n        /* \"#utility.yul\":3003:3012   */\n      dup4\n        /* \"#utility.yul\":2999:3018   */\n      add\n        /* \"#utility.yul\":2991:2997   */\n      dup8\n        /* \"#utility.yul\":2973:3019   */\n      tag_358\n      jump\t// in\n    tag_395:\n        /* \"#utility.yul\":3067:3076   */\n      dup3\n        /* \"#utility.yul\":3059:3065   */\n      dup2\n        /* \"#utility.yul\":3055:3077   */\n      sub\n        /* \"#utility.yul\":3050:3052   */\n      0x20\n        /* \"#utility.yul\":3039:3048   */\n      dup5\n        /* \"#utility.yul\":3035:3053   */\n      add\n        /* \"#utility.yul\":3028:3078   */\n      mstore\n        /* \"#utility.yul\":3095:3128   */\n      tag_396\n        /* \"#utility.yul\":3121:3127   */\n      dup2\n        /* \"#utility.yul\":3113:3119   */\n      dup8\n        /* \"#utility.yul\":3095:3128   */\n      tag_358\n      jump\t// in\n    tag_396:\n        /* \"#utility.yul\":3159:3161   */\n      0x40\n        /* \"#utility.yul\":3144:3162   */\n      dup5\n      add\n        /* \"#utility.yul\":3137:3171   */\n      swap6\n      swap1\n      swap6\n      mstore\n      pop\n      pop\n      sub(shl(0xa0, 0x01), 0x01)\n        /* \"#utility.yul\":3207:3239   */\n      swap2\n      swap1\n      swap2\n      and\n        /* \"#utility.yul\":3202:3204   */\n      0x60\n        /* \"#utility.yul\":3187:3205   */\n      swap1\n      swap2\n      add\n        /* \"#utility.yul\":3180:3240   */\n      mstore\n        /* \"#utility.yul\":3087:3128   */\n      swap3\n        /* \"#utility.yul\":2693:3246   */\n      swap2\n      pop\n      pop\n      jump\t// out\n        /* \"#utility.yul\":3251:3378   */\n    tag_302:\n        /* \"#utility.yul\":3312:3322   */\n      0x4e487b71\n        /* \"#utility.yul\":3307:3310   */\n      0xe0\n        /* \"#utility.yul\":3303:3323   */\n      shl\n        /* \"#utility.yul\":3300:3301   */\n      0x00\n        /* \"#utility.yul\":3293:3324   */\n      mstore\n        /* \"#utility.yul\":3343:3347   */\n      0x41\n        /* \"#utility.yul\":3340:3341   */\n      0x04\n        /* \"#utility.yul\":3333:3348   */\n      mstore\n        /* \"#utility.yul\":3367:3371   */\n      0x24\n        /* \"#utility.yul\":3364:3365   */\n      0x00\n        /* \"#utility.yul\":3357:3372   */\n      revert\n        /* \"#utility.yul\":3383:4015   */\n    tag_360:\n        /* \"#utility.yul\":3448:3453   */\n      0x00\n        /* \"#utility.yul\":3478:3496   */\n      0xffffffffffffffff\n        /* \"#utility.yul\":3519:3521   */\n      dup1\n        /* \"#utility.yul\":3511:3517   */\n      dup5\n        /* \"#utility.yul\":3508:3522   */\n      gt\n        /* \"#utility.yul\":3505:3545   */\n      iszero\n      tag_400\n      jumpi\n        /* \"#utility.yul\":3525:3543   */\n      tag_400\n      tag_302\n      jump\t// in\n    tag_400:\n        /* \"#utility.yul\":3600:3602   */\n      0x40\n        /* \"#utility.yul\":3594:3603   */\n      mload\n        /* \"#utility.yul\":3568:3570   */\n      0x1f\n        /* \"#utility.yul\":3654:3669   */\n      dup6\n      add\n      not(0x1f)\n        /* \"#utility.yul\":3650:3674   */\n      swap1\n      dup2\n      and\n        /* \"#utility.yul\":3676:3678   */\n      0x3f\n        /* \"#utility.yul\":3646:3679   */\n      add\n        /* \"#utility.yul\":3642:3684   */\n      and\n        /* \"#utility.yul\":3630:3685   */\n      dup2\n      add\n      swap1\n        /* \"#utility.yul\":3700:3718   */\n      dup3\n      dup3\n      gt\n        /* \"#utility.yul\":3720:3742   */\n      dup2\n      dup4\n      lt\n        /* \"#utility.yul\":3697:3743   */\n      or\n        /* \"#utility.yul\":3694:3766   */\n      iszero\n      tag_402\n      jumpi\n        /* \"#utility.yul\":3746:3764   */\n      tag_402\n      tag_302\n      jump\t// in\n    tag_402:\n        /* \"#utility.yul\":3786:3796   */\n      dup2\n        /* \"#utility.yul\":3782:3784   */\n      0x40\n        /* \"#utility.yul\":3775:3797   */\n      mstore\n        /* \"#utility.yul\":3815:3821   */\n      dup1\n        /* \"#utility.yul\":3806:3821   */\n      swap4\n      pop\n        /* \"#utility.yul\":3845:3851   */\n      dup6\n        /* \"#utility.yul\":3837:3843   */\n      dup2\n        /* \"#utility.yul\":3830:3852   */\n      mstore\n        /* \"#utility.yul\":3885:3888   */\n      dup7\n        /* \"#utility.yul\":3876:3882   */\n      dup7\n        /* \"#utility.yul\":3871:3874   */\n      dup7\n        /* \"#utility.yul\":3867:3883   */\n      add\n        /* \"#utility.yul\":3864:3889   */\n      gt\n        /* \"#utility.yul\":3861:3906   */\n      iszero\n      tag_403\n      jumpi\n        /* \"#utility.yul\":3902:3903   */\n      0x00\n        /* \"#utility.yul\":3899:3900   */\n      dup1\n        /* \"#utility.yul\":3892:3904   */\n      revert\n        /* \"#utility.yul\":3861:3906   */\n    tag_403:\n        /* \"#utility.yul\":3952:3958   */\n      dup6\n        /* \"#utility.yul\":3947:3950   */\n      dup6\n        /* \"#utility.yul\":3940:3944   */\n      0x20\n        /* \"#utility.yul\":3932:3938   */\n      dup4\n        /* \"#utility.yul\":3928:3945   */\n      add\n        /* \"#utility.yul\":3915:3959   */\n      calldatacopy\n        /* \"#utility.yul\":4007:4008   */\n      0x00\n        /* \"#utility.yul\":4000:4004   */\n      0x20\n        /* \"#utility.yul\":3991:3997   */\n      dup8\n        /* \"#utility.yul\":3983:3989   */\n      dup4\n        /* \"#utility.yul\":3979:3998   */\n      add\n        /* \"#utility.yul\":3975:4005   */\n      add\n        /* \"#utility.yul\":3968:4009   */\n      mstore\n      pop\n      pop\n      pop\n        /* \"#utility.yul\":3383:4015   */\n      swap4\n      swap3\n      pop\n      pop\n      pop\n      jump\t// out\n        /* \"#utility.yul\":4020:4242   */\n    tag_361:\n        /* \"#utility.yul\":4063:4068   */\n      0x00\n        /* \"#utility.yul\":4116:4119   */\n      dup3\n        /* \"#utility.yul\":4109:4113   */\n      0x1f\n        /* \"#utility.yul\":4101:4107   */\n      dup4\n        /* \"#utility.yul\":4097:4114   */\n      add\n        /* \"#utility.yul\":4093:4120   */\n      slt\n        /* \"#utility.yul\":4083:4138   */\n      tag_405\n      jumpi\n        /* \"#utility.yul\":4134:4135   */\n      0x00\n        /* \"#utility.yul\":4131:4132   */\n      dup1\n        /* \"#utility.yul\":4124:4136   */\n      revert\n        /* \"#utility.yul\":4083:4138   */\n    tag_405:\n        /* \"#utility.yul\":4156:4236   */\n      tag_220\n        /* \"#utility.yul\":4232:4235   */\n      dup4\n        /* \"#utility.yul\":4223:4229   */\n      dup4\n        /* \"#utility.yul\":4210:4230   */\n      calldataload\n        /* \"#utility.yul\":4203:4207   */\n      0x20\n        /* \"#utility.yul\":4195:4201   */\n      dup6\n        /* \"#utility.yul\":4191:4208   */\n      add\n        /* \"#utility.yul\":4156:4236   */\n      tag_360\n      jump\t// in\n        /* \"#utility.yul\":4247:4858   */\n    tag_72:\n        /* \"#utility.yul\":4344:4350   */\n      0x00\n        /* \"#utility.yul\":4352:4358   */\n      dup1\n        /* \"#utility.yul\":4360:4366   */\n      0x00\n        /* \"#utility.yul\":4413:4415   */\n      0x60\n        /* \"#utility.yul\":4401:4410   */\n      dup5\n        /* \"#utility.yul\":4392:4399   */\n      dup7\n        /* \"#utility.yul\":4388:4411   */\n      sub\n        /* \"#utility.yul\":4384:4416   */\n      slt\n        /* \"#utility.yul\":4381:4433   */\n      iszero\n      tag_408\n      jumpi\n        /* \"#utility.yul\":4429:4430   */\n      0x00\n        /* \"#utility.yul\":4426:4427   */\n      dup1\n        /* \"#utility.yul\":4419:4431   */\n      revert\n        /* \"#utility.yul\":4381:4433   */\n    tag_408:\n        /* \"#utility.yul\":4469:4478   */\n      dup4\n        /* \"#utility.yul\":4456:4479   */\n      calldataload\n        /* \"#utility.yul\":4498:4516   */\n      0xffffffffffffffff\n        /* \"#utility.yul\":4539:4541   */\n      dup1\n        /* \"#utility.yul\":4531:4537   */\n      dup3\n        /* \"#utility.yul\":4528:4542   */\n      gt\n        /* \"#utility.yul\":4525:4559   */\n      iszero\n      tag_409\n      jumpi\n        /* \"#utility.yul\":4555:4556   */\n      0x00\n        /* \"#utility.yul\":4552:4553   */\n      dup1\n        /* \"#utility.yul\":4545:4557   */\n      revert\n        /* \"#utility.yul\":4525:4559   */\n    tag_409:\n        /* \"#utility.yul\":4578:4628   */\n      tag_410\n        /* \"#utility.yul\":4620:4627   */\n      dup8\n        /* \"#utility.yul\":4611:4617   */\n      dup4\n        /* \"#utility.yul\":4600:4609   */\n      dup9\n        /* \"#utility.yul\":4596:4618   */\n      add\n        /* \"#utility.yul\":4578:4628   */\n      tag_361\n      jump\t// in\n    tag_410:\n        /* \"#utility.yul\":4568:4628   */\n      swap5\n      pop\n        /* \"#utility.yul\":4681:4683   */\n      0x20\n        /* \"#utility.yul\":4670:4679   */\n      dup7\n        /* \"#utility.yul\":4666:4684   */\n      add\n        /* \"#utility.yul\":4653:4685   */\n      calldataload\n        /* \"#utility.yul\":4637:4685   */\n      swap2\n      pop\n        /* \"#utility.yul\":4710:4712   */\n      dup1\n        /* \"#utility.yul\":4700:4708   */\n      dup3\n        /* \"#utility.yul\":4697:4713   */\n      gt\n        /* \"#utility.yul\":4694:4730   */\n      iszero\n      tag_411\n      jumpi\n        /* \"#utility.yul\":4726:4727   */\n      0x00\n        /* \"#utility.yul\":4723:4724   */\n      dup1\n        /* \"#utility.yul\":4716:4728   */\n      revert\n        /* \"#utility.yul\":4694:4730   */\n    tag_411:\n      pop\n        /* \"#utility.yul\":4749:4801   */\n      tag_412\n        /* \"#utility.yul\":4793:4800   */\n      dup7\n        /* \"#utility.yul\":4782:4790   */\n      dup3\n        /* \"#utility.yul\":4771:4780   */\n      dup8\n        /* \"#utility.yul\":4767:4791   */\n      add\n        /* \"#utility.yul\":4749:4801   */\n      tag_361\n      jump\t// in\n    tag_412:\n        /* \"#utility.yul\":4739:4801   */\n      swap3\n      pop\n      pop\n        /* \"#utility.yul\":4848:4850   */\n      0x40\n        /* \"#utility.yul\":4837:4846   */\n      dup5\n        /* \"#utility.yul\":4833:4851   */\n      add\n        /* \"#utility.yul\":4820:4852   */\n      calldataload\n        /* \"#utility.yul\":4810:4852   */\n      swap1\n      pop\n        /* \"#utility.yul\":4247:4858   */\n      swap3\n      pop\n      swap3\n      pop\n      swap3\n      jump\t// out\n        /* \"#utility.yul\":4863:5049   */\n    tag_76:\n        /* \"#utility.yul\":4922:4928   */\n      0x00\n        /* \"#utility.yul\":4975:4977   */\n      0x20\n        /* \"#utility.yul\":4963:4972   */\n      dup3\n        /* \"#utility.yul\":4954:4961   */\n      dup5\n        /* \"#utility.yul\":4950:4973   */\n      sub\n        /* \"#utility.yul\":4946:4978   */\n      slt\n        /* \"#utility.yul\":4943:4995   */\n      iszero\n      tag_414\n      jumpi\n        /* \"#utility.yul\":4991:4992   */\n      0x00\n        /* \"#utility.yul\":4988:4989   */\n      dup1\n        /* \"#utility.yul\":4981:4993   */\n      revert\n        /* \"#utility.yul\":4943:4995   */\n    tag_414:\n        /* \"#utility.yul\":5014:5043   */\n      tag_220\n        /* \"#utility.yul\":5033:5042   */\n      dup3\n        /* \"#utility.yul\":5014:5043   */\n      tag_359\n      jump\t// in\n        /* \"#utility.yul\":5054:5401   */\n    tag_89:\n        /* \"#utility.yul\":5119:5125   */\n      0x00\n        /* \"#utility.yul\":5127:5133   */\n      dup1\n        /* \"#utility.yul\":5180:5182   */\n      0x40\n        /* \"#utility.yul\":5168:5177   */\n      dup4\n        /* \"#utility.yul\":5159:5166   */\n      dup6\n        /* \"#utility.yul\":5155:5178   */\n      sub\n        /* \"#utility.yul\":5151:5183   */\n      slt\n        /* \"#utility.yul\":5148:5200   */\n      iszero\n      tag_417\n      jumpi\n        /* \"#utility.yul\":5196:5197   */\n      0x00\n        /* \"#utility.yul\":5193:5194   */\n      dup1\n        /* \"#utility.yul\":5186:5198   */\n      revert\n        /* \"#utility.yul\":5148:5200   */\n    tag_417:\n        /* \"#utility.yul\":5219:5248   */\n      tag_418\n        /* \"#utility.yul\":5238:5247   */\n      dup4\n        /* \"#utility.yul\":5219:5248   */\n      tag_359\n      jump\t// in\n    tag_418:\n        /* \"#utility.yul\":5209:5248   */\n      swap2\n      pop\n        /* \"#utility.yul\":5298:5300   */\n      0x20\n        /* \"#utility.yul\":5287:5296   */\n      dup4\n        /* \"#utility.yul\":5283:5301   */\n      add\n        /* \"#utility.yul\":5270:5302   */\n      calldataload\n        /* \"#utility.yul\":5345:5350   */\n      dup1\n        /* \"#utility.yul\":5338:5351   */\n      iszero\n        /* \"#utility.yul\":5331:5352   */\n      iszero\n        /* \"#utility.yul\":5324:5329   */\n      dup2\n        /* \"#utility.yul\":5321:5353   */\n      eq\n        /* \"#utility.yul\":5311:5371   */\n      tag_419\n      jumpi\n        /* \"#utility.yul\":5367:5368   */\n      0x00\n        /* \"#utility.yul\":5364:5365   */\n      dup1\n        /* \"#utility.yul\":5357:5369   */\n      revert\n        /* \"#utility.yul\":5311:5371   */\n    tag_419:\n        /* \"#utility.yul\":5390:5395   */\n      dup1\n        /* \"#utility.yul\":5380:5395   */\n      swap2\n      pop\n      pop\n        /* \"#utility.yul\":5054:5401   */\n      swap3\n      pop\n      swap3\n      swap1\n      pop\n      jump\t// out\n        /* \"#utility.yul\":5406:6073   */\n    tag_93:\n        /* \"#utility.yul\":5501:5507   */\n      0x00\n        /* \"#utility.yul\":5509:5515   */\n      dup1\n        /* \"#utility.yul\":5517:5523   */\n      0x00\n        /* \"#utility.yul\":5525:5531   */\n      dup1\n        /* \"#utility.yul\":5578:5581   */\n      0x80\n        /* \"#utility.yul\":5566:5575   */\n      dup6\n        /* \"#utility.yul\":5557:5564   */\n      dup8\n        /* \"#utility.yul\":5553:5576   */\n      sub\n        /* \"#utility.yul\":5549:5582   */\n      slt\n        /* \"#utility.yul\":5546:5599   */\n      iszero\n      tag_421\n      jumpi\n        /* \"#utility.yul\":5595:5596   */\n      0x00\n        /* \"#utility.yul\":5592:5593   */\n      dup1\n        /* \"#utility.yul\":5585:5597   */\n      revert\n        /* \"#utility.yul\":5546:5599   */\n    tag_421:\n        /* \"#utility.yul\":5618:5647   */\n      tag_422\n        /* \"#utility.yul\":5637:5646   */\n      dup6\n        /* \"#utility.yul\":5618:5647   */\n      tag_359\n      jump\t// in\n    tag_422:\n        /* \"#utility.yul\":5608:5647   */\n      swap4\n      pop\n        /* \"#utility.yul\":5666:5704   */\n      tag_423\n        /* \"#utility.yul\":5700:5702   */\n      0x20\n        /* \"#utility.yul\":5689:5698   */\n      dup7\n        /* \"#utility.yul\":5685:5703   */\n      add\n        /* \"#utility.yul\":5666:5704   */\n      tag_359\n      jump\t// in\n    tag_423:\n        /* \"#utility.yul\":5656:5704   */\n      swap3\n      pop\n        /* \"#utility.yul\":5751:5753   */\n      0x40\n        /* \"#utility.yul\":5740:5749   */\n      dup6\n        /* \"#utility.yul\":5736:5754   */\n      add\n        /* \"#utility.yul\":5723:5755   */\n      calldataload\n        /* \"#utility.yul\":5713:5755   */\n      swap2\n      pop\n        /* \"#utility.yul\":5806:5808   */\n      0x60\n        /* \"#utility.yul\":5795:5804   */\n      dup6\n        /* \"#utility.yul\":5791:5809   */\n      add\n        /* \"#utility.yul\":5778:5810   */\n      calldataload\n        /* \"#utility.yul\":5833:5851   */\n      0xffffffffffffffff\n        /* \"#utility.yul\":5825:5831   */\n      dup2\n        /* \"#utility.yul\":5822:5852   */\n      gt\n        /* \"#utility.yul\":5819:5869   */\n      iszero\n      tag_424\n      jumpi\n        /* \"#utility.yul\":5865:5866   */\n      0x00\n        /* \"#utility.yul\":5862:5863   */\n      dup1\n        /* \"#utility.yul\":5855:5867   */\n      revert\n        /* \"#utility.yul\":5819:5869   */\n    tag_424:\n        /* \"#utility.yul\":5888:5910   */\n      dup6\n      add\n        /* \"#utility.yul\":5941:5945   */\n      0x1f\n        /* \"#utility.yul\":5933:5946   */\n      dup2\n      add\n        /* \"#utility.yul\":5929:5956   */\n      dup8\n      sgt\n        /* \"#utility.yul\":5919:5974   */\n      tag_425\n      jumpi\n        /* \"#utility.yul\":5970:5971   */\n      0x00\n        /* \"#utility.yul\":5967:5968   */\n      dup1\n        /* \"#utility.yul\":5960:5972   */\n      revert\n        /* \"#utility.yul\":5919:5974   */\n    tag_425:\n        /* \"#utility.yul\":5993:6067   */\n      tag_426\n        /* \"#utility.yul\":6059:6066   */\n      dup8\n        /* \"#utility.yul\":6054:6056   */\n      dup3\n        /* \"#utility.yul\":6041:6057   */\n      calldataload\n        /* \"#utility.yul\":6036:6038   */\n      0x20\n        /* \"#utility.yul\":6032:6034   */\n      dup5\n        /* \"#utility.yul\":6028:6039   */\n      add\n        /* \"#utility.yul\":5993:6067   */\n      tag_360\n      jump\t// in\n    tag_426:\n        /* \"#utility.yul\":5983:6067   */\n      swap2\n      pop\n      pop\n        /* \"#utility.yul\":5406:6073   */\n      swap3\n      swap6\n      swap2\n      swap5\n      pop\n      swap3\n      pop\n      jump\t// out\n        /* \"#utility.yul\":6078:6338   */\n    tag_104:\n        /* \"#utility.yul\":6146:6152   */\n      0x00\n        /* \"#utility.yul\":6154:6160   */\n      dup1\n        /* \"#utility.yul\":6207:6209   */\n      0x40\n        /* \"#utility.yul\":6195:6204   */\n      dup4\n        /* \"#utility.yul\":6186:6193   */\n      dup6\n        /* \"#utility.yul\":6182:6205   */\n      sub\n        /* \"#utility.yul\":6178:6210   */\n      slt\n        /* \"#utility.yul\":6175:6227   */\n      iszero\n      tag_428\n      jumpi\n        /* \"#utility.yul\":6223:6224   */\n      0x00\n        /* \"#utility.yul\":6220:6221   */\n      dup1\n        /* \"#utility.yul\":6213:6225   */\n      revert\n        /* \"#utility.yul\":6175:6227   */\n    tag_428:\n        /* \"#utility.yul\":6246:6275   */\n      tag_429\n        /* \"#utility.yul\":6265:6274   */\n      dup4\n        /* \"#utility.yul\":6246:6275   */\n      tag_359\n      jump\t// in\n    tag_429:\n        /* \"#utility.yul\":6236:6275   */\n      swap2\n      pop\n        /* \"#utility.yul\":6294:6332   */\n      tag_430\n        /* \"#utility.yul\":6328:6330   */\n      0x20\n        /* \"#utility.yul\":6317:6326   */\n      dup5\n        /* \"#utility.yul\":6313:6331   */\n      add\n        /* \"#utility.yul\":6294:6332   */\n      tag_359\n      jump\t// in\n    tag_430:\n        /* \"#utility.yul\":6284:6332   */\n      swap1\n      pop\n        /* \"#utility.yul\":6078:6338   */\n      swap3\n      pop\n      swap3\n      swap1\n      pop\n      jump\t// out\n        /* \"#utility.yul\":6343:6723   */\n    tag_117:\n        /* \"#utility.yul\":6422:6423   */\n      0x01\n        /* \"#utility.yul\":6418:6430   */\n      dup2\n      dup2\n      shr\n      swap1\n        /* \"#utility.yul\":6465:6477   */\n      dup3\n      and\n      dup1\n        /* \"#utility.yul\":6486:6547   */\n      tag_432\n      jumpi\n        /* \"#utility.yul\":6540:6544   */\n      0x7f\n        /* \"#utility.yul\":6532:6538   */\n      dup3\n        /* \"#utility.yul\":6528:6545   */\n      and\n        /* \"#utility.yul\":6518:6545   */\n      swap2\n      pop\n        /* \"#utility.yul\":6486:6547   */\n    tag_432:\n        /* \"#utility.yul\":6593:6595   */\n      0x20\n        /* \"#utility.yul\":6585:6591   */\n      dup3\n        /* \"#utility.yul\":6582:6596   */\n      lt\n        /* \"#utility.yul\":6562:6580   */\n      dup2\n        /* \"#utility.yul\":6559:6597   */\n      sub\n        /* \"#utility.yul\":6556:6717   */\n      tag_433\n      jumpi\n        /* \"#utility.yul\":6639:6649   */\n      0x4e487b71\n        /* \"#utility.yul\":6634:6637   */\n      0xe0\n        /* \"#utility.yul\":6630:6650   */\n      shl\n        /* \"#utility.yul\":6627:6628   */\n      0x00\n        /* \"#utility.yul\":6620:6651   */\n      mstore\n        /* \"#utility.yul\":6674:6678   */\n      0x22\n        /* \"#utility.yul\":6671:6672   */\n      0x04\n        /* \"#utility.yul\":6664:6679   */\n      mstore\n        /* \"#utility.yul\":6702:6706   */\n      0x24\n        /* \"#utility.yul\":6699:6700   */\n      0x00\n        /* \"#utility.yul\":6692:6707   */\n      revert\n        /* \"#utility.yul\":6556:6717   */\n    tag_433:\n      pop\n        /* \"#utility.yul\":6343:6723   */\n      swap2\n      swap1\n      pop\n      jump\t// out\n        /* \"#utility.yul\":7560:7969   */\n    tag_146:\n        /* \"#utility.yul\":7762:7764   */\n      0x20\n        /* \"#utility.yul\":7744:7765   */\n      dup1\n      dup3\n      mstore\n        /* \"#utility.yul\":7801:7803   */\n      0x2d\n        /* \"#utility.yul\":7781:7799   */\n      swap1\n      dup3\n      add\n        /* \"#utility.yul\":7774:7804   */\n      mstore\n        /* \"#utility.yul\":7840:7874   */\n      0x4552433732313a2063616c6c6572206973206e6f7420746f6b656e206f776e65\n        /* \"#utility.yul\":7835:7837   */\n      0x40\n        /* \"#utility.yul\":7820:7838   */\n      dup3\n      add\n        /* \"#utility.yul\":7813:7875   */\n      mstore\n      shl(0x9a, 0x1c881bdc88185c1c1c9bdd9959)\n        /* \"#utility.yul\":7906:7908   */\n      0x60\n        /* \"#utility.yul\":7891:7909   */\n      dup3\n      add\n        /* \"#utility.yul\":7884:7927   */\n      mstore\n        /* \"#utility.yul\":7959:7962   */\n      0x80\n        /* \"#utility.yul\":7944:7963   */\n      add\n      swap1\n        /* \"#utility.yul\":7560:7969   */\n      jump\t// out\n        /* \"#utility.yul\":8327:8454   */\n    tag_362:\n        /* \"#utility.yul\":8388:8398   */\n      0x4e487b71\n        /* \"#utility.yul\":8383:8386   */\n      0xe0\n        /* \"#utility.yul\":8379:8399   */\n      shl\n        /* \"#utility.yul\":8376:8377   */\n      0x00\n        /* \"#utility.yul\":8369:8400   */\n      mstore\n        /* \"#utility.yul\":8419:8423   */\n      0x11\n        /* \"#utility.yul\":8416:8417   */\n      0x04\n        /* \"#utility.yul\":8409:8424   */\n      mstore\n        /* \"#utility.yul\":8443:8447   */\n      0x24\n        /* \"#utility.yul\":8440:8441   */\n      0x00\n        /* \"#utility.yul\":8433:8448   */\n      revert\n        /* \"#utility.yul\":8459:8594   */\n    tag_169:\n        /* \"#utility.yul\":8498:8501   */\n      0x00\n        /* \"#utility.yul\":8519:8536   */\n      0x01\n      dup3\n      add\n        /* \"#utility.yul\":8516:8559   */\n      tag_441\n      jumpi\n        /* \"#utility.yul\":8539:8557   */\n      tag_441\n      tag_362\n      jump\t// in\n    tag_441:\n      pop\n        /* \"#utility.yul\":8586:8587   */\n      0x01\n        /* \"#utility.yul\":8575:8588   */\n      add\n      swap1\n        /* \"#utility.yul\":8459:8594   */\n      jump\t// out\n        /* \"#utility.yul\":8725:9270   */\n    tag_364:\n        /* \"#utility.yul\":8827:8829   */\n      0x1f\n        /* \"#utility.yul\":8822:8825   */\n      dup3\n        /* \"#utility.yul\":8819:8830   */\n      gt\n        /* \"#utility.yul\":8816:9264   */\n      iszero\n      tag_138\n      jumpi\n        /* \"#utility.yul\":8863:8864   */\n      0x00\n        /* \"#utility.yul\":8888:8893   */\n      dup2\n        /* \"#utility.yul\":8884:8886   */\n      dup2\n        /* \"#utility.yul\":8877:8894   */\n      mstore\n        /* \"#utility.yul\":8933:8937   */\n      0x20\n        /* \"#utility.yul\":8929:8931   */\n      dup2\n        /* \"#utility.yul\":8919:8938   */\n      keccak256\n        /* \"#utility.yul\":9003:9005   */\n      0x1f\n        /* \"#utility.yul\":8991:9001   */\n      dup6\n        /* \"#utility.yul\":8987:9006   */\n      add\n        /* \"#utility.yul\":8984:8985   */\n      0x05\n        /* \"#utility.yul\":8980:9007   */\n      shr\n        /* \"#utility.yul\":8974:8978   */\n      dup2\n        /* \"#utility.yul\":8970:9008   */\n      add\n        /* \"#utility.yul\":9039:9043   */\n      0x20\n        /* \"#utility.yul\":9027:9037   */\n      dup7\n        /* \"#utility.yul\":9024:9044   */\n      lt\n        /* \"#utility.yul\":9021:9068   */\n      iszero\n      tag_445\n      jumpi\n      pop\n        /* \"#utility.yul\":9062:9066   */\n      dup1\n        /* \"#utility.yul\":9021:9068   */\n    tag_445:\n        /* \"#utility.yul\":9117:9119   */\n      0x1f\n        /* \"#utility.yul\":9112:9115   */\n      dup6\n        /* \"#utility.yul\":9108:9120   */\n      add\n        /* \"#utility.yul\":9105:9106   */\n      0x05\n        /* \"#utility.yul\":9101:9121   */\n      shr\n        /* \"#utility.yul\":9095:9099   */\n      dup3\n        /* \"#utility.yul\":9091:9122   */\n      add\n        /* \"#utility.yul\":9081:9122   */\n      swap2\n      pop\n        /* \"#utility.yul\":9172:9254   */\n    tag_446:\n        /* \"#utility.yul\":9190:9192   */\n      dup2\n        /* \"#utility.yul\":9183:9188   */\n      dup2\n        /* \"#utility.yul\":9180:9193   */\n      lt\n        /* \"#utility.yul\":9172:9254   */\n      iszero\n      tag_448\n      jumpi\n        /* \"#utility.yul\":9235:9252   */\n      dup3\n      dup2\n      sstore\n        /* \"#utility.yul\":9216:9217   */\n      0x01\n        /* \"#utility.yul\":9205:9218   */\n      add\n        /* \"#utility.yul\":9172:9254   */\n      jump(tag_446)\n    tag_448:\n        /* \"#utility.yul\":9176:9179   */\n      pop\n      pop\n      pop\n        /* \"#utility.yul\":8725:9270   */\n      pop\n      pop\n      pop\n      jump\t// out\n        /* \"#utility.yul\":9446:10798   */\n    tag_173:\n        /* \"#utility.yul\":9572:9575   */\n      dup2\n        /* \"#utility.yul\":9566:9576   */\n      mload\n        /* \"#utility.yul\":9599:9617   */\n      0xffffffffffffffff\n        /* \"#utility.yul\":9591:9597   */\n      dup2\n        /* \"#utility.yul\":9588:9618   */\n      gt\n        /* \"#utility.yul\":9585:9641   */\n      iszero\n      tag_452\n      jumpi\n        /* \"#utility.yul\":9621:9639   */\n      tag_452\n      tag_302\n      jump\t// in\n    tag_452:\n        /* \"#utility.yul\":9650:9747   */\n      tag_453\n        /* \"#utility.yul\":9740:9746   */\n      dup2\n        /* \"#utility.yul\":9700:9738   */\n      tag_454\n        /* \"#utility.yul\":9732:9736   */\n      dup5\n        /* \"#utility.yul\":9726:9737   */\n      sload\n        /* \"#utility.yul\":9700:9738   */\n      tag_117\n      jump\t// in\n    tag_454:\n        /* \"#utility.yul\":9694:9698   */\n      dup5\n        /* \"#utility.yul\":9650:9747   */\n      tag_364\n      jump\t// in\n    tag_453:\n        /* \"#utility.yul\":9802:9806   */\n      0x20\n      dup1\n        /* \"#utility.yul\":9866:9868   */\n      0x1f\n        /* \"#utility.yul\":9855:9869   */\n      dup4\n      gt\n        /* \"#utility.yul\":9883:9884   */\n      0x01\n        /* \"#utility.yul\":9878:10541   */\n      dup2\n      eq\n      tag_456\n      jumpi\n        /* \"#utility.yul\":10585:10586   */\n      0x00\n        /* \"#utility.yul\":10602:10608   */\n      dup5\n        /* \"#utility.yul\":10599:10688   */\n      iszero\n      tag_457\n      jumpi\n      pop\n        /* \"#utility.yul\":10654:10673   */\n      dup6\n      dup4\n      add\n        /* \"#utility.yul\":10648:10674   */\n      mload\n        /* \"#utility.yul\":10599:10688   */\n    tag_457:\n      not(0x00)\n        /* \"#utility.yul\":9403:9404   */\n      0x03\n        /* \"#utility.yul\":9399:9410   */\n      dup7\n      swap1\n      shl\n        /* \"#utility.yul\":9395:9419   */\n      shr\n        /* \"#utility.yul\":9391:9420   */\n      not\n        /* \"#utility.yul\":9381:9421   */\n      and\n        /* \"#utility.yul\":9427:9428   */\n      0x01\n        /* \"#utility.yul\":9423:9434   */\n      dup6\n      swap1\n      shl\n        /* \"#utility.yul\":9378:9435   */\n      or\n        /* \"#utility.yul\":10701:10782   */\n      dup6\n      sstore\n        /* \"#utility.yul\":9848:10792   */\n      jump(tag_448)\n        /* \"#utility.yul\":9878:10541   */\n    tag_456:\n        /* \"#utility.yul\":8672:8673   */\n      0x00\n        /* \"#utility.yul\":8665:8679   */\n      dup6\n      dup2\n      mstore\n        /* \"#utility.yul\":8709:8713   */\n      0x20\n        /* \"#utility.yul\":8696:8714   */\n      dup2\n      keccak256\n      not(0x1f)\n        /* \"#utility.yul\":9914:9934   */\n      dup7\n      and\n      swap2\n        /* \"#utility.yul\":10032:10268   */\n    tag_460:\n        /* \"#utility.yul\":10046:10053   */\n      dup3\n        /* \"#utility.yul\":10043:10044   */\n      dup2\n        /* \"#utility.yul\":10040:10054   */\n      lt\n        /* \"#utility.yul\":10032:10268   */\n      iszero\n      tag_462\n      jumpi\n        /* \"#utility.yul\":10135:10154   */\n      dup9\n      dup7\n      add\n        /* \"#utility.yul\":10129:10155   */\n      mload\n        /* \"#utility.yul\":10114:10156   */\n      dup3\n      sstore\n        /* \"#utility.yul\":10227:10254   */\n      swap5\n      dup5\n      add\n      swap5\n        /* \"#utility.yul\":10195:10196   */\n      0x01\n        /* \"#utility.yul\":10183:10197   */\n      swap1\n      swap2\n      add\n      swap1\n        /* \"#utility.yul\":10062:10081   */\n      dup5\n      add\n        /* \"#utility.yul\":10032:10268   */\n      jump(tag_460)\n    tag_462:\n        /* \"#utility.yul\":10036:10039   */\n      pop\n        /* \"#utility.yul\":10296:10302   */\n      dup6\n        /* \"#utility.yul\":10287:10294   */\n      dup3\n        /* \"#utility.yul\":10284:10303   */\n      lt\n        /* \"#utility.yul\":10281:10482   */\n      iszero\n      tag_463\n      jumpi\n        /* \"#utility.yul\":10357:10376   */\n      dup8\n      dup6\n      add\n        /* \"#utility.yul\":10351:10377   */\n      mload\n      not(0x00)\n        /* \"#utility.yul\":10440:10441   */\n      0x03\n        /* \"#utility.yul\":10436:10450   */\n      dup9\n      swap1\n      shl\n        /* \"#utility.yul\":10452:10455   */\n      0xf8\n        /* \"#utility.yul\":10432:10456   */\n      and\n        /* \"#utility.yul\":10428:10465   */\n      shr\n        /* \"#utility.yul\":10424:10466   */\n      not\n        /* \"#utility.yul\":10409:10467   */\n      and\n        /* \"#utility.yul\":10394:10468   */\n      dup2\n      sstore\n        /* \"#utility.yul\":10281:10482   */\n    tag_463:\n      pop\n      pop\n      pop\n      pop\n      pop\n        /* \"#utility.yul\":10528:10529   */\n      0x01\n        /* \"#utility.yul\":10512:10526   */\n      swap1\n      dup2\n      shl\n        /* \"#utility.yul\":10508:10530   */\n      add\n        /* \"#utility.yul\":10495:10531   */\n      swap1\n      sstore\n      pop\n        /* \"#utility.yul\":9446:10798   */\n      jump\t// out\n        /* \"#utility.yul\":10803:10971   */\n    tag_176:\n        /* \"#utility.yul\":10876:10885   */\n      dup1\n      dup3\n      mul\n        /* \"#utility.yul\":10907:10916   */\n      dup2\n      iszero\n        /* \"#utility.yul\":10924:10939   */\n      dup3\n      dup3\n      div\n        /* \"#utility.yul\":10918:10940   */\n      dup5\n      eq\n        /* \"#utility.yul\":10904:10941   */\n      or\n        /* \"#utility.yul\":10894:10965   */\n      tag_113\n      jumpi\n        /* \"#utility.yul\":10945:10963   */\n      tag_113\n      tag_362\n      jump\t// in\n        /* \"#utility.yul\":11108:11325   */\n    tag_178:\n        /* \"#utility.yul\":11148:11149   */\n      0x00\n        /* \"#utility.yul\":11174:11175   */\n      dup3\n        /* \"#utility.yul\":11164:11296   */\n      tag_469\n      jumpi\n        /* \"#utility.yul\":11218:11228   */\n      0x4e487b71\n        /* \"#utility.yul\":11213:11216   */\n      0xe0\n        /* \"#utility.yul\":11209:11229   */\n      shl\n        /* \"#utility.yul\":11206:11207   */\n      0x00\n        /* \"#utility.yul\":11199:11230   */\n      mstore\n        /* \"#utility.yul\":11253:11257   */\n      0x12\n        /* \"#utility.yul\":11250:11251   */\n      0x04\n        /* \"#utility.yul\":11243:11258   */\n      mstore\n        /* \"#utility.yul\":11281:11285   */\n      0x24\n        /* \"#utility.yul\":11278:11279   */\n      0x00\n        /* \"#utility.yul\":11271:11286   */\n      revert\n        /* \"#utility.yul\":11164:11296   */\n    tag_469:\n      pop\n        /* \"#utility.yul\":11310:11319   */\n      div\n      swap1\n        /* \"#utility.yul\":11108:11325   */\n      jump\t// out\n        /* \"#utility.yul\":11740:12236   */\n    tag_224:\n        /* \"#utility.yul\":11919:11922   */\n      0x00\n        /* \"#utility.yul\":11957:11963   */\n      dup4\n        /* \"#utility.yul\":11951:11964   */\n      mload\n        /* \"#utility.yul\":11973:12039   */\n      tag_472\n        /* \"#utility.yul\":12032:12038   */\n      dup2\n        /* \"#utility.yul\":12027:12030   */\n      dup5\n        /* \"#utility.yul\":12020:12024   */\n      0x20\n        /* \"#utility.yul\":12012:12018   */\n      dup9\n        /* \"#utility.yul\":12008:12025   */\n      add\n        /* \"#utility.yul\":11973:12039   */\n      tag_357\n      jump\t// in\n    tag_472:\n        /* \"#utility.yul\":12102:12115   */\n      dup4\n      mload\n        /* \"#utility.yul\":12061:12077   */\n      swap1\n      dup4\n      add\n      swap1\n        /* \"#utility.yul\":12124:12194   */\n      tag_473\n        /* \"#utility.yul\":12102:12115   */\n      dup2\n        /* \"#utility.yul\":12061:12077   */\n      dup4\n        /* \"#utility.yul\":12171:12175   */\n      0x20\n        /* \"#utility.yul\":12159:12176   */\n      dup9\n      add\n        /* \"#utility.yul\":12124:12194   */\n      tag_357\n      jump\t// in\n    tag_473:\n        /* \"#utility.yul\":12210:12230   */\n      add\n      swap5\n        /* \"#utility.yul\":11740:12236   */\n      swap4\n      pop\n      pop\n      pop\n      pop\n      jump\t// out\n        /* \"#utility.yul\":12648:13049   */\n    tag_252:\n        /* \"#utility.yul\":12850:12852   */\n      0x20\n        /* \"#utility.yul\":12832:12853   */\n      dup1\n      dup3\n      mstore\n        /* \"#utility.yul\":12889:12891   */\n      0x25\n        /* \"#utility.yul\":12869:12887   */\n      swap1\n      dup3\n      add\n        /* \"#utility.yul\":12862:12892   */\n      mstore\n        /* \"#utility.yul\":12928:12962   */\n      0x4552433732313a207472616e736665722066726f6d20696e636f727265637420\n        /* \"#utility.yul\":12923:12925   */\n      0x40\n        /* \"#utility.yul\":12908:12926   */\n      dup3\n      add\n        /* \"#utility.yul\":12901:12963   */\n      mstore\n      shl(0xd9, 0x37bbb732b9)\n        /* \"#utility.yul\":12994:12996   */\n      0x60\n        /* \"#utility.yul\":12979:12997   */\n      dup3\n      add\n        /* \"#utility.yul\":12972:13007   */\n      mstore\n        /* \"#utility.yul\":13039:13042   */\n      0x80\n        /* \"#utility.yul\":13024:13043   */\n      add\n      swap1\n        /* \"#utility.yul\":12648:13049   */\n      jump\t// out\n        /* \"#utility.yul\":14892:15306   */\n    tag_295:\n        /* \"#utility.yul\":15094:15096   */\n      0x20\n        /* \"#utility.yul\":15076:15097   */\n      dup1\n      dup3\n      mstore\n        /* \"#utility.yul\":15133:15135   */\n      0x32\n        /* \"#utility.yul\":15113:15131   */\n      swap1\n      dup3\n      add\n        /* \"#utility.yul\":15106:15136   */\n      mstore\n        /* \"#utility.yul\":15172:15206   */\n      0x4552433732313a207472616e7366657220746f206e6f6e204552433732315265\n        /* \"#utility.yul\":15167:15169   */\n      0x40\n        /* \"#utility.yul\":15152:15170   */\n      dup3\n      add\n        /* \"#utility.yul\":15145:15207   */\n      mstore\n      shl(0x71, 0x31b2b4bb32b91034b6b83632b6b2b73a32b9)\n        /* \"#utility.yul\":15238:15240   */\n      0x60\n        /* \"#utility.yul\":15223:15241   */\n      dup3\n      add\n        /* \"#utility.yul\":15216:15264   */\n      mstore\n        /* \"#utility.yul\":15296:15299   */\n      0x80\n        /* \"#utility.yul\":15281:15300   */\n      add\n      swap1\n        /* \"#utility.yul\":14892:15306   */\n      jump\t// out\n        /* \"#utility.yul\":15311:15800   */\n    tag_320:\n      sub(shl(0xa0, 0x01), 0x01)\n        /* \"#utility.yul\":15580:15595   */\n      dup6\n      dup2\n      and\n        /* \"#utility.yul\":15562:15596   */\n      dup3\n      mstore\n        /* \"#utility.yul\":15632:15647   */\n      dup5\n      and\n        /* \"#utility.yul\":15627:15629   */\n      0x20\n        /* \"#utility.yul\":15612:15630   */\n      dup3\n      add\n        /* \"#utility.yul\":15605:15648   */\n      mstore\n        /* \"#utility.yul\":15679:15681   */\n      0x40\n        /* \"#utility.yul\":15664:15682   */\n      dup2\n      add\n        /* \"#utility.yul\":15657:15691   */\n      dup4\n      swap1\n      mstore\n        /* \"#utility.yul\":15727:15730   */\n      0x80\n        /* \"#utility.yul\":15722:15724   */\n      0x60\n        /* \"#utility.yul\":15707:15725   */\n      dup3\n      add\n        /* \"#utility.yul\":15700:15731   */\n      dup2\n      swap1\n      mstore\n        /* \"#utility.yul\":15505:15509   */\n      0x00\n      swap1\n        /* \"#utility.yul\":15748:15794   */\n      tag_483\n      swap1\n        /* \"#utility.yul\":15774:15793   */\n      dup4\n      add\n        /* \"#utility.yul\":15766:15772   */\n      dup5\n        /* \"#utility.yul\":15748:15794   */\n      tag_358\n      jump\t// in\n    tag_483:\n        /* \"#utility.yul\":15740:15794   */\n      swap7\n        /* \"#utility.yul\":15311:15800   */\n      swap6\n      pop\n      pop\n      pop\n      pop\n      pop\n      pop\n      jump\t// out\n        /* \"#utility.yul\":15805:16054   */\n    tag_323:\n        /* \"#utility.yul\":15874:15880   */\n      0x00\n        /* \"#utility.yul\":15927:15929   */\n      0x20\n        /* \"#utility.yul\":15915:15924   */\n      dup3\n        /* \"#utility.yul\":15906:15913   */\n      dup5\n        /* \"#utility.yul\":15902:15925   */\n      sub\n        /* \"#utility.yul\":15898:15930   */\n      slt\n        /* \"#utility.yul\":15895:15947   */\n      iszero\n      tag_485\n      jumpi\n        /* \"#utility.yul\":15943:15944   */\n      0x00\n        /* \"#utility.yul\":15940:15941   */\n      dup1\n        /* \"#utility.yul\":15933:15945   */\n      revert\n        /* \"#utility.yul\":15895:15947   */\n    tag_485:\n        /* \"#utility.yul\":15975:15984   */\n      dup2\n        /* \"#utility.yul\":15969:15985   */\n      mload\n        /* \"#utility.yul\":15994:16024   */\n      tag_220\n        /* \"#utility.yul\":16018:16023   */\n      dup2\n        /* \"#utility.yul\":15994:16024   */\n      tag_356\n      jump\t// in\n\n    auxdata: 0xa2646970667358221220e7a2a48ac3e8e9e8f856ab9c4de71d20a599698eebac52ce07f40469acdeaabf64736f6c63430008120033\n}\n",
				"bytecode": {
					"linkReferences": {},
					"object": "60806040523480156200001157600080fd5b5060405162001cb338038062001cb3833981016040819052620000349162000151565b60405180604001604052806005815260200164135e53919560da1b815250604051806040016040528060048152602001631353919560e21b81525081600090816200008091906200022e565b5060016200008f82826200022e565b505050620000ac620000a6620000de60201b60201c565b620000e2565b600980546001600160a01b039384166001600160a01b031991821617909155600a8054929093169116179055620002fa565b3390565b600680546001600160a01b038381166001600160a01b0319831681179093556040519116919082907f8be0079c531659141344cd1fd0a4f28419497f9722a3daafe3b4186f6b6457e090600090a35050565b80516001600160a01b03811681146200014c57600080fd5b919050565b600080604083850312156200016557600080fd5b620001708362000134565b9150620001806020840162000134565b90509250929050565b634e487b7160e01b600052604160045260246000fd5b600181811c90821680620001b457607f821691505b602082108103620001d557634e487b7160e01b600052602260045260246000fd5b50919050565b601f8211156200022957600081815260208120601f850160051c81016020861015620002045750805b601f850160051c820191505b81811015620002255782815560010162000210565b5050505b505050565b81516001600160401b038111156200024a576200024a62000189565b62000262816200025b84546200019f565b84620001db565b602080601f8311600181146200029a5760008415620002815750858301515b600019600386901b1c1916600185901b17855562000225565b600085815260208120601f198616915b82811015620002cb57888601518255948401946001909101908401620002aa565b5085821015620002ea5787850151600019600388901b60f8161c191681555b5050505050600190811b01905550565b6119a9806200030a6000396000f3fe608060405234801561001057600080fd5b50600436106101365760003560e01c806364b30907116100b8578063a22cb4651161007c578063a22cb46514610285578063b88d4fde14610298578063c87b56dd146102ab578063d4698016146102be578063e985e9c5146102d1578063f2fde38b146102e457600080fd5b806364b309071461023e57806370a0823114610251578063715018a6146102645780638da5cb5b1461026c57806395d89b411461027d57600080fd5b806323b872dd116100ff57806323b872dd146101cf578063265aa621146101e257806342842e0e146102055780634626402b146102185780636352211e1461022b57600080fd5b80629a9b7b1461013b57806301ffc9a71461015757806306fdde031461017a578063081812fc1461018f578063095ea7b3146101ba575b600080fd5b61014460075481565b6040519081526020015b60405180910390f35b61016a6101653660046112d5565b6102f7565b604051901515815260200161014e565b610182610349565b60405161014e9190611342565b6101a261019d366004611355565b6103db565b6040516001600160a01b03909116815260200161014e565b6101cd6101c836600461138a565b610402565b005b6101cd6101dd3660046113b4565b61051c565b6101f56101f0366004611355565b61054d565b60405161014e94939291906113f0565b6101cd6102133660046113b4565b61068f565b600a546101a2906001600160a01b031681565b6101a2610239366004611355565b6106aa565b6101cd61024c3660046114e3565b61070a565b61014461025f366004611550565b610880565b6101cd610906565b6006546001600160a01b03166101a2565b61018261091a565b6101cd61029336600461156b565b610929565b6101cd6102a63660046115a7565b610938565b6101826102b9366004611355565b610970565b6009546101a2906001600160a01b031681565b61016a6102df366004611623565b6109e4565b6101cd6102f2366004611550565b610a12565b60006001600160e01b031982166380ac58cd60e01b148061032857506001600160e01b03198216635b5e139f60e01b145b8061034357506301ffc9a760e01b6001600160e01b03198316145b92915050565b60606000805461035890611656565b80601f016020809104026020016040519081016040528092919081815260200182805461038490611656565b80156103d15780601f106103a6576101008083540402835291602001916103d1565b820191906000526020600020905b8154815290600101906020018083116103b457829003601f168201915b5050505050905090565b60006103e682610a8b565b506000908152600460205260409020546001600160a01b031690565b600061040d826106aa565b9050806001600160a01b0316836001600160a01b03160361047f5760405162461bcd60e51b815260206004820152602160248201527f4552433732313a20617070726f76616c20746f2063757272656e74206f776e656044820152603960f91b60648201526084015b60405180910390fd5b336001600160a01b038216148061049b575061049b81336109e4565b61050d5760405162461bcd60e51b815260206004820152603d60248201527f4552433732313a20617070726f76652063616c6c6572206973206e6f7420746f60448201527f6b656e206f776e6572206f7220617070726f76656420666f7220616c6c0000006064820152608401610476565b6105178383610aea565b505050565b6105263382610b58565b6105425760405162461bcd60e51b815260040161047690611690565b610517838383610bb7565b60086020526000908152604090208054819061056890611656565b80601f016020809104026020016040519081016040528092919081815260200182805461059490611656565b80156105e15780601f106105b6576101008083540402835291602001916105e1565b820191906000526020600020905b8154815290600101906020018083116105c457829003601f168201915b5050505050908060010180546105f690611656565b80601f016020809104026020016040519081016040528092919081815260200182805461062290611656565b801561066f5780601f106106445761010080835404028352916020019161066f565b820191906000526020600020905b81548152906001019060200180831161065257829003601f168201915b5050505060028301546003909301549192916001600160a01b0316905084565b61051783838360405180602001604052806000815250610938565b6000818152600260205260408120546001600160a01b0316806103435760405162461bcd60e51b8152602060048201526018602482015277115490cdcc8c4e881a5b9d985b1a59081d1bdad95b88125160421b6044820152606401610476565b6007805490600061071a836116f3565b909155505060075461072c3382610d1b565b604080516080810182528581526020808201869052818301859052336060830152600084815260089091529190912081518190610769908261175a565b506020820151600182019061077e908261175a565b5060408201516002820155606090910151600390910180546001600160a01b0319166001600160a01b03909216919091179055600060646107c084600a61181a565b6107ca9190611831565b90506000600a6107db83600661181a565b6107e59190611831565b90506000600a6107f684600461181a565b6108009190611831565b600a546040519192506001600160a01b03169083156108fc029084906000818181858888f1935050505015801561083b573d6000803e3d6000fd5b506009546040516001600160a01b039091169082156108fc029083906000818181858888f19350505050158015610876573d6000803e3d6000fd5b5050505050505050565b60006001600160a01b0382166108ea5760405162461bcd60e51b815260206004820152602960248201527f4552433732313a2061646472657373207a65726f206973206e6f7420612076616044820152683634b21037bbb732b960b91b6064820152608401610476565b506001600160a01b031660009081526003602052604090205490565b61090e610ea6565b6109186000610f00565b565b60606001805461035890611656565b610934338383610f52565b5050565b6109423383610b58565b61095e5760405162461bcd60e51b815260040161047690611690565b61096a84848484611020565b50505050565b606061097b82610a8b565b600061099260408051602081019091526000815290565b905060008151116109b257604051806020016040528060008152506109dd565b806109bc84611053565b6040516020016109cd929190611853565b6040516020818303038152906040525b9392505050565b6001600160a01b03918216600090815260056020908152604080832093909416825291909152205460ff1690565b610a1a610ea6565b6001600160a01b038116610a7f5760405162461bcd60e51b815260206004820152602660248201527f4f776e61626c653a206e6577206f776e657220697320746865207a65726f206160448201526564647265737360d01b6064820152608401610476565b610a8881610f00565b50565b6000818152600260205260409020546001600160a01b0316610a885760405162461bcd60e51b8152602060048201526018602482015277115490cdcc8c4e881a5b9d985b1a59081d1bdad95b88125160421b6044820152606401610476565b600081815260046020526040902080546001600160a01b0319166001600160a01b0384169081179091558190610b1f826106aa565b6001600160a01b03167f8c5be1e5ebec7d5bd14f71427d1e84f3dd0314c0f7b2291e5b200ac8c7c3b92560405160405180910390a45050565b600080610b64836106aa565b9050806001600160a01b0316846001600160a01b03161480610b8b5750610b8b81856109e4565b80610baf5750836001600160a01b0316610ba4846103db565b6001600160a01b0316145b949350505050565b826001600160a01b0316610bca826106aa565b6001600160a01b031614610bf05760405162461bcd60e51b815260040161047690611882565b6001600160a01b038216610c525760405162461bcd60e51b8152602060048201526024808201527f4552433732313a207472616e7366657220746f20746865207a65726f206164646044820152637265737360e01b6064820152608401610476565b826001600160a01b0316610c65826106aa565b6001600160a01b031614610c8b5760405162461bcd60e51b815260040161047690611882565b600081815260046020908152604080832080546001600160a01b03199081169091556001600160a01b0387811680865260038552838620805460001901905590871680865283862080546001019055868652600290945282852080549092168417909155905184937fddf252ad1be2c89b69c2b068fc378daa952ba7f163c4a11628f55a4df523b3ef91a4505050565b6001600160a01b038216610d715760405162461bcd60e51b815260206004820181905260248201527f4552433732313a206d696e7420746f20746865207a65726f20616464726573736044820152606401610476565b6000818152600260205260409020546001600160a01b031615610dd65760405162461bcd60e51b815260206004820152601c60248201527f4552433732313a20746f6b656e20616c7265616479206d696e746564000000006044820152606401610476565b6000818152600260205260409020546001600160a01b031615610e3b5760405162461bcd60e51b815260206004820152601c60248201527f4552433732313a20746f6b656e20616c7265616479206d696e746564000000006044820152606401610476565b6001600160a01b038216600081815260036020908152604080832080546001019055848352600290915280822080546001600160a01b0319168417905551839291907fddf252ad1be2c89b69c2b068fc378daa952ba7f163c4a11628f55a4df523b3ef908290a45050565b6006546001600160a01b031633146109185760405162461bcd60e51b815260206004820181905260248201527f4f776e61626c653a2063616c6c6572206973206e6f7420746865206f776e65726044820152606401610476565b600680546001600160a01b038381166001600160a01b0319831681179093556040519116919082907f8be0079c531659141344cd1fd0a4f28419497f9722a3daafe3b4186f6b6457e090600090a35050565b816001600160a01b0316836001600160a01b031603610fb35760405162461bcd60e51b815260206004820152601960248201527f4552433732313a20617070726f766520746f2063616c6c6572000000000000006044820152606401610476565b6001600160a01b03838116600081815260056020908152604080832094871680845294825291829020805460ff191686151590811790915591519182527f17307eab39ab6107e8899845ad3d59bd9653f200f220920489ca2b5937696c31910160405180910390a3505050565b61102b848484610bb7565b611037848484846110e6565b61096a5760405162461bcd60e51b8152600401610476906118c7565b60606000611060836111e7565b600101905060008167ffffffffffffffff81111561108057611080611437565b6040519080825280601f01601f1916602001820160405280156110aa576020820181803683370190505b5090508181016020015b600019016f181899199a1a9b1b9c1cb0b131b232b360811b600a86061a8153600a85049450846110b457509392505050565b60006001600160a01b0384163b156111dc57604051630a85bd0160e11b81526001600160a01b0385169063150b7a029061112a903390899088908890600401611919565b6020604051808303816000875af1925050508015611165575060408051601f3d908101601f1916820190925261116291810190611956565b60015b6111c2573d808015611193576040519150601f19603f3d011682016040523d82523d6000602084013e611198565b606091505b5080516000036111ba5760405162461bcd60e51b8152600401610476906118c7565b805181602001fd5b6001600160e01b031916630a85bd0160e11b149050610baf565b506001949350505050565b60008072184f03e93ff9f4daa797ed6e38ed64bf6a1f0160401b83106112265772184f03e93ff9f4daa797ed6e38ed64bf6a1f0160401b830492506040015b6d04ee2d6d415b85acef81000000008310611252576d04ee2d6d415b85acef8100000000830492506020015b662386f26fc10000831061127057662386f26fc10000830492506010015b6305f5e1008310611288576305f5e100830492506008015b612710831061129c57612710830492506004015b606483106112ae576064830492506002015b600a83106103435760010192915050565b6001600160e01b031981168114610a8857600080fd5b6000602082840312156112e757600080fd5b81356109dd816112bf565b60005b8381101561130d5781810151838201526020016112f5565b50506000910152565b6000815180845261132e8160208601602086016112f2565b601f01601f19169290920160200192915050565b6020815260006109dd6020830184611316565b60006020828403121561136757600080fd5b5035919050565b80356001600160a01b038116811461138557600080fd5b919050565b6000806040838503121561139d57600080fd5b6113a68361136e565b946020939093013593505050565b6000806000606084860312156113c957600080fd5b6113d28461136e565b92506113e06020850161136e565b9150604084013590509250925092565b6080815260006114036080830187611316565b82810360208401526114158187611316565b604084019590955250506001600160a01b039190911660609091015292915050565b634e487b7160e01b600052604160045260246000fd5b600067ffffffffffffffff8084111561146857611468611437565b604051601f8501601f19908116603f0116810190828211818310171561149057611490611437565b816040528093508581528686860111156114a957600080fd5b858560208301376000602087830101525050509392505050565b600082601f8301126114d457600080fd5b6109dd8383356020850161144d565b6000806000606084860312156114f857600080fd5b833567ffffffffffffffff8082111561151057600080fd5b61151c878388016114c3565b9450602086013591508082111561153257600080fd5b5061153f868287016114c3565b925050604084013590509250925092565b60006020828403121561156257600080fd5b6109dd8261136e565b6000806040838503121561157e57600080fd5b6115878361136e565b91506020830135801515811461159c57600080fd5b809150509250929050565b600080600080608085870312156115bd57600080fd5b6115c68561136e565b93506115d46020860161136e565b925060408501359150606085013567ffffffffffffffff8111156115f757600080fd5b8501601f8101871361160857600080fd5b6116178782356020840161144d565b91505092959194509250565b6000806040838503121561163657600080fd5b61163f8361136e565b915061164d6020840161136e565b90509250929050565b600181811c9082168061166a57607f821691505b60208210810361168a57634e487b7160e01b600052602260045260246000fd5b50919050565b6020808252602d908201527f4552433732313a2063616c6c6572206973206e6f7420746f6b656e206f776e6560408201526c1c881bdc88185c1c1c9bdd9959609a1b606082015260800190565b634e487b7160e01b600052601160045260246000fd5b600060018201611705576117056116dd565b5060010190565b601f82111561051757600081815260208120601f850160051c810160208610156117335750805b601f850160051c820191505b818110156117525782815560010161173f565b505050505050565b815167ffffffffffffffff81111561177457611774611437565b611788816117828454611656565b8461170c565b602080601f8311600181146117bd57600084156117a55750858301515b600019600386901b1c1916600185901b178555611752565b600085815260208120601f198616915b828110156117ec578886015182559484019460019091019084016117cd565b508582101561180a5787850151600019600388901b60f8161c191681555b5050505050600190811b01905550565b8082028115828204841417610343576103436116dd565b60008261184e57634e487b7160e01b600052601260045260246000fd5b500490565b600083516118658184602088016112f2565b8351908301906118798183602088016112f2565b01949350505050565b60208082526025908201527f4552433732313a207472616e736665722066726f6d20696e636f72726563742060408201526437bbb732b960d91b606082015260800190565b60208082526032908201527f4552433732313a207472616e7366657220746f206e6f6e20455243373231526560408201527131b2b4bb32b91034b6b83632b6b2b73a32b960711b606082015260800190565b6001600160a01b038581168252841660208201526040810183905260806060820181905260009061194c90830184611316565b9695505050505050565b60006020828403121561196857600080fd5b81516109dd816112bf56fea2646970667358221220e7a2a48ac3e8e9e8f856ab9c4de71d20a599698eebac52ce07f40469acdeaabf64736f6c63430008120033",
					"opcodes": "PUSH1 0x80 PUSH1 0x40 MSTORE CALLVALUE DUP1 ISZERO PUSH3 0x11 JUMPI PUSH1 0x0 DUP1 REVERT JUMPDEST POP PUSH1 0x40 MLOAD PUSH3 0x1CB3 CODESIZE SUB DUP1 PUSH3 0x1CB3 DUP4 CODECOPY DUP2 ADD PUSH1 0x40 DUP2 SWAP1 MSTORE PUSH3 0x34 SWAP2 PUSH3 0x151 JUMP JUMPDEST PUSH1 0x40 MLOAD DUP1 PUSH1 0x40 ADD PUSH1 0x40 MSTORE DUP1 PUSH1 0x5 DUP2 MSTORE PUSH1 0x20 ADD PUSH5 0x135E539195 PUSH1 0xDA SHL DUP2 MSTORE POP PUSH1 0x40 MLOAD DUP1 PUSH1 0x40 ADD PUSH1 0x40 MSTORE DUP1 PUSH1 0x4 DUP2 MSTORE PUSH1 0x20 ADD PUSH4 0x13539195 PUSH1 0xE2 SHL DUP2 MSTORE POP DUP2 PUSH1 0x0 SWAP1 DUP2 PUSH3 0x80 SWAP2 SWAP1 PUSH3 0x22E JUMP JUMPDEST POP PUSH1 0x1 PUSH3 0x8F DUP3 DUP3 PUSH3 0x22E JUMP JUMPDEST POP POP POP PUSH3 0xAC PUSH3 0xA6 PUSH3 0xDE PUSH1 0x20 SHL PUSH1 0x20 SHR JUMP JUMPDEST PUSH3 0xE2 JUMP JUMPDEST PUSH1 0x9 DUP1 SLOAD PUSH1 0x1 PUSH1 0x1 PUSH1 0xA0 SHL SUB SWAP4 DUP5 AND PUSH1 0x1 PUSH1 0x1 PUSH1 0xA0 SHL SUB NOT SWAP2 DUP3 AND OR SWAP1 SWAP2 SSTORE PUSH1 0xA DUP1 SLOAD SWAP3 SWAP1 SWAP4 AND SWAP2 AND OR SWAP1 SSTORE PUSH3 0x2FA JUMP JUMPDEST CALLER SWAP1 JUMP JUMPDEST PUSH1 0x6 DUP1 SLOAD PUSH1 0x1 PUSH1 0x1 PUSH1 0xA0 SHL SUB DUP4 DUP2 AND PUSH1 0x1 PUSH1 0x1 PUSH1 0xA0 SHL SUB NOT DUP4 AND DUP2 OR SWAP1 SWAP4 SSTORE PUSH1 0x40 MLOAD SWAP2 AND SWAP2 SWAP1 DUP3 SWAP1 PUSH32 0x8BE0079C531659141344CD1FD0A4F28419497F9722A3DAAFE3B4186F6B6457E0 SWAP1 PUSH1 0x0 SWAP1 LOG3 POP POP JUMP JUMPDEST DUP1 MLOAD PUSH1 0x1 PUSH1 0x1 PUSH1 0xA0 SHL SUB DUP2 AND DUP2 EQ PUSH3 0x14C JUMPI PUSH1 0x0 DUP1 REVERT JUMPDEST SWAP2 SWAP1 POP JUMP JUMPDEST PUSH1 0x0 DUP1 PUSH1 0x40 DUP4 DUP6 SUB SLT ISZERO PUSH3 0x165 JUMPI PUSH1 0x0 DUP1 REVERT JUMPDEST PUSH3 0x170 DUP4 PUSH3 0x134 JUMP JUMPDEST SWAP2 POP PUSH3 0x180 PUSH1 0x20 DUP5 ADD PUSH3 0x134 JUMP JUMPDEST SWAP1 POP SWAP3 POP SWAP3 SWAP1 POP JUMP JUMPDEST PUSH4 0x4E487B71 PUSH1 0xE0 SHL PUSH1 0x0 MSTORE PUSH1 0x41 PUSH1 0x4 MSTORE PUSH1 0x24 PUSH1 0x0 REVERT JUMPDEST PUSH1 0x1 DUP2 DUP2 SHR SWAP1 DUP3 AND DUP1 PUSH3 0x1B4 JUMPI PUSH1 0x7F DUP3 AND SWAP2 POP JUMPDEST PUSH1 0x20 DUP3 LT DUP2 SUB PUSH3 0x1D5 JUMPI PUSH4 0x4E487B71 PUSH1 0xE0 SHL PUSH1 0x0 MSTORE PUSH1 0x22 PUSH1 0x4 MSTORE PUSH1 0x24 PUSH1 0x0 REVERT JUMPDEST POP SWAP2 SWAP1 POP JUMP JUMPDEST PUSH1 0x1F DUP3 GT ISZERO PUSH3 0x229 JUMPI PUSH1 0x0 DUP2 DUP2 MSTORE PUSH1 0x20 DUP2 KECCAK256 PUSH1 0x1F DUP6 ADD PUSH1 0x5 SHR DUP2 ADD PUSH1 0x20 DUP7 LT ISZERO PUSH3 0x204 JUMPI POP DUP1 JUMPDEST PUSH1 0x1F DUP6 ADD PUSH1 0x5 SHR DUP3 ADD SWAP2 POP JUMPDEST DUP2 DUP2 LT ISZERO PUSH3 0x225 JUMPI DUP3 DUP2 SSTORE PUSH1 0x1 ADD PUSH3 0x210 JUMP JUMPDEST POP POP POP JUMPDEST POP POP POP JUMP JUMPDEST DUP2 MLOAD PUSH1 0x1 PUSH1 0x1 PUSH1 0x40 SHL SUB DUP2 GT ISZERO PUSH3 0x24A JUMPI PUSH3 0x24A PUSH3 0x189 JUMP JUMPDEST PUSH3 0x262 DUP2 PUSH3 0x25B DUP5 SLOAD PUSH3 0x19F JUMP JUMPDEST DUP5 PUSH3 0x1DB JUMP JUMPDEST PUSH1 0x20 DUP1 PUSH1 0x1F DUP4 GT PUSH1 0x1 DUP2 EQ PUSH3 0x29A JUMPI PUSH1 0x0 DUP5 ISZERO PUSH3 0x281 JUMPI POP DUP6 DUP4 ADD MLOAD JUMPDEST PUSH1 0x0 NOT PUSH1 0x3 DUP7 SWAP1 SHL SHR NOT AND PUSH1 0x1 DUP6 SWAP1 SHL OR DUP6 SSTORE PUSH3 0x225 JUMP JUMPDEST PUSH1 0x0 DUP6 DUP2 MSTORE PUSH1 0x20 DUP2 KECCAK256 PUSH1 0x1F NOT DUP7 AND SWAP2 JUMPDEST DUP3 DUP2 LT ISZERO PUSH3 0x2CB JUMPI DUP9 DUP7 ADD MLOAD DUP3 SSTORE SWAP5 DUP5 ADD SWAP5 PUSH1 0x1 SWAP1 SWAP2 ADD SWAP1 DUP5 ADD PUSH3 0x2AA JUMP JUMPDEST POP DUP6 DUP3 LT ISZERO PUSH3 0x2EA JUMPI DUP8 DUP6 ADD MLOAD PUSH1 0x0 NOT PUSH1 0x3 DUP9 SWAP1 SHL PUSH1 0xF8 AND SHR NOT AND DUP2 SSTORE JUMPDEST POP POP POP POP POP PUSH1 0x1 SWAP1 DUP2 SHL ADD SWAP1 SSTORE POP JUMP JUMPDEST PUSH2 0x19A9 DUP1 PUSH3 0x30A PUSH1 0x0 CODECOPY PUSH1 0x0 RETURN INVALID PUSH1 0x80 PUSH1 0x40 MSTORE CALLVALUE DUP1 ISZERO PUSH2 0x10 JUMPI PUSH1 0x0 DUP1 REVERT JUMPDEST POP PUSH1 0x4 CALLDATASIZE LT PUSH2 0x136 JUMPI PUSH1 0x0 CALLDATALOAD PUSH1 0xE0 SHR DUP1 PUSH4 0x64B30907 GT PUSH2 0xB8 JUMPI DUP1 PUSH4 0xA22CB465 GT PUSH2 0x7C JUMPI DUP1 PUSH4 0xA22CB465 EQ PUSH2 0x285 JUMPI DUP1 PUSH4 0xB88D4FDE EQ PUSH2 0x298 JUMPI DUP1 PUSH4 0xC87B56DD EQ PUSH2 0x2AB JUMPI DUP1 PUSH4 0xD4698016 EQ PUSH2 0x2BE JUMPI DUP1 PUSH4 0xE985E9C5 EQ PUSH2 0x2D1 JUMPI DUP1 PUSH4 0xF2FDE38B EQ PUSH2 0x2E4 JUMPI PUSH1 0x0 DUP1 REVERT JUMPDEST DUP1 PUSH4 0x64B30907 EQ PUSH2 0x23E JUMPI DUP1 PUSH4 0x70A08231 EQ PUSH2 0x251 JUMPI DUP1 PUSH4 0x715018A6 EQ PUSH2 0x264 JUMPI DUP1 PUSH4 0x8DA5CB5B EQ PUSH2 0x26C JUMPI DUP1 PUSH4 0x95D89B41 EQ PUSH2 0x27D JUMPI PUSH1 0x0 DUP1 REVERT JUMPDEST DUP1 PUSH4 0x23B872DD GT PUSH2 0xFF JUMPI DUP1 PUSH4 0x23B872DD EQ PUSH2 0x1CF JUMPI DUP1 PUSH4 0x265AA621 EQ PUSH2 0x1E2 JUMPI DUP1 PUSH4 0x42842E0E EQ PUSH2 0x205 JUMPI DUP1 PUSH4 0x4626402B EQ PUSH2 0x218 JUMPI DUP1 PUSH4 0x6352211E EQ PUSH2 0x22B JUMPI PUSH1 0x0 DUP1 REVERT JUMPDEST DUP1 PUSH3 0x9A9B7B EQ PUSH2 0x13B JUMPI DUP1 PUSH4 0x1FFC9A7 EQ PUSH2 0x157 JUMPI DUP1 PUSH4 0x6FDDE03 EQ PUSH2 0x17A JUMPI DUP1 PUSH4 0x81812FC EQ PUSH2 0x18F JUMPI DUP1 PUSH4 0x95EA7B3 EQ PUSH2 0x1BA JUMPI JUMPDEST PUSH1 0x0 DUP1 REVERT JUMPDEST PUSH2 0x144 PUSH1 0x7 SLOAD DUP2 JUMP JUMPDEST PUSH1 0x40 MLOAD SWAP1 DUP2 MSTORE PUSH1 0x20 ADD JUMPDEST PUSH1 0x40 MLOAD DUP1 SWAP2 SUB SWAP1 RETURN JUMPDEST PUSH2 0x16A PUSH2 0x165 CALLDATASIZE PUSH1 0x4 PUSH2 0x12D5 JUMP JUMPDEST PUSH2 0x2F7 JUMP JUMPDEST PUSH1 0x40 MLOAD SWAP1 ISZERO ISZERO DUP2 MSTORE PUSH1 0x20 ADD PUSH2 0x14E JUMP JUMPDEST PUSH2 0x182 PUSH2 0x349 JUMP JUMPDEST PUSH1 0x40 MLOAD PUSH2 0x14E SWAP2 SWAP1 PUSH2 0x1342 JUMP JUMPDEST PUSH2 0x1A2 PUSH2 0x19D CALLDATASIZE PUSH1 0x4 PUSH2 0x1355 JUMP JUMPDEST PUSH2 0x3DB JUMP JUMPDEST PUSH1 0x40 MLOAD PUSH1 0x1 PUSH1 0x1 PUSH1 0xA0 SHL SUB SWAP1 SWAP2 AND DUP2 MSTORE PUSH1 0x20 ADD PUSH2 0x14E JUMP JUMPDEST PUSH2 0x1CD PUSH2 0x1C8 CALLDATASIZE PUSH1 0x4 PUSH2 0x138A JUMP JUMPDEST PUSH2 0x402 JUMP JUMPDEST STOP JUMPDEST PUSH2 0x1CD PUSH2 0x1DD CALLDATASIZE PUSH1 0x4 PUSH2 0x13B4 JUMP JUMPDEST PUSH2 0x51C JUMP JUMPDEST PUSH2 0x1F5 PUSH2 0x1F0 CALLDATASIZE PUSH1 0x4 PUSH2 0x1355 JUMP JUMPDEST PUSH2 0x54D JUMP JUMPDEST PUSH1 0x40 MLOAD PUSH2 0x14E SWAP5 SWAP4 SWAP3 SWAP2 SWAP1 PUSH2 0x13F0 JUMP JUMPDEST PUSH2 0x1CD PUSH2 0x213 CALLDATASIZE PUSH1 0x4 PUSH2 0x13B4 JUMP JUMPDEST PUSH2 0x68F JUMP JUMPDEST PUSH1 0xA SLOAD PUSH2 0x1A2 SWAP1 PUSH1 0x1 PUSH1 0x1 PUSH1 0xA0 SHL SUB AND DUP2 JUMP JUMPDEST PUSH2 0x1A2 PUSH2 0x239 CALLDATASIZE PUSH1 0x4 PUSH2 0x1355 JUMP JUMPDEST PUSH2 0x6AA JUMP JUMPDEST PUSH2 0x1CD PUSH2 0x24C CALLDATASIZE PUSH1 0x4 PUSH2 0x14E3 JUMP JUMPDEST PUSH2 0x70A JUMP JUMPDEST PUSH2 0x144 PUSH2 0x25F CALLDATASIZE PUSH1 0x4 PUSH2 0x1550 JUMP JUMPDEST PUSH2 0x880 JUMP JUMPDEST PUSH2 0x1CD PUSH2 0x906 JUMP JUMPDEST PUSH1 0x6 SLOAD PUSH1 0x1 PUSH1 0x1 PUSH1 0xA0 SHL SUB AND PUSH2 0x1A2 JUMP JUMPDEST PUSH2 0x182 PUSH2 0x91A JUMP JUMPDEST PUSH2 0x1CD PUSH2 0x293 CALLDATASIZE PUSH1 0x4 PUSH2 0x156B JUMP JUMPDEST PUSH2 0x929 JUMP JUMPDEST PUSH2 0x1CD PUSH2 0x2A6 CALLDATASIZE PUSH1 0x4 PUSH2 0x15A7 JUMP JUMPDEST PUSH2 0x938 JUMP JUMPDEST PUSH2 0x182 PUSH2 0x2B9 CALLDATASIZE PUSH1 0x4 PUSH2 0x1355 JUMP JUMPDEST PUSH2 0x970 JUMP JUMPDEST PUSH1 0x9 SLOAD PUSH2 0x1A2 SWAP1 PUSH1 0x1 PUSH1 0x1 PUSH1 0xA0 SHL SUB AND DUP2 JUMP JUMPDEST PUSH2 0x16A PUSH2 0x2DF CALLDATASIZE PUSH1 0x4 PUSH2 0x1623 JUMP JUMPDEST PUSH2 0x9E4 JUMP JUMPDEST PUSH2 0x1CD PUSH2 0x2F2 CALLDATASIZE PUSH1 0x4 PUSH2 0x1550 JUMP JUMPDEST PUSH2 0xA12 JUMP JUMPDEST PUSH1 0x0 PUSH1 0x1 PUSH1 0x1 PUSH1 0xE0 SHL SUB NOT DUP3 AND PUSH4 0x80AC58CD PUSH1 0xE0 SHL EQ DUP1 PUSH2 0x328 JUMPI POP PUSH1 0x1 PUSH1 0x1 PUSH1 0xE0 SHL SUB NOT DUP3 AND PUSH4 0x5B5E139F PUSH1 0xE0 SHL EQ JUMPDEST DUP1 PUSH2 0x343 JUMPI POP PUSH4 0x1FFC9A7 PUSH1 0xE0 SHL PUSH1 0x1 PUSH1 0x1 PUSH1 0xE0 SHL SUB NOT DUP4 AND EQ JUMPDEST SWAP3 SWAP2 POP POP JUMP JUMPDEST PUSH1 0x60 PUSH1 0x0 DUP1 SLOAD PUSH2 0x358 SWAP1 PUSH2 0x1656 JUMP JUMPDEST DUP1 PUSH1 0x1F ADD PUSH1 0x20 DUP1 SWAP2 DIV MUL PUSH1 0x20 ADD PUSH1 0x40 MLOAD SWAP1 DUP2 ADD PUSH1 0x40 MSTORE DUP1 SWAP3 SWAP2 SWAP1 DUP2 DUP2 MSTORE PUSH1 0x20 ADD DUP3 DUP1 SLOAD PUSH2 0x384 SWAP1 PUSH2 0x1656 JUMP JUMPDEST DUP1 ISZERO PUSH2 0x3D1 JUMPI DUP1 PUSH1 0x1F LT PUSH2 0x3A6 JUMPI PUSH2 0x100 DUP1 DUP4 SLOAD DIV MUL DUP4 MSTORE SWAP2 PUSH1 0x20 ADD SWAP2 PUSH2 0x3D1 JUMP JUMPDEST DUP3 ADD SWAP2 SWAP1 PUSH1 0x0 MSTORE PUSH1 0x20 PUSH1 0x0 KECCAK256 SWAP1 JUMPDEST DUP2 SLOAD DUP2 MSTORE SWAP1 PUSH1 0x1 ADD SWAP1 PUSH1 0x20 ADD DUP1 DUP4 GT PUSH2 0x3B4 JUMPI DUP3 SWAP1 SUB PUSH1 0x1F AND DUP3 ADD SWAP2 JUMPDEST POP POP POP POP POP SWAP1 POP SWAP1 JUMP JUMPDEST PUSH1 0x0 PUSH2 0x3E6 DUP3 PUSH2 0xA8B JUMP JUMPDEST POP PUSH1 0x0 SWAP1 DUP2 MSTORE PUSH1 0x4 PUSH1 0x20 MSTORE PUSH1 0x40 SWAP1 KECCAK256 SLOAD PUSH1 0x1 PUSH1 0x1 PUSH1 0xA0 SHL SUB AND SWAP1 JUMP JUMPDEST PUSH1 0x0 PUSH2 0x40D DUP3 PUSH2 0x6AA JUMP JUMPDEST SWAP1 POP DUP1 PUSH1 0x1 PUSH1 0x1 PUSH1 0xA0 SHL SUB AND DUP4 PUSH1 0x1 PUSH1 0x1 PUSH1 0xA0 SHL SUB AND SUB PUSH2 0x47F JUMPI PUSH1 0x40 MLOAD PUSH3 0x461BCD PUSH1 0xE5 SHL DUP2 MSTORE PUSH1 0x20 PUSH1 0x4 DUP3 ADD MSTORE PUSH1 0x21 PUSH1 0x24 DUP3 ADD MSTORE PUSH32 0x4552433732313A20617070726F76616C20746F2063757272656E74206F776E65 PUSH1 0x44 DUP3 ADD MSTORE PUSH1 0x39 PUSH1 0xF9 SHL PUSH1 0x64 DUP3 ADD MSTORE PUSH1 0x84 ADD JUMPDEST PUSH1 0x40 MLOAD DUP1 SWAP2 SUB SWAP1 REVERT JUMPDEST CALLER PUSH1 0x1 PUSH1 0x1 PUSH1 0xA0 SHL SUB DUP3 AND EQ DUP1 PUSH2 0x49B JUMPI POP PUSH2 0x49B DUP2 CALLER PUSH2 0x9E4 JUMP JUMPDEST PUSH2 0x50D JUMPI PUSH1 0x40 MLOAD PUSH3 0x461BCD PUSH1 0xE5 SHL DUP2 MSTORE PUSH1 0x20 PUSH1 0x4 DUP3 ADD MSTORE PUSH1 0x3D PUSH1 0x24 DUP3 ADD MSTORE PUSH32 0x4552433732313A20617070726F76652063616C6C6572206973206E6F7420746F PUSH1 0x44 DUP3 ADD MSTORE PUSH32 0x6B656E206F776E6572206F7220617070726F76656420666F7220616C6C000000 PUSH1 0x64 DUP3 ADD MSTORE PUSH1 0x84 ADD PUSH2 0x476 JUMP JUMPDEST PUSH2 0x517 DUP4 DUP4 PUSH2 0xAEA JUMP JUMPDEST POP POP POP JUMP JUMPDEST PUSH2 0x526 CALLER DUP3 PUSH2 0xB58 JUMP JUMPDEST PUSH2 0x542 JUMPI PUSH1 0x40 MLOAD PUSH3 0x461BCD PUSH1 0xE5 SHL DUP2 MSTORE PUSH1 0x4 ADD PUSH2 0x476 SWAP1 PUSH2 0x1690 JUMP JUMPDEST PUSH2 0x517 DUP4 DUP4 DUP4 PUSH2 0xBB7 JUMP JUMPDEST PUSH1 0x8 PUSH1 0x20 MSTORE PUSH1 0x0 SWAP1 DUP2 MSTORE PUSH1 0x40 SWAP1 KECCAK256 DUP1 SLOAD DUP2 SWAP1 PUSH2 0x568 SWAP1 PUSH2 0x1656 JUMP JUMPDEST DUP1 PUSH1 0x1F ADD PUSH1 0x20 DUP1 SWAP2 DIV MUL PUSH1 0x20 ADD PUSH1 0x40 MLOAD SWAP1 DUP2 ADD PUSH1 0x40 MSTORE DUP1 SWAP3 SWAP2 SWAP1 DUP2 DUP2 MSTORE PUSH1 0x20 ADD DUP3 DUP1 SLOAD PUSH2 0x594 SWAP1 PUSH2 0x1656 JUMP JUMPDEST DUP1 ISZERO PUSH2 0x5E1 JUMPI DUP1 PUSH1 0x1F LT PUSH2 0x5B6 JUMPI PUSH2 0x100 DUP1 DUP4 SLOAD DIV MUL DUP4 MSTORE SWAP2 PUSH1 0x20 ADD SWAP2 PUSH2 0x5E1 JUMP JUMPDEST DUP3 ADD SWAP2 SWAP1 PUSH1 0x0 MSTORE PUSH1 0x20 PUSH1 0x0 KECCAK256 SWAP1 JUMPDEST DUP2 SLOAD DUP2 MSTORE SWAP1 PUSH1 0x1 ADD SWAP1 PUSH1 0x20 ADD DUP1 DUP4 GT PUSH2 0x5C4 JUMPI DUP3 SWAP1 SUB PUSH1 0x1F AND DUP3 ADD SWAP2 JUMPDEST POP POP POP POP POP SWAP1 DUP1 PUSH1 0x1 ADD DUP1 SLOAD PUSH2 0x5F6 SWAP1 PUSH2 0x1656 JUMP JUMPDEST DUP1 PUSH1 0x1F ADD PUSH1 0x20 DUP1 SWAP2 DIV MUL PUSH1 0x20 ADD PUSH1 0x40 MLOAD SWAP1 DUP2 ADD PUSH1 0x40 MSTORE DUP1 SWAP3 SWAP2 SWAP1 DUP2 DUP2 MSTORE PUSH1 0x20 ADD DUP3 DUP1 SLOAD PUSH2 0x622 SWAP1 PUSH2 0x1656 JUMP JUMPDEST DUP1 ISZERO PUSH2 0x66F JUMPI DUP1 PUSH1 0x1F LT PUSH2 0x644 JUMPI PUSH2 0x100 DUP1 DUP4 SLOAD DIV MUL DUP4 MSTORE SWAP2 PUSH1 0x20 ADD SWAP2 PUSH2 0x66F JUMP JUMPDEST DUP3 ADD SWAP2 SWAP1 PUSH1 0x0 MSTORE PUSH1 0x20 PUSH1 0x0 KECCAK256 SWAP1 JUMPDEST DUP2 SLOAD DUP2 MSTORE SWAP1 PUSH1 0x1 ADD SWAP1 PUSH1 0x20 ADD DUP1 DUP4 GT PUSH2 0x652 JUMPI DUP3 SWAP1 SUB PUSH1 0x1F AND DUP3 ADD SWAP2 JUMPDEST POP POP POP POP PUSH1 0x2 DUP4 ADD SLOAD PUSH1 0x3 SWAP1 SWAP4 ADD SLOAD SWAP2 SWAP3 SWAP2 PUSH1 0x1 PUSH1 0x1 PUSH1 0xA0 SHL SUB AND SWAP1 POP DUP5 JUMP JUMPDEST PUSH2 0x517 DUP4 DUP4 DUP4 PUSH1 0x40 MLOAD DUP1 PUSH1 0x20 ADD PUSH1 0x40 MSTORE DUP1 PUSH1 0x0 DUP2 MSTORE POP PUSH2 0x938 JUMP JUMPDEST PUSH1 0x0 DUP2 DUP2 MSTORE PUSH1 0x2 PUSH1 0x20 MSTORE PUSH1 0x40 DUP2 KECCAK256 SLOAD PUSH1 0x1 PUSH1 0x1 PUSH1 0xA0 SHL SUB AND DUP1 PUSH2 0x343 JUMPI PUSH1 0x40 MLOAD PUSH3 0x461BCD PUSH1 0xE5 SHL DUP2 MSTORE PUSH1 0x20 PUSH1 0x4 DUP3 ADD MSTORE PUSH1 0x18 PUSH1 0x24 DUP3 ADD MSTORE PUSH24 0x115490CDCC8C4E881A5B9D985B1A59081D1BDAD95B881251 PUSH1 0x42 SHL PUSH1 0x44 DUP3 ADD MSTORE PUSH1 0x64 ADD PUSH2 0x476 JUMP JUMPDEST PUSH1 0x7 DUP1 SLOAD SWAP1 PUSH1 0x0 PUSH2 0x71A DUP4 PUSH2 0x16F3 JUMP JUMPDEST SWAP1 SWAP2 SSTORE POP POP PUSH1 0x7 SLOAD PUSH2 0x72C CALLER DUP3 PUSH2 0xD1B JUMP JUMPDEST PUSH1 0x40 DUP1 MLOAD PUSH1 0x80 DUP2 ADD DUP3 MSTORE DUP6 DUP2 MSTORE PUSH1 0x20 DUP1 DUP3 ADD DUP7 SWAP1 MSTORE DUP2 DUP4 ADD DUP6 SWAP1 MSTORE CALLER PUSH1 0x60 DUP4 ADD MSTORE PUSH1 0x0 DUP5 DUP2 MSTORE PUSH1 0x8 SWAP1 SWAP2 MSTORE SWAP2 SWAP1 SWAP2 KECCAK256 DUP2 MLOAD DUP2 SWAP1 PUSH2 0x769 SWAP1 DUP3 PUSH2 0x175A JUMP JUMPDEST POP PUSH1 0x20 DUP3 ADD MLOAD PUSH1 0x1 DUP3 ADD SWAP1 PUSH2 0x77E SWAP1 DUP3 PUSH2 0x175A JUMP JUMPDEST POP PUSH1 0x40 DUP3 ADD MLOAD PUSH1 0x2 DUP3 ADD SSTORE PUSH1 0x60 SWAP1 SWAP2 ADD MLOAD PUSH1 0x3 SWAP1 SWAP2 ADD DUP1 SLOAD PUSH1 0x1 PUSH1 0x1 PUSH1 0xA0 SHL SUB NOT AND PUSH1 0x1 PUSH1 0x1 PUSH1 0xA0 SHL SUB SWAP1 SWAP3 AND SWAP2 SWAP1 SWAP2 OR SWAP1 SSTORE PUSH1 0x0 PUSH1 0x64 PUSH2 0x7C0 DUP5 PUSH1 0xA PUSH2 0x181A JUMP JUMPDEST PUSH2 0x7CA SWAP2 SWAP1 PUSH2 0x1831 JUMP JUMPDEST SWAP1 POP PUSH1 0x0 PUSH1 0xA PUSH2 0x7DB DUP4 PUSH1 0x6 PUSH2 0x181A JUMP JUMPDEST PUSH2 0x7E5 SWAP2 SWAP1 PUSH2 0x1831 JUMP JUMPDEST SWAP1 POP PUSH1 0x0 PUSH1 0xA PUSH2 0x7F6 DUP5 PUSH1 0x4 PUSH2 0x181A JUMP JUMPDEST PUSH2 0x800 SWAP2 SWAP1 PUSH2 0x1831 JUMP JUMPDEST PUSH1 0xA SLOAD PUSH1 0x40 MLOAD SWAP2 SWAP3 POP PUSH1 0x1 PUSH1 0x1 PUSH1 0xA0 SHL SUB AND SWAP1 DUP4 ISZERO PUSH2 0x8FC MUL SWAP1 DUP5 SWAP1 PUSH1 0x0 DUP2 DUP2 DUP2 DUP6 DUP9 DUP9 CALL SWAP4 POP POP POP POP ISZERO DUP1 ISZERO PUSH2 0x83B JUMPI RETURNDATASIZE PUSH1 0x0 DUP1 RETURNDATACOPY RETURNDATASIZE PUSH1 0x0 REVERT JUMPDEST POP PUSH1 0x9 SLOAD PUSH1 0x40 MLOAD PUSH1 0x1 PUSH1 0x1 PUSH1 0xA0 SHL SUB SWAP1 SWAP2 AND SWAP1 DUP3 ISZERO PUSH2 0x8FC MUL SWAP1 DUP4 SWAP1 PUSH1 0x0 DUP2 DUP2 DUP2 DUP6 DUP9 DUP9 CALL SWAP4 POP POP POP POP ISZERO DUP1 ISZERO PUSH2 0x876 JUMPI RETURNDATASIZE PUSH1 0x0 DUP1 RETURNDATACOPY RETURNDATASIZE PUSH1 0x0 REVERT JUMPDEST POP POP POP POP POP POP POP POP JUMP JUMPDEST PUSH1 0x0 PUSH1 0x1 PUSH1 0x1 PUSH1 0xA0 SHL SUB DUP3 AND PUSH2 0x8EA JUMPI PUSH1 0x40 MLOAD PUSH3 0x461BCD PUSH1 0xE5 SHL DUP2 MSTORE PUSH1 0x20 PUSH1 0x4 DUP3 ADD MSTORE PUSH1 0x29 PUSH1 0x24 DUP3 ADD MSTORE PUSH32 0x4552433732313A2061646472657373207A65726F206973206E6F742061207661 PUSH1 0x44 DUP3 ADD MSTORE PUSH9 0x3634B21037BBB732B9 PUSH1 0xB9 SHL PUSH1 0x64 DUP3 ADD MSTORE PUSH1 0x84 ADD PUSH2 0x476 JUMP JUMPDEST POP PUSH1 0x1 PUSH1 0x1 PUSH1 0xA0 SHL SUB AND PUSH1 0x0 SWAP1 DUP2 MSTORE PUSH1 0x3 PUSH1 0x20 MSTORE PUSH1 0x40 SWAP1 KECCAK256 SLOAD SWAP1 JUMP JUMPDEST PUSH2 0x90E PUSH2 0xEA6 JUMP JUMPDEST PUSH2 0x918 PUSH1 0x0 PUSH2 0xF00 JUMP JUMPDEST JUMP JUMPDEST PUSH1 0x60 PUSH1 0x1 DUP1 SLOAD PUSH2 0x358 SWAP1 PUSH2 0x1656 JUMP JUMPDEST PUSH2 0x934 CALLER DUP4 DUP4 PUSH2 0xF52 JUMP JUMPDEST POP POP JUMP JUMPDEST PUSH2 0x942 CALLER DUP4 PUSH2 0xB58 JUMP JUMPDEST PUSH2 0x95E JUMPI PUSH1 0x40 MLOAD PUSH3 0x461BCD PUSH1 0xE5 SHL DUP2 MSTORE PUSH1 0x4 ADD PUSH2 0x476 SWAP1 PUSH2 0x1690 JUMP JUMPDEST PUSH2 0x96A DUP5 DUP5 DUP5 DUP5 PUSH2 0x1020 JUMP JUMPDEST POP POP POP POP JUMP JUMPDEST PUSH1 0x60 PUSH2 0x97B DUP3 PUSH2 0xA8B JUMP JUMPDEST PUSH1 0x0 PUSH2 0x992 PUSH1 0x40 DUP1 MLOAD PUSH1 0x20 DUP2 ADD SWAP1 SWAP2 MSTORE PUSH1 0x0 DUP2 MSTORE SWAP1 JUMP JUMPDEST SWAP1 POP PUSH1 0x0 DUP2 MLOAD GT PUSH2 0x9B2 JUMPI PUSH1 0x40 MLOAD DUP1 PUSH1 0x20 ADD PUSH1 0x40 MSTORE DUP1 PUSH1 0x0 DUP2 MSTORE POP PUSH2 0x9DD JUMP JUMPDEST DUP1 PUSH2 0x9BC DUP5 PUSH2 0x1053 JUMP JUMPDEST PUSH1 0x40 MLOAD PUSH1 0x20 ADD PUSH2 0x9CD SWAP3 SWAP2 SWAP1 PUSH2 0x1853 JUMP JUMPDEST PUSH1 0x40 MLOAD PUSH1 0x20 DUP2 DUP4 SUB SUB DUP2 MSTORE SWAP1 PUSH1 0x40 MSTORE JUMPDEST SWAP4 SWAP3 POP POP POP JUMP JUMPDEST PUSH1 0x1 PUSH1 0x1 PUSH1 0xA0 SHL SUB SWAP2 DUP3 AND PUSH1 0x0 SWAP1 DUP2 MSTORE PUSH1 0x5 PUSH1 0x20 SWAP1 DUP2 MSTORE PUSH1 0x40 DUP1 DUP4 KECCAK256 SWAP4 SWAP1 SWAP5 AND DUP3 MSTORE SWAP2 SWAP1 SWAP2 MSTORE KECCAK256 SLOAD PUSH1 0xFF AND SWAP1 JUMP JUMPDEST PUSH2 0xA1A PUSH2 0xEA6 JUMP JUMPDEST PUSH1 0x1 PUSH1 0x1 PUSH1 0xA0 SHL SUB DUP2 AND PUSH2 0xA7F JUMPI PUSH1 0x40 MLOAD PUSH3 0x461BCD PUSH1 0xE5 SHL DUP2 MSTORE PUSH1 0x20 PUSH1 0x4 DUP3 ADD MSTORE PUSH1 0x26 PUSH1 0x24 DUP3 ADD MSTORE PUSH32 0x4F776E61626C653A206E6577206F776E657220697320746865207A65726F2061 PUSH1 0x44 DUP3 ADD MSTORE PUSH6 0x646472657373 PUSH1 0xD0 SHL PUSH1 0x64 DUP3 ADD MSTORE PUSH1 0x84 ADD PUSH2 0x476 JUMP JUMPDEST PUSH2 0xA88 DUP2 PUSH2 0xF00 JUMP JUMPDEST POP JUMP JUMPDEST PUSH1 0x0 DUP2 DUP2 MSTORE PUSH1 0x2 PUSH1 0x20 MSTORE PUSH1 0x40 SWAP1 KECCAK256 SLOAD PUSH1 0x1 PUSH1 0x1 PUSH1 0xA0 SHL SUB AND PUSH2 0xA88 JUMPI PUSH1 0x40 MLOAD PUSH3 0x461BCD PUSH1 0xE5 SHL DUP2 MSTORE PUSH1 0x20 PUSH1 0x4 DUP3 ADD MSTORE PUSH1 0x18 PUSH1 0x24 DUP3 ADD MSTORE PUSH24 0x115490CDCC8C4E881A5B9D985B1A59081D1BDAD95B881251 PUSH1 0x42 SHL PUSH1 0x44 DUP3 ADD MSTORE PUSH1 0x64 ADD PUSH2 0x476 JUMP JUMPDEST PUSH1 0x0 DUP2 DUP2 MSTORE PUSH1 0x4 PUSH1 0x20 MSTORE PUSH1 0x40 SWAP1 KECCAK256 DUP1 SLOAD PUSH1 0x1 PUSH1 0x1 PUSH1 0xA0 SHL SUB NOT AND PUSH1 0x1 PUSH1 0x1 PUSH1 0xA0 SHL SUB DUP5 AND SWAP1 DUP2 OR SWAP1 SWAP2 SSTORE DUP2 SWAP1 PUSH2 0xB1F DUP3 PUSH2 0x6AA JUMP JUMPDEST PUSH1 0x1 PUSH1 0x1 PUSH1 0xA0 SHL SUB AND PUSH32 0x8C5BE1E5EBEC7D5BD14F71427D1E84F3DD0314C0F7B2291E5B200AC8C7C3B925 PUSH1 0x40 MLOAD PUSH1 0x40 MLOAD DUP1 SWAP2 SUB SWAP1 LOG4 POP POP JUMP JUMPDEST PUSH1 0x0 DUP1 PUSH2 0xB64 DUP4 PUSH2 0x6AA JUMP JUMPDEST SWAP1 POP DUP1 PUSH1 0x1 PUSH1 0x1 PUSH1 0xA0 SHL SUB AND DUP5 PUSH1 0x1 PUSH1 0x1 PUSH1 0xA0 SHL SUB AND EQ DUP1 PUSH2 0xB8B JUMPI POP PUSH2 0xB8B DUP2 DUP6 PUSH2 0x9E4 JUMP JUMPDEST DUP1 PUSH2 0xBAF JUMPI POP DUP4 PUSH1 0x1 PUSH1 0x1 PUSH1 0xA0 SHL SUB AND PUSH2 0xBA4 DUP5 PUSH2 0x3DB JUMP JUMPDEST PUSH1 0x1 PUSH1 0x1 PUSH1 0xA0 SHL SUB AND EQ JUMPDEST SWAP5 SWAP4 POP POP POP POP JUMP JUMPDEST DUP3 PUSH1 0x1 PUSH1 0x1 PUSH1 0xA0 SHL SUB AND PUSH2 0xBCA DUP3 PUSH2 0x6AA JUMP JUMPDEST PUSH1 0x1 PUSH1 0x1 PUSH1 0xA0 SHL SUB AND EQ PUSH2 0xBF0 JUMPI PUSH1 0x40 MLOAD PUSH3 0x461BCD PUSH1 0xE5 SHL DUP2 MSTORE PUSH1 0x4 ADD PUSH2 0x476 SWAP1 PUSH2 0x1882 JUMP JUMPDEST PUSH1 0x1 PUSH1 0x1 PUSH1 0xA0 SHL SUB DUP3 AND PUSH2 0xC52 JUMPI PUSH1 0x40 MLOAD PUSH3 0x461BCD PUSH1 0xE5 SHL DUP2 MSTORE PUSH1 0x20 PUSH1 0x4 DUP3 ADD MSTORE PUSH1 0x24 DUP1 DUP3 ADD MSTORE PUSH32 0x4552433732313A207472616E7366657220746F20746865207A65726F20616464 PUSH1 0x44 DUP3 ADD MSTORE PUSH4 0x72657373 PUSH1 0xE0 SHL PUSH1 0x64 DUP3 ADD MSTORE PUSH1 0x84 ADD PUSH2 0x476 JUMP JUMPDEST DUP3 PUSH1 0x1 PUSH1 0x1 PUSH1 0xA0 SHL SUB AND PUSH2 0xC65 DUP3 PUSH2 0x6AA JUMP JUMPDEST PUSH1 0x1 PUSH1 0x1 PUSH1 0xA0 SHL SUB AND EQ PUSH2 0xC8B JUMPI PUSH1 0x40 MLOAD PUSH3 0x461BCD PUSH1 0xE5 SHL DUP2 MSTORE PUSH1 0x4 ADD PUSH2 0x476 SWAP1 PUSH2 0x1882 JUMP JUMPDEST PUSH1 0x0 DUP2 DUP2 MSTORE PUSH1 0x4 PUSH1 0x20 SWAP1 DUP2 MSTORE PUSH1 0x40 DUP1 DUP4 KECCAK256 DUP1 SLOAD PUSH1 0x1 PUSH1 0x1 PUSH1 0xA0 SHL SUB NOT SWAP1 DUP2 AND SWAP1 SWAP2 SSTORE PUSH1 0x1 PUSH1 0x1 PUSH1 0xA0 SHL SUB DUP8 DUP2 AND DUP1 DUP7 MSTORE PUSH1 0x3 DUP6 MSTORE DUP4 DUP7 KECCAK256 DUP1 SLOAD PUSH1 0x0 NOT ADD SWAP1 SSTORE SWAP1 DUP8 AND DUP1 DUP7 MSTORE DUP4 DUP7 KECCAK256 DUP1 SLOAD PUSH1 0x1 ADD SWAP1 SSTORE DUP7 DUP7 MSTORE PUSH1 0x2 SWAP1 SWAP5 MSTORE DUP3 DUP6 KECCAK256 DUP1 SLOAD SWAP1 SWAP3 AND DUP5 OR SWAP1 SWAP2 SSTORE SWAP1 MLOAD DUP5 SWAP4 PUSH32 0xDDF252AD1BE2C89B69C2B068FC378DAA952BA7F163C4A11628F55A4DF523B3EF SWAP2 LOG4 POP POP POP JUMP JUMPDEST PUSH1 0x1 PUSH1 0x1 PUSH1 0xA0 SHL SUB DUP3 AND PUSH2 0xD71 JUMPI PUSH1 0x40 MLOAD PUSH3 0x461BCD PUSH1 0xE5 SHL DUP2 MSTORE PUSH1 0x20 PUSH1 0x4 DUP3 ADD DUP2 SWAP1 MSTORE PUSH1 0x24 DUP3 ADD MSTORE PUSH32 0x4552433732313A206D696E7420746F20746865207A65726F2061646472657373 PUSH1 0x44 DUP3 ADD MSTORE PUSH1 0x64 ADD PUSH2 0x476 JUMP JUMPDEST PUSH1 0x0 DUP2 DUP2 MSTORE PUSH1 0x2 PUSH1 0x20 MSTORE PUSH1 0x40 SWAP1 KECCAK256 SLOAD PUSH1 0x1 PUSH1 0x1 PUSH1 0xA0 SHL SUB AND ISZERO PUSH2 0xDD6 JUMPI PUSH1 0x40 MLOAD PUSH3 0x461BCD PUSH1 0xE5 SHL DUP2 MSTORE PUSH1 0x20 PUSH1 0x4 DUP3 ADD MSTORE PUSH1 0x1C PUSH1 0x24 DUP3 ADD MSTORE PUSH32 0x4552433732313A20746F6B656E20616C7265616479206D696E74656400000000 PUSH1 0x44 DUP3 ADD MSTORE PUSH1 0x64 ADD PUSH2 0x476 JUMP JUMPDEST PUSH1 0x0 DUP2 DUP2 MSTORE PUSH1 0x2 PUSH1 0x20 MSTORE PUSH1 0x40 SWAP1 KECCAK256 SLOAD PUSH1 0x1 PUSH1 0x1 PUSH1 0xA0 SHL SUB AND ISZERO PUSH2 0xE3B JUMPI PUSH1 0x40 MLOAD PUSH3 0x461BCD PUSH1 0xE5 SHL DUP2 MSTORE PUSH1 0x20 PUSH1 0x4 DUP3 ADD MSTORE PUSH1 0x1C PUSH1 0x24 DUP3 ADD MSTORE PUSH32 0x4552433732313A20746F6B656E20616C7265616479206D696E74656400000000 PUSH1 0x44 DUP3 ADD MSTORE PUSH1 0x64 ADD PUSH2 0x476 JUMP JUMPDEST PUSH1 0x1 PUSH1 0x1 PUSH1 0xA0 SHL SUB DUP3 AND PUSH1 0x0 DUP2 DUP2 MSTORE PUSH1 0x3 PUSH1 0x20 SWAP1 DUP2 MSTORE PUSH1 0x40 DUP1 DUP4 KECCAK256 DUP1 SLOAD PUSH1 0x1 ADD SWAP1 SSTORE DUP5 DUP4 MSTORE PUSH1 0x2 SWAP1 SWAP2 MSTORE DUP1 DUP3 KECCAK256 DUP1 SLOAD PUSH1 0x1 PUSH1 0x1 PUSH1 0xA0 SHL SUB NOT AND DUP5 OR SWAP1 SSTORE MLOAD DUP4 SWAP3 SWAP2 SWAP1 PUSH32 0xDDF252AD1BE2C89B69C2B068FC378DAA952BA7F163C4A11628F55A4DF523B3EF SWAP1 DUP3 SWAP1 LOG4 POP POP JUMP JUMPDEST PUSH1 0x6 SLOAD PUSH1 0x1 PUSH1 0x1 PUSH1 0xA0 SHL SUB AND CALLER EQ PUSH2 0x918 JUMPI PUSH1 0x40 MLOAD PUSH3 0x461BCD PUSH1 0xE5 SHL DUP2 MSTORE PUSH1 0x20 PUSH1 0x4 DUP3 ADD DUP2 SWAP1 MSTORE PUSH1 0x24 DUP3 ADD MSTORE PUSH32 0x4F776E61626C653A2063616C6C6572206973206E6F7420746865206F776E6572 PUSH1 0x44 DUP3 ADD MSTORE PUSH1 0x64 ADD PUSH2 0x476 JUMP JUMPDEST PUSH1 0x6 DUP1 SLOAD PUSH1 0x1 PUSH1 0x1 PUSH1 0xA0 SHL SUB DUP4 DUP2 AND PUSH1 0x1 PUSH1 0x1 PUSH1 0xA0 SHL SUB NOT DUP4 AND DUP2 OR SWAP1 SWAP4 SSTORE PUSH1 0x40 MLOAD SWAP2 AND SWAP2 SWAP1 DUP3 SWAP1 PUSH32 0x8BE0079C531659141344CD1FD0A4F28419497F9722A3DAAFE3B4186F6B6457E0 SWAP1 PUSH1 0x0 SWAP1 LOG3 POP POP JUMP JUMPDEST DUP2 PUSH1 0x1 PUSH1 0x1 PUSH1 0xA0 SHL SUB AND DUP4 PUSH1 0x1 PUSH1 0x1 PUSH1 0xA0 SHL SUB AND SUB PUSH2 0xFB3 JUMPI PUSH1 0x40 MLOAD PUSH3 0x461BCD PUSH1 0xE5 SHL DUP2 MSTORE PUSH1 0x20 PUSH1 0x4 DUP3 ADD MSTORE PUSH1 0x19 PUSH1 0x24 DUP3 ADD MSTORE PUSH32 0x4552433732313A20617070726F766520746F2063616C6C657200000000000000 PUSH1 0x44 DUP3 ADD MSTORE PUSH1 0x64 ADD PUSH2 0x476 JUMP JUMPDEST PUSH1 0x1 PUSH1 0x1 PUSH1 0xA0 SHL SUB DUP4 DUP2 AND PUSH1 0x0 DUP2 DUP2 MSTORE PUSH1 0x5 PUSH1 0x20 SWAP1 DUP2 MSTORE PUSH1 0x40 DUP1 DUP4 KECCAK256 SWAP5 DUP8 AND DUP1 DUP5 MSTORE SWAP5 DUP3 MSTORE SWAP2 DUP3 SWAP1 KECCAK256 DUP1 SLOAD PUSH1 0xFF NOT AND DUP7 ISZERO ISZERO SWAP1 DUP2 OR SWAP1 SWAP2 SSTORE SWAP2 MLOAD SWAP2 DUP3 MSTORE PUSH32 0x17307EAB39AB6107E8899845AD3D59BD9653F200F220920489CA2B5937696C31 SWAP2 ADD PUSH1 0x40 MLOAD DUP1 SWAP2 SUB SWAP1 LOG3 POP POP POP JUMP JUMPDEST PUSH2 0x102B DUP5 DUP5 DUP5 PUSH2 0xBB7 JUMP JUMPDEST PUSH2 0x1037 DUP5 DUP5 DUP5 DUP5 PUSH2 0x10E6 JUMP JUMPDEST PUSH2 0x96A JUMPI PUSH1 0x40 MLOAD PUSH3 0x461BCD PUSH1 0xE5 SHL DUP2 MSTORE PUSH1 0x4 ADD PUSH2 0x476 SWAP1 PUSH2 0x18C7 JUMP JUMPDEST PUSH1 0x60 PUSH1 0x0 PUSH2 0x1060 DUP4 PUSH2 0x11E7 JUMP JUMPDEST PUSH1 0x1 ADD SWAP1 POP PUSH1 0x0 DUP2 PUSH8 0xFFFFFFFFFFFFFFFF DUP2 GT ISZERO PUSH2 0x1080 JUMPI PUSH2 0x1080 PUSH2 0x1437 JUMP JUMPDEST PUSH1 0x40 MLOAD SWAP1 DUP1 DUP3 MSTORE DUP1 PUSH1 0x1F ADD PUSH1 0x1F NOT AND PUSH1 0x20 ADD DUP3 ADD PUSH1 0x40 MSTORE DUP1 ISZERO PUSH2 0x10AA JUMPI PUSH1 0x20 DUP3 ADD DUP2 DUP1 CALLDATASIZE DUP4 CALLDATACOPY ADD SWAP1 POP JUMPDEST POP SWAP1 POP DUP2 DUP2 ADD PUSH1 0x20 ADD JUMPDEST PUSH1 0x0 NOT ADD PUSH16 0x181899199A1A9B1B9C1CB0B131B232B3 PUSH1 0x81 SHL PUSH1 0xA DUP7 MOD BYTE DUP2 MSTORE8 PUSH1 0xA DUP6 DIV SWAP5 POP DUP5 PUSH2 0x10B4 JUMPI POP SWAP4 SWAP3 POP POP POP JUMP JUMPDEST PUSH1 0x0 PUSH1 0x1 PUSH1 0x1 PUSH1 0xA0 SHL SUB DUP5 AND EXTCODESIZE ISZERO PUSH2 0x11DC JUMPI PUSH1 0x40 MLOAD PUSH4 0xA85BD01 PUSH1 0xE1 SHL DUP2 MSTORE PUSH1 0x1 PUSH1 0x1 PUSH1 0xA0 SHL SUB DUP6 AND SWAP1 PUSH4 0x150B7A02 SWAP1 PUSH2 0x112A SWAP1 CALLER SWAP1 DUP10 SWAP1 DUP9 SWAP1 DUP9 SWAP1 PUSH1 0x4 ADD PUSH2 0x1919 JUMP JUMPDEST PUSH1 0x20 PUSH1 0x40 MLOAD DUP1 DUP4 SUB DUP2 PUSH1 0x0 DUP8 GAS CALL SWAP3 POP POP POP DUP1 ISZERO PUSH2 0x1165 JUMPI POP PUSH1 0x40 DUP1 MLOAD PUSH1 0x1F RETURNDATASIZE SWAP1 DUP2 ADD PUSH1 0x1F NOT AND DUP3 ADD SWAP1 SWAP3 MSTORE PUSH2 0x1162 SWAP2 DUP2 ADD SWAP1 PUSH2 0x1956 JUMP JUMPDEST PUSH1 0x1 JUMPDEST PUSH2 0x11C2 JUMPI RETURNDATASIZE DUP1 DUP1 ISZERO PUSH2 0x1193 JUMPI PUSH1 0x40 MLOAD SWAP2 POP PUSH1 0x1F NOT PUSH1 0x3F RETURNDATASIZE ADD AND DUP3 ADD PUSH1 0x40 MSTORE RETURNDATASIZE DUP3 MSTORE RETURNDATASIZE PUSH1 0x0 PUSH1 0x20 DUP5 ADD RETURNDATACOPY PUSH2 0x1198 JUMP JUMPDEST PUSH1 0x60 SWAP2 POP JUMPDEST POP DUP1 MLOAD PUSH1 0x0 SUB PUSH2 0x11BA JUMPI PUSH1 0x40 MLOAD PUSH3 0x461BCD PUSH1 0xE5 SHL DUP2 MSTORE PUSH1 0x4 ADD PUSH2 0x476 SWAP1 PUSH2 0x18C7 JUMP JUMPDEST DUP1 MLOAD DUP2 PUSH1 0x20 ADD REVERT JUMPDEST PUSH1 0x1 PUSH1 0x1 PUSH1 0xE0 SHL SUB NOT AND PUSH4 0xA85BD01 PUSH1 0xE1 SHL EQ SWAP1 POP PUSH2 0xBAF JUMP JUMPDEST POP PUSH1 0x1 SWAP5 SWAP4 POP POP POP POP JUMP JUMPDEST PUSH1 0x0 DUP1 PUSH19 0x184F03E93FF9F4DAA797ED6E38ED64BF6A1F01 PUSH1 0x40 SHL DUP4 LT PUSH2 0x1226 JUMPI PUSH19 0x184F03E93FF9F4DAA797ED6E38ED64BF6A1F01 PUSH1 0x40 SHL DUP4 DIV SWAP3 POP PUSH1 0x40 ADD JUMPDEST PUSH14 0x4EE2D6D415B85ACEF8100000000 DUP4 LT PUSH2 0x1252 JUMPI PUSH14 0x4EE2D6D415B85ACEF8100000000 DUP4 DIV SWAP3 POP PUSH1 0x20 ADD JUMPDEST PUSH7 0x2386F26FC10000 DUP4 LT PUSH2 0x1270 JUMPI PUSH7 0x2386F26FC10000 DUP4 DIV SWAP3 POP PUSH1 0x10 ADD JUMPDEST PUSH4 0x5F5E100 DUP4 LT PUSH2 0x1288 JUMPI PUSH4 0x5F5E100 DUP4 DIV SWAP3 POP PUSH1 0x8 ADD JUMPDEST PUSH2 0x2710 DUP4 LT PUSH2 0x129C JUMPI PUSH2 0x2710 DUP4 DIV SWAP3 POP PUSH1 0x4 ADD JUMPDEST PUSH1 0x64 DUP4 LT PUSH2 0x12AE JUMPI PUSH1 0x64 DUP4 DIV SWAP3 POP PUSH1 0x2 ADD JUMPDEST PUSH1 0xA DUP4 LT PUSH2 0x343 JUMPI PUSH1 0x1 ADD SWAP3 SWAP2 POP POP JUMP JUMPDEST PUSH1 0x1 PUSH1 0x1 PUSH1 0xE0 SHL SUB NOT DUP2 AND DUP2 EQ PUSH2 0xA88 JUMPI PUSH1 0x0 DUP1 REVERT JUMPDEST PUSH1 0x0 PUSH1 0x20 DUP3 DUP5 SUB SLT ISZERO PUSH2 0x12E7 JUMPI PUSH1 0x0 DUP1 REVERT JUMPDEST DUP2 CALLDATALOAD PUSH2 0x9DD DUP2 PUSH2 0x12BF JUMP JUMPDEST PUSH1 0x0 JUMPDEST DUP4 DUP2 LT ISZERO PUSH2 0x130D JUMPI DUP2 DUP2 ADD MLOAD DUP4 DUP3 ADD MSTORE PUSH1 0x20 ADD PUSH2 0x12F5 JUMP JUMPDEST POP POP PUSH1 0x0 SWAP2 ADD MSTORE JUMP JUMPDEST PUSH1 0x0 DUP2 MLOAD DUP1 DUP5 MSTORE PUSH2 0x132E DUP2 PUSH1 0x20 DUP7 ADD PUSH1 0x20 DUP7 ADD PUSH2 0x12F2 JUMP JUMPDEST PUSH1 0x1F ADD PUSH1 0x1F NOT AND SWAP3 SWAP1 SWAP3 ADD PUSH1 0x20 ADD SWAP3 SWAP2 POP POP JUMP JUMPDEST PUSH1 0x20 DUP2 MSTORE PUSH1 0x0 PUSH2 0x9DD PUSH1 0x20 DUP4 ADD DUP5 PUSH2 0x1316 JUMP JUMPDEST PUSH1 0x0 PUSH1 0x20 DUP3 DUP5 SUB SLT ISZERO PUSH2 0x1367 JUMPI PUSH1 0x0 DUP1 REVERT JUMPDEST POP CALLDATALOAD SWAP2 SWAP1 POP JUMP JUMPDEST DUP1 CALLDATALOAD PUSH1 0x1 PUSH1 0x1 PUSH1 0xA0 SHL SUB DUP2 AND DUP2 EQ PUSH2 0x1385 JUMPI PUSH1 0x0 DUP1 REVERT JUMPDEST SWAP2 SWAP1 POP JUMP JUMPDEST PUSH1 0x0 DUP1 PUSH1 0x40 DUP4 DUP6 SUB SLT ISZERO PUSH2 0x139D JUMPI PUSH1 0x0 DUP1 REVERT JUMPDEST PUSH2 0x13A6 DUP4 PUSH2 0x136E JUMP JUMPDEST SWAP5 PUSH1 0x20 SWAP4 SWAP1 SWAP4 ADD CALLDATALOAD SWAP4 POP POP POP JUMP JUMPDEST PUSH1 0x0 DUP1 PUSH1 0x0 PUSH1 0x60 DUP5 DUP7 SUB SLT ISZERO PUSH2 0x13C9 JUMPI PUSH1 0x0 DUP1 REVERT JUMPDEST PUSH2 0x13D2 DUP5 PUSH2 0x136E JUMP JUMPDEST SWAP3 POP PUSH2 0x13E0 PUSH1 0x20 DUP6 ADD PUSH2 0x136E JUMP JUMPDEST SWAP2 POP PUSH1 0x40 DUP5 ADD CALLDATALOAD SWAP1 POP SWAP3 POP SWAP3 POP SWAP3 JUMP JUMPDEST PUSH1 0x80 DUP2 MSTORE PUSH1 0x0 PUSH2 0x1403 PUSH1 0x80 DUP4 ADD DUP8 PUSH2 0x1316 JUMP JUMPDEST DUP3 DUP2 SUB PUSH1 0x20 DUP5 ADD MSTORE PUSH2 0x1415 DUP2 DUP8 PUSH2 0x1316 JUMP JUMPDEST PUSH1 0x40 DUP5 ADD SWAP6 SWAP1 SWAP6 MSTORE POP POP PUSH1 0x1 PUSH1 0x1 PUSH1 0xA0 SHL SUB SWAP2 SWAP1 SWAP2 AND PUSH1 0x60 SWAP1 SWAP2 ADD MSTORE SWAP3 SWAP2 POP POP JUMP JUMPDEST PUSH4 0x4E487B71 PUSH1 0xE0 SHL PUSH1 0x0 MSTORE PUSH1 0x41 PUSH1 0x4 MSTORE PUSH1 0x24 PUSH1 0x0 REVERT JUMPDEST PUSH1 0x0 PUSH8 0xFFFFFFFFFFFFFFFF DUP1 DUP5 GT ISZERO PUSH2 0x1468 JUMPI PUSH2 0x1468 PUSH2 0x1437 JUMP JUMPDEST PUSH1 0x40 MLOAD PUSH1 0x1F DUP6 ADD PUSH1 0x1F NOT SWAP1 DUP2 AND PUSH1 0x3F ADD AND DUP2 ADD SWAP1 DUP3 DUP3 GT DUP2 DUP4 LT OR ISZERO PUSH2 0x1490 JUMPI PUSH2 0x1490 PUSH2 0x1437 JUMP JUMPDEST DUP2 PUSH1 0x40 MSTORE DUP1 SWAP4 POP DUP6 DUP2 MSTORE DUP7 DUP7 DUP7 ADD GT ISZERO PUSH2 0x14A9 JUMPI PUSH1 0x0 DUP1 REVERT JUMPDEST DUP6 DUP6 PUSH1 0x20 DUP4 ADD CALLDATACOPY PUSH1 0x0 PUSH1 0x20 DUP8 DUP4 ADD ADD MSTORE POP POP POP SWAP4 SWAP3 POP POP POP JUMP JUMPDEST PUSH1 0x0 DUP3 PUSH1 0x1F DUP4 ADD SLT PUSH2 0x14D4 JUMPI PUSH1 0x0 DUP1 REVERT JUMPDEST PUSH2 0x9DD DUP4 DUP4 CALLDATALOAD PUSH1 0x20 DUP6 ADD PUSH2 0x144D JUMP JUMPDEST PUSH1 0x0 DUP1 PUSH1 0x0 PUSH1 0x60 DUP5 DUP7 SUB SLT ISZERO PUSH2 0x14F8 JUMPI PUSH1 0x0 DUP1 REVERT JUMPDEST DUP4 CALLDATALOAD PUSH8 0xFFFFFFFFFFFFFFFF DUP1 DUP3 GT ISZERO PUSH2 0x1510 JUMPI PUSH1 0x0 DUP1 REVERT JUMPDEST PUSH2 0x151C DUP8 DUP4 DUP9 ADD PUSH2 0x14C3 JUMP JUMPDEST SWAP5 POP PUSH1 0x20 DUP7 ADD CALLDATALOAD SWAP2 POP DUP1 DUP3 GT ISZERO PUSH2 0x1532 JUMPI PUSH1 0x0 DUP1 REVERT JUMPDEST POP PUSH2 0x153F DUP7 DUP3 DUP8 ADD PUSH2 0x14C3 JUMP JUMPDEST SWAP3 POP POP PUSH1 0x40 DUP5 ADD CALLDATALOAD SWAP1 POP SWAP3 POP SWAP3 POP SWAP3 JUMP JUMPDEST PUSH1 0x0 PUSH1 0x20 DUP3 DUP5 SUB SLT ISZERO PUSH2 0x1562 JUMPI PUSH1 0x0 DUP1 REVERT JUMPDEST PUSH2 0x9DD DUP3 PUSH2 0x136E JUMP JUMPDEST PUSH1 0x0 DUP1 PUSH1 0x40 DUP4 DUP6 SUB SLT ISZERO PUSH2 0x157E JUMPI PUSH1 0x0 DUP1 REVERT JUMPDEST PUSH2 0x1587 DUP4 PUSH2 0x136E JUMP JUMPDEST SWAP2 POP PUSH1 0x20 DUP4 ADD CALLDATALOAD DUP1 ISZERO ISZERO DUP2 EQ PUSH2 0x159C JUMPI PUSH1 0x0 DUP1 REVERT JUMPDEST DUP1 SWAP2 POP POP SWAP3 POP SWAP3 SWAP1 POP JUMP JUMPDEST PUSH1 0x0 DUP1 PUSH1 0x0 DUP1 PUSH1 0x80 DUP6 DUP8 SUB SLT ISZERO PUSH2 0x15BD JUMPI PUSH1 0x0 DUP1 REVERT JUMPDEST PUSH2 0x15C6 DUP6 PUSH2 0x136E JUMP JUMPDEST SWAP4 POP PUSH2 0x15D4 PUSH1 0x20 DUP7 ADD PUSH2 0x136E JUMP JUMPDEST SWAP3 POP PUSH1 0x40 DUP6 ADD CALLDATALOAD SWAP2 POP PUSH1 0x60 DUP6 ADD CALLDATALOAD PUSH8 0xFFFFFFFFFFFFFFFF DUP2 GT ISZERO PUSH2 0x15F7 JUMPI PUSH1 0x0 DUP1 REVERT JUMPDEST DUP6 ADD PUSH1 0x1F DUP2 ADD DUP8 SGT PUSH2 0x1608 JUMPI PUSH1 0x0 DUP1 REVERT JUMPDEST PUSH2 0x1617 DUP8 DUP3 CALLDATALOAD PUSH1 0x20 DUP5 ADD PUSH2 0x144D JUMP JUMPDEST SWAP2 POP POP SWAP3 SWAP6 SWAP2 SWAP5 POP SWAP3 POP JUMP JUMPDEST PUSH1 0x0 DUP1 PUSH1 0x40 DUP4 DUP6 SUB SLT ISZERO PUSH2 0x1636 JUMPI PUSH1 0x0 DUP1 REVERT JUMPDEST PUSH2 0x163F DUP4 PUSH2 0x136E JUMP JUMPDEST SWAP2 POP PUSH2 0x164D PUSH1 0x20 DUP5 ADD PUSH2 0x136E JUMP JUMPDEST SWAP1 POP SWAP3 POP SWAP3 SWAP1 POP JUMP JUMPDEST PUSH1 0x1 DUP2 DUP2 SHR SWAP1 DUP3 AND DUP1 PUSH2 0x166A JUMPI PUSH1 0x7F DUP3 AND SWAP2 POP JUMPDEST PUSH1 0x20 DUP3 LT DUP2 SUB PUSH2 0x168A JUMPI PUSH4 0x4E487B71 PUSH1 0xE0 SHL PUSH1 0x0 MSTORE PUSH1 0x22 PUSH1 0x4 MSTORE PUSH1 0x24 PUSH1 0x0 REVERT JUMPDEST POP SWAP2 SWAP1 POP JUMP JUMPDEST PUSH1 0x20 DUP1 DUP3 MSTORE PUSH1 0x2D SWAP1 DUP3 ADD MSTORE PUSH32 0x4552433732313A2063616C6C6572206973206E6F7420746F6B656E206F776E65 PUSH1 0x40 DUP3 ADD MSTORE PUSH13 0x1C881BDC88185C1C1C9BDD9959 PUSH1 0x9A SHL PUSH1 0x60 DUP3 ADD MSTORE PUSH1 0x80 ADD SWAP1 JUMP JUMPDEST PUSH4 0x4E487B71 PUSH1 0xE0 SHL PUSH1 0x0 MSTORE PUSH1 0x11 PUSH1 0x4 MSTORE PUSH1 0x24 PUSH1 0x0 REVERT JUMPDEST PUSH1 0x0 PUSH1 0x1 DUP3 ADD PUSH2 0x1705 JUMPI PUSH2 0x1705 PUSH2 0x16DD JUMP JUMPDEST POP PUSH1 0x1 ADD SWAP1 JUMP JUMPDEST PUSH1 0x1F DUP3 GT ISZERO PUSH2 0x517 JUMPI PUSH1 0x0 DUP2 DUP2 MSTORE PUSH1 0x20 DUP2 KECCAK256 PUSH1 0x1F DUP6 ADD PUSH1 0x5 SHR DUP2 ADD PUSH1 0x20 DUP7 LT ISZERO PUSH2 0x1733 JUMPI POP DUP1 JUMPDEST PUSH1 0x1F DUP6 ADD PUSH1 0x5 SHR DUP3 ADD SWAP2 POP JUMPDEST DUP2 DUP2 LT ISZERO PUSH2 0x1752 JUMPI DUP3 DUP2 SSTORE PUSH1 0x1 ADD PUSH2 0x173F JUMP JUMPDEST POP POP POP POP POP POP JUMP JUMPDEST DUP2 MLOAD PUSH8 0xFFFFFFFFFFFFFFFF DUP2 GT ISZERO PUSH2 0x1774 JUMPI PUSH2 0x1774 PUSH2 0x1437 JUMP JUMPDEST PUSH2 0x1788 DUP2 PUSH2 0x1782 DUP5 SLOAD PUSH2 0x1656 JUMP JUMPDEST DUP5 PUSH2 0x170C JUMP JUMPDEST PUSH1 0x20 DUP1 PUSH1 0x1F DUP4 GT PUSH1 0x1 DUP2 EQ PUSH2 0x17BD JUMPI PUSH1 0x0 DUP5 ISZERO PUSH2 0x17A5 JUMPI POP DUP6 DUP4 ADD MLOAD JUMPDEST PUSH1 0x0 NOT PUSH1 0x3 DUP7 SWAP1 SHL SHR NOT AND PUSH1 0x1 DUP6 SWAP1 SHL OR DUP6 SSTORE PUSH2 0x1752 JUMP JUMPDEST PUSH1 0x0 DUP6 DUP2 MSTORE PUSH1 0x20 DUP2 KECCAK256 PUSH1 0x1F NOT DUP7 AND SWAP2 JUMPDEST DUP3 DUP2 LT ISZERO PUSH2 0x17EC JUMPI DUP9 DUP7 ADD MLOAD DUP3 SSTORE SWAP5 DUP5 ADD SWAP5 PUSH1 0x1 SWAP1 SWAP2 ADD SWAP1 DUP5 ADD PUSH2 0x17CD JUMP JUMPDEST POP DUP6 DUP3 LT ISZERO PUSH2 0x180A JUMPI DUP8 DUP6 ADD MLOAD PUSH1 0x0 NOT PUSH1 0x3 DUP9 SWAP1 SHL PUSH1 0xF8 AND SHR NOT AND DUP2 SSTORE JUMPDEST POP POP POP POP POP PUSH1 0x1 SWAP1 DUP2 SHL ADD SWAP1 SSTORE POP JUMP JUMPDEST DUP1 DUP3 MUL DUP2 ISZERO DUP3 DUP3 DIV DUP5 EQ OR PUSH2 0x343 JUMPI PUSH2 0x343 PUSH2 0x16DD JUMP JUMPDEST PUSH1 0x0 DUP3 PUSH2 0x184E JUMPI PUSH4 0x4E487B71 PUSH1 0xE0 SHL PUSH1 0x0 MSTORE PUSH1 0x12 PUSH1 0x4 MSTORE PUSH1 0x24 PUSH1 0x0 REVERT JUMPDEST POP DIV SWAP1 JUMP JUMPDEST PUSH1 0x0 DUP4 MLOAD PUSH2 0x1865 DUP2 DUP5 PUSH1 0x20 DUP9 ADD PUSH2 0x12F2 JUMP JUMPDEST DUP4 MLOAD SWAP1 DUP4 ADD SWAP1 PUSH2 0x1879 DUP2 DUP4 PUSH1 0x20 DUP9 ADD PUSH2 0x12F2 JUMP JUMPDEST ADD SWAP5 SWAP4 POP POP POP POP JUMP JUMPDEST PUSH1 0x20 DUP1 DUP3 MSTORE PUSH1 0x25 SWAP1 DUP3 ADD MSTORE PUSH32 0x4552433732313A207472616E736665722066726F6D20696E636F727265637420 PUSH1 0x40 DUP3 ADD MSTORE PUSH5 0x37BBB732B9 PUSH1 0xD9 SHL PUSH1 0x60 DUP3 ADD MSTORE PUSH1 0x80 ADD SWAP1 JUMP JUMPDEST PUSH1 0x20 DUP1 DUP3 MSTORE PUSH1 0x32 SWAP1 DUP3 ADD MSTORE PUSH32 0x4552433732313A207472616E7366657220746F206E6F6E204552433732315265 PUSH1 0x40 DUP3 ADD MSTORE PUSH18 0x31B2B4BB32B91034B6B83632B6B2B73A32B9 PUSH1 0x71 SHL PUSH1 0x60 DUP3 ADD MSTORE PUSH1 0x80 ADD SWAP1 JUMP JUMPDEST PUSH1 0x1 PUSH1 0x1 PUSH1 0xA0 SHL SUB DUP6 DUP2 AND DUP3 MSTORE DUP5 AND PUSH1 0x20 DUP3 ADD MSTORE PUSH1 0x40 DUP2 ADD DUP4 SWAP1 MSTORE PUSH1 0x80 PUSH1 0x60 DUP3 ADD DUP2 SWAP1 MSTORE PUSH1 0x0 SWAP1 PUSH2 0x194C SWAP1 DUP4 ADD DUP5 PUSH2 0x1316 JUMP JUMPDEST SWAP7 SWAP6 POP POP POP POP POP POP JUMP JUMPDEST PUSH1 0x0 PUSH1 0x20 DUP3 DUP5 SUB SLT ISZERO PUSH2 0x1968 JUMPI PUSH1 0x0 DUP1 REVERT JUMPDEST DUP2 MLOAD PUSH2 0x9DD DUP2 PUSH2 0x12BF JUMP INVALID LOG2 PUSH5 0x6970667358 0x22 SLT KECCAK256 0xE7 LOG2 LOG4 DUP11 0xC3 0xE8 0xE9 0xE8 0xF8 JUMP 0xAB SWAP13 0x4D 0xE7 SAR KECCAK256 0xA5 SWAP10 PUSH10 0x8EEBAC52CE07F40469AC 0xDE 0xAA 0xBF PUSH5 0x736F6C6343 STOP ADDMOD SLT STOP CALLER "
				},
				"gasEstimates": {
					"creation": {
						"codeDepositCost": "1313800",
						"executionCost": "infinite",
						"totalCost": "infinite"
					},
					"external": {
						"approve(address,uint256)": "infinite",
						"balanceOf(address)": "2623",
						"currentTokenId()": "2308",
						"getApproved(uint256)": "4814",
						"isApprovedForAll(address,address)": "infinite",
						"liquidityWallet()": "2425",
						"mintNFT(string,string,uint256)": "infinite",
						"name()": "infinite",
						"nfts(uint256)": "infinite",
						"owner()": "2420",
						"ownerOf(uint256)": "2649",
						"renounceOwnership()": "infinite",
						"safeTransferFrom(address,address,uint256)": "infinite",
						"safeTransferFrom(address,address,uint256,bytes)": "infinite",
						"setApprovalForAll(address,bool)": "26705",
						"supportsInterface(bytes4)": "567",
						"symbol()": "infinite",
						"tokenURI(uint256)": "infinite",
						"transferFrom(address,address,uint256)": "infinite",
						"transferOwnership(address)": "28468",
						"treasuryWallet()": "2426"
					}
				},
				"methodIdentifiers": {
					"approve(address,uint256)": "095ea7b3",
					"balanceOf(address)": "70a08231",
					"currentTokenId()": "009a9b7b",
					"getApproved(uint256)": "081812fc",
					"isApprovedForAll(address,address)": "e985e9c5",
					"liquidityWallet()": "d4698016",
					"mintNFT(string,string,uint256)": "64b30907",
					"name()": "06fdde03",
					"nfts(uint256)": "265aa621",
					"owner()": "8da5cb5b",
					"ownerOf(uint256)": "6352211e",
					"renounceOwnership()": "715018a6",
					"safeTransferFrom(address,address,uint256)": "42842e0e",
					"safeTransferFrom(address,address,uint256,bytes)": "b88d4fde",
					"setApprovalForAll(address,bool)": "a22cb465",
					"supportsInterface(bytes4)": "01ffc9a7",
					"symbol()": "95d89b41",
					"tokenURI(uint256)": "c87b56dd",
					"transferFrom(address,address,uint256)": "23b872dd",
					"transferOwnership(address)": "f2fde38b",
					"treasuryWallet()": "4626402b"
				}
			},
			"storageLayout": {
				"storage": [
					{
						"astId": 138,
						"contract": "contracts/NFTMinter.sol:NFTMinter",
						"label": "_name",
						"offset": 0,
						"slot": "0",
						"type": "t_string_storage"
					},
					{
						"astId": 140,
						"contract": "contracts/NFTMinter.sol:NFTMinter",
						"label": "_symbol",
						"offset": 0,
						"slot": "1",
						"type": "t_string_storage"
					},
					{
						"astId": 144,
						"contract": "contracts/NFTMinter.sol:NFTMinter",
						"label": "_owners",
						"offset": 0,
						"slot": "2",
						"type": "t_mapping(t_uint256,t_address)"
					},
					{
						"astId": 148,
						"contract": "contracts/NFTMinter.sol:NFTMinter",
						"label": "_balances",
						"offset": 0,
						"slot": "3",
						"type": "t_mapping(t_address,t_uint256)"
					},
					{
						"astId": 152,
						"contract": "contracts/NFTMinter.sol:NFTMinter",
						"label": "_tokenApprovals",
						"offset": 0,
						"slot": "4",
						"type": "t_mapping(t_uint256,t_address)"
					},
					{
						"astId": 158,
						"contract": "contracts/NFTMinter.sol:NFTMinter",
						"label": "_operatorApprovals",
						"offset": 0,
						"slot": "5",
						"type": "t_mapping(t_address,t_mapping(t_address,t_bool))"
					},
					{
						"astId": 7,
						"contract": "contracts/NFTMinter.sol:NFTMinter",
						"label": "_owner",
						"offset": 0,
						"slot": "6",
						"type": "t_address"
					},
					{
						"astId": 2798,
						"contract": "contracts/NFTMinter.sol:NFTMinter",
						"label": "currentTokenId",
						"offset": 0,
						"slot": "7",
						"type": "t_uint256"
					},
					{
						"astId": 2812,
						"contract": "contracts/NFTMinter.sol:NFTMinter",
						"label": "nfts",
						"offset": 0,
						"slot": "8",
						"type": "t_mapping(t_uint256,t_struct(NFT)2807_storage)"
					},
					{
						"astId": 2814,
						"contract": "contracts/NFTMinter.sol:NFTMinter",
						"label": "liquidityWallet",
						"offset": 0,
						"slot": "9",
						"type": "t_address"
					},
					{
						"astId": 2816,
						"contract": "contracts/NFTMinter.sol:NFTMinter",
						"label": "treasuryWallet",
						"offset": 0,
						"slot": "10",
						"type": "t_address"
					}
				],
				"types": {
					"t_address": {
						"encoding": "inplace",
						"label": "address",
						"numberOfBytes": "20"
					},
					"t_bool": {
						"encoding": "inplace",
						"label": "bool",
						"numberOfBytes": "1"
					},
					"t_mapping(t_address,t_bool)": {
						"encoding": "mapping",
						"key": "t_address",
						"label": "mapping(address => bool)",
						"numberOfBytes": "32",
						"value": "t_bool"
					},
					"t_mapping(t_address,t_mapping(t_address,t_bool))": {
						"encoding": "mapping",
						"key": "t_address",
						"label": "mapping(address => mapping(address => bool))",
						"numberOfBytes": "32",
						"value": "t_mapping(t_address,t_bool)"
					},
					"t_mapping(t_address,t_uint256)": {
						"encoding": "mapping",
						"key": "t_address",
						"label": "mapping(address => uint256)",
						"numberOfBytes": "32",
						"value": "t_uint256"
					},
					"t_mapping(t_uint256,t_address)": {
						"encoding": "mapping",
						"key": "t_uint256",
						"label": "mapping(uint256 => address)",
						"numberOfBytes": "32",
						"value": "t_address"
					},
					"t_mapping(t_uint256,t_struct(NFT)2807_storage)": {
						"encoding": "mapping",
						"key": "t_uint256",
						"label": "mapping(uint256 => struct NFTMinter.NFT)",
						"numberOfBytes": "32",
						"value": "t_struct(NFT)2807_storage"
					},
					"t_string_storage": {
						"encoding": "bytes",
						"label": "string",
						"numberOfBytes": "32"
					},
					"t_struct(NFT)2807_storage": {
						"encoding": "inplace",
						"label": "struct NFTMinter.NFT",
						"members": [
							{
								"astId": 2800,
								"contract": "contracts/NFTMinter.sol:NFTMinter",
								"label": "name",
								"offset": 0,
								"slot": "0",
								"type": "t_string_storage"
							},
							{
								"astId": 2802,
								"contract": "contracts/NFTMinter.sol:NFTMinter",
								"label": "metadata",
								"offset": 0,
								"slot": "1",
								"type": "t_string_storage"
							},
							{
								"astId": 2804,
								"contract": "contracts/NFTMinter.sol:NFTMinter",
								"label": "price",
								"offset": 0,
								"slot": "2",
								"type": "t_uint256"
							},
							{
								"astId": 2806,
								"contract": "contracts/NFTMinter.sol:NFTMinter",
								"label": "creator",
								"offset": 0,
								"slot": "3",
								"type": "t_address"
							}
						],
						"numberOfBytes": "128"
					},
					"t_uint256": {
						"encoding": "inplace",
						"label": "uint256",
						"numberOfBytes": "32"
					}
				}
			},
			"userdoc": {
				"kind": "user",
				"methods": {},
				"version": 1
			}
		}
	}
}